{
	"packages/contracts/src/interfaces/Commands.sol": {
		"Commands": {
			"abi": [
				{
					"inputs": [],
					"name": "ADDRESS_TEMPLATE",
					"outputs": [
						{
							"internalType": "string",
							"name": "",
							"type": "string"
						}
					],
					"stateMutability": "view",
					"type": "function"
				},
				{
					"inputs": [],
					"name": "AMOUNT_TEMPLATE",
					"outputs": [
						{
							"internalType": "string",
							"name": "",
							"type": "string"
						}
					],
					"stateMutability": "view",
					"type": "function"
				},
				{
					"inputs": [],
					"name": "DKIM",
					"outputs": [
						{
							"internalType": "string",
							"name": "",
							"type": "string"
						}
					],
					"stateMutability": "view",
					"type": "function"
				},
				{
					"inputs": [],
					"name": "EXECUTE",
					"outputs": [
						{
							"internalType": "string",
							"name": "",
							"type": "string"
						}
					],
					"stateMutability": "view",
					"type": "function"
				},
				{
					"inputs": [],
					"name": "EXIT_EMAIL_WALLET",
					"outputs": [
						{
							"internalType": "string",
							"name": "",
							"type": "string"
						}
					],
					"stateMutability": "view",
					"type": "function"
				},
				{
					"inputs": [],
					"name": "INSTALL_EXTENSION",
					"outputs": [
						{
							"internalType": "string",
							"name": "",
							"type": "string"
						}
					],
					"stateMutability": "view",
					"type": "function"
				},
				{
					"inputs": [],
					"name": "INT_TEMPLATE",
					"outputs": [
						{
							"internalType": "string",
							"name": "",
							"type": "string"
						}
					],
					"stateMutability": "view",
					"type": "function"
				},
				{
					"inputs": [],
					"name": "RECIPIENT_TEMPLATE",
					"outputs": [
						{
							"internalType": "string",
							"name": "",
							"type": "string"
						}
					],
					"stateMutability": "view",
					"type": "function"
				},
				{
					"inputs": [],
					"name": "SEND",
					"outputs": [
						{
							"internalType": "string",
							"name": "",
							"type": "string"
						}
					],
					"stateMutability": "view",
					"type": "function"
				},
				{
					"inputs": [],
					"name": "STRING_TEMPLATE",
					"outputs": [
						{
							"internalType": "string",
							"name": "",
							"type": "string"
						}
					],
					"stateMutability": "view",
					"type": "function"
				},
				{
					"inputs": [],
					"name": "TOKEN_AMOUNT_TEMPLATE",
					"outputs": [
						{
							"internalType": "string",
							"name": "",
							"type": "string"
						}
					],
					"stateMutability": "view",
					"type": "function"
				},
				{
					"inputs": [],
					"name": "UINT_TEMPLATE",
					"outputs": [
						{
							"internalType": "string",
							"name": "",
							"type": "string"
						}
					],
					"stateMutability": "view",
					"type": "function"
				},
				{
					"inputs": [],
					"name": "UNINSTALL_EXTENSION",
					"outputs": [
						{
							"internalType": "string",
							"name": "",
							"type": "string"
						}
					],
					"stateMutability": "view",
					"type": "function"
				}
			],
			"devdoc": {
				"kind": "dev",
				"methods": {},
				"version": 1
			},
			"evm": {
				"assembly": "    /* \"packages/contracts/src/interfaces/Commands.sol\":557:1293  library Commands {... */\n  dataSize(sub_0)\n  dataOffset(sub_0)\n  0x0b\n  dup3\n  dup3\n  dup3\n  codecopy\n  dup1\n  mload\n  0x00\n  byte\n  0x73\n  eq\n  tag_1\n  jumpi\n  mstore(0x00, shl(0xe0, 0x4e487b71))\n  mstore(0x04, 0x00)\n  revert(0x00, 0x24)\ntag_1:\n  mstore(0x00, address)\n  0x73\n  dup2\n  mstore8\n  dup3\n  dup2\n  return\nstop\n\nsub_0: assembly {\n        /* \"packages/contracts/src/interfaces/Commands.sol\":557:1293  library Commands {... */\n      eq(address, deployTimeAddress())\n      mstore(0x40, 0x80)\n      jumpi(tag_1, lt(calldatasize, 0x04))\n      shr(0xe0, calldataload(0x00))\n      dup1\n      0x35c8b1ec\n      gt\n      tag_15\n      jumpi\n      dup1\n      0x8c215036\n      gt\n      tag_16\n      jumpi\n      dup1\n      0x8c215036\n      eq\n      tag_11\n      jumpi\n      dup1\n      0xa14b1f85\n      eq\n      tag_12\n      jumpi\n      dup1\n      0xd95dcc35\n      eq\n      tag_13\n      jumpi\n      dup1\n      0xe30f17cd\n      eq\n      tag_14\n      jumpi\n      0x00\n      dup1\n      revert\n    tag_16:\n      dup1\n      0x35c8b1ec\n      eq\n      tag_8\n      jumpi\n      dup1\n      0x82a576cb\n      eq\n      tag_9\n      jumpi\n      dup1\n      0x86eae84b\n      eq\n      tag_10\n      jumpi\n      0x00\n      dup1\n      revert\n    tag_15:\n      dup1\n      0x07e6fcd0\n      eq\n      tag_2\n      jumpi\n      dup1\n      0x0e6db37b\n      eq\n      tag_3\n      jumpi\n      dup1\n      0x0ec07449\n      eq\n      tag_4\n      jumpi\n      dup1\n      0x1f5e1334\n      eq\n      tag_5\n      jumpi\n      dup1\n      0x2564f64a\n      eq\n      tag_6\n      jumpi\n      dup1\n      0x328b7770\n      eq\n      tag_7\n      jumpi\n    tag_1:\n      0x00\n      dup1\n      revert\n        /* \"packages/contracts/src/interfaces/Commands.sol\":1070:1117  string public constant UINT_TEMPLATE = \"{uint}\" */\n    tag_2:\n      tag_17\n      mload(0x40)\n      dup1\n      0x40\n      add\n      0x40\n      mstore\n      dup1\n      0x06\n      dup2\n      mstore\n      0x20\n      add\n      shl(0xd0, 0x7b75696e747d)\n      dup2\n      mstore\n      pop\n      dup2\n      jump\n    tag_17:\n      mload(0x40)\n      tag_19\n      swap2\n      swap1\n      tag_20\n      jump\t// in\n    tag_19:\n      mload(0x40)\n      dup1\n      swap2\n      sub\n      swap1\n      return\n        /* \"packages/contracts/src/interfaces/Commands.sol\":956:1007  string public constant AMOUNT_TEMPLATE = \"{amount}\" */\n    tag_3:\n      tag_17\n      mload(0x40)\n      dup1\n      0x40\n      add\n      0x40\n      mstore\n      dup1\n      0x08\n      dup2\n      mstore\n      0x20\n      add\n      shl(0xc0, 0x7b616d6f756e747d)\n      dup2\n      mstore\n      pop\n      dup2\n      jump\n        /* \"packages/contracts/src/interfaces/Commands.sol\":1233:1290  string public constant RECIPIENT_TEMPLATE = \"{recipient}\" */\n    tag_4:\n      tag_17\n      mload(0x40)\n      dup1\n      0x40\n      add\n      0x40\n      mstore\n      dup1\n      0x0b\n      dup2\n      mstore\n      0x20\n      add\n      shl(0xa8, 0x7b726563697069656e747d)\n      dup2\n      mstore\n      pop\n      dup2\n      jump\n        /* \"packages/contracts/src/interfaces/Commands.sol\":580:616  string public constant SEND = \"Send\" */\n    tag_5:\n      tag_17\n      mload(0x40)\n      dup1\n      0x40\n      add\n      0x40\n      mstore\n      dup1\n      0x04\n      dup2\n      mstore\n      0x20\n      add\n      shl(0xe2, 0x14d95b99)\n      dup2\n      mstore\n      pop\n      dup2\n      jump\n        /* \"packages/contracts/src/interfaces/Commands.sol\":770:826  string public constant UNINSTALL_EXTENSION = \"Uninstall\" */\n    tag_6:\n      tag_17\n      mload(0x40)\n      dup1\n      0x40\n      add\n      0x40\n      mstore\n      dup1\n      0x09\n      dup2\n      mstore\n      0x20\n      add\n      shl(0xba, 0x155b9a5b9cdd185b1b)\n      dup2\n      mstore\n      pop\n      dup2\n      jump\n        /* \"packages/contracts/src/interfaces/Commands.sol\":622:664  string public constant EXECUTE = \"Execute\" */\n    tag_7:\n      tag_17\n      mload(0x40)\n      dup1\n      0x40\n      add\n      0x40\n      mstore\n      dup1\n      0x07\n      dup2\n      mstore\n      0x20\n      add\n      shl(0xc8, 0x45786563757465)\n      dup2\n      mstore\n      pop\n      dup2\n      jump\n        /* \"packages/contracts/src/interfaces/Commands.sol\":1013:1064  string public constant STRING_TEMPLATE = \"{string}\" */\n    tag_8:\n      tag_17\n      mload(0x40)\n      dup1\n      0x40\n      add\n      0x40\n      mstore\n      dup1\n      0x08\n      dup2\n      mstore\n      0x20\n      add\n      shl(0xc0, 0x7b737472696e677d)\n      dup2\n      mstore\n      pop\n      dup2\n      jump\n        /* \"packages/contracts/src/interfaces/Commands.sol\":832:881  string public constant EXIT_EMAIL_WALLET = \"Exit\" */\n    tag_9:\n      tag_17\n      mload(0x40)\n      dup1\n      0x40\n      add\n      0x40\n      mstore\n      dup1\n      0x04\n      dup2\n      mstore\n      0x20\n      add\n      shl(0xe2, 0x115e1a5d)\n      dup2\n      mstore\n      pop\n      dup2\n      jump\n        /* \"packages/contracts/src/interfaces/Commands.sol\":712:764  string public constant INSTALL_EXTENSION = \"Install\" */\n    tag_10:\n      tag_17\n      mload(0x40)\n      dup1\n      0x40\n      add\n      0x40\n      mstore\n      dup1\n      0x07\n      dup2\n      mstore\n      0x20\n      add\n      shl(0xca, 0x125b9cdd185b1b)\n      dup2\n      mstore\n      pop\n      dup2\n      jump\n        /* \"packages/contracts/src/interfaces/Commands.sol\":888:950  string public constant TOKEN_AMOUNT_TEMPLATE = \"{tokenAmount}\" */\n    tag_11:\n      tag_17\n      mload(0x40)\n      dup1\n      0x40\n      add\n      0x40\n      mstore\n      dup1\n      0x0d\n      dup2\n      mstore\n      0x20\n      add\n      shl(0x98, 0x7b746f6b656e416d6f756e747d)\n      dup2\n      mstore\n      pop\n      dup2\n      jump\n        /* \"packages/contracts/src/interfaces/Commands.sol\":670:706  string public constant DKIM = \"DKIM\" */\n    tag_12:\n      tag_17\n      mload(0x40)\n      dup1\n      0x40\n      add\n      0x40\n      mstore\n      dup1\n      0x04\n      dup2\n      mstore\n      0x20\n      add\n      shl(0xe0, 0x444b494d)\n      dup2\n      mstore\n      pop\n      dup2\n      jump\n        /* \"packages/contracts/src/interfaces/Commands.sol\":1174:1227  string public constant ADDRESS_TEMPLATE = \"{address}\" */\n    tag_13:\n      tag_17\n      mload(0x40)\n      dup1\n      0x40\n      add\n      0x40\n      mstore\n      dup1\n      0x09\n      dup2\n      mstore\n      0x20\n      add\n      shl(0xb8, 0x7b616464726573737d)\n      dup2\n      mstore\n      pop\n      dup2\n      jump\n        /* \"packages/contracts/src/interfaces/Commands.sol\":1123:1168  string public constant INT_TEMPLATE = \"{int}\" */\n    tag_14:\n      tag_17\n      mload(0x40)\n      dup1\n      0x40\n      add\n      0x40\n      mstore\n      dup1\n      0x05\n      dup2\n      mstore\n      0x20\n      add\n      shl(0xd8, 0x7b696e747d)\n      dup2\n      mstore\n      pop\n      dup2\n      jump\n        /* \"#utility.yul\":14:570   */\n    tag_20:\n        /* \"#utility.yul\":134:138   */\n      0x00\n        /* \"#utility.yul\":163:165   */\n      0x20\n        /* \"#utility.yul\":192:194   */\n      dup1\n        /* \"#utility.yul\":181:190   */\n      dup4\n        /* \"#utility.yul\":174:195   */\n      mstore\n        /* \"#utility.yul\":224:230   */\n      dup4\n        /* \"#utility.yul\":218:231   */\n      mload\n        /* \"#utility.yul\":267:273   */\n      dup1\n        /* \"#utility.yul\":262:264   */\n      0x20\n        /* \"#utility.yul\":251:260   */\n      dup6\n        /* \"#utility.yul\":247:265   */\n      add\n        /* \"#utility.yul\":240:274   */\n      mstore\n        /* \"#utility.yul\":292:293   */\n      0x00\n        /* \"#utility.yul\":302:442   */\n    tag_59:\n        /* \"#utility.yul\":316:322   */\n      dup2\n        /* \"#utility.yul\":313:314   */\n      dup2\n        /* \"#utility.yul\":310:323   */\n      lt\n        /* \"#utility.yul\":302:442   */\n      iszero\n      tag_61\n      jumpi\n        /* \"#utility.yul\":411:425   */\n      dup6\n      dup2\n      add\n        /* \"#utility.yul\":407:430   */\n      dup4\n      add\n        /* \"#utility.yul\":401:431   */\n      mload\n        /* \"#utility.yul\":377:394   */\n      dup6\n      dup3\n      add\n        /* \"#utility.yul\":396:398   */\n      0x40\n        /* \"#utility.yul\":373:399   */\n      add\n        /* \"#utility.yul\":366:432   */\n      mstore\n        /* \"#utility.yul\":331:341   */\n      dup3\n      add\n        /* \"#utility.yul\":302:442   */\n      jump(tag_59)\n    tag_61:\n        /* \"#utility.yul\":306:309   */\n      pop\n        /* \"#utility.yul\":491:492   */\n      0x00\n        /* \"#utility.yul\":486:488   */\n      0x40\n        /* \"#utility.yul\":477:483   */\n      dup3\n        /* \"#utility.yul\":466:475   */\n      dup7\n        /* \"#utility.yul\":462:484   */\n      add\n        /* \"#utility.yul\":458:489   */\n      add\n        /* \"#utility.yul\":451:493   */\n      mstore\n        /* \"#utility.yul\":561:563   */\n      0x40\n        /* \"#utility.yul\":554:556   */\n      0x1f\n        /* \"#utility.yul\":550:557   */\n      not\n        /* \"#utility.yul\":545:547   */\n      0x1f\n        /* \"#utility.yul\":537:543   */\n      dup4\n        /* \"#utility.yul\":533:548   */\n      add\n        /* \"#utility.yul\":529:558   */\n      and\n        /* \"#utility.yul\":518:527   */\n      dup6\n        /* \"#utility.yul\":514:559   */\n      add\n        /* \"#utility.yul\":510:564   */\n      add\n        /* \"#utility.yul\":502:564   */\n      swap3\n      pop\n      pop\n      pop\n        /* \"#utility.yul\":14:570   */\n      swap3\n      swap2\n      pop\n      pop\n      jump\t// out\n\n    auxdata: 0xa26469706673582212209cb994b8ecb77868d5d49294ab7723381667203d38713746b437e5038c64876264736f6c63430008160033\n}\n",
				"bytecode": {
					"linkReferences": {},
					"object": "610364610035600b8282823980515f1a60731461002957634e487b7160e01b5f525f60045260245ffd5b305f52607381538281f3fe73000000000000000000000000000000000000000030146080604052600436106100d6575f3560e01c806335c8b1ec116100935780638c2150361161006e5780638c21503614610247578063a14b1f8514610273578063d95dcc3514610296578063e30f17cd146102be575f80fd5b806335c8b1ec146101d757806382a576cb146101fe57806386eae84b14610221575f80fd5b806307e6fcd0146100da5780630e6db37b146101155780630ec074491461013c5780631f5e1334146101665780632564f64a14610189578063328b7770146101b1575b5f80fd5b6100ff604051806040016040528060068152602001657b75696e747d60d01b81525081565b60405161010c91906102e2565b60405180910390f35b6100ff604051806040016040528060088152602001677b616d6f756e747d60c01b81525081565b6100ff6040518060400160405280600b81526020016a7b726563697069656e747d60a81b81525081565b6100ff6040518060400160405280600481526020016314d95b9960e21b81525081565b6100ff60405180604001604052806009815260200168155b9a5b9cdd185b1b60ba1b81525081565b6100ff604051806040016040528060078152602001664578656375746560c81b81525081565b6100ff604051806040016040528060088152602001677b737472696e677d60c01b81525081565b6100ff60405180604001604052806004815260200163115e1a5d60e21b81525081565b6100ff60405180604001604052806007815260200166125b9cdd185b1b60ca1b81525081565b6100ff6040518060400160405280600d81526020016c7b746f6b656e416d6f756e747d60981b81525081565b6100ff60405180604001604052806004815260200163444b494d60e01b81525081565b6100ff604051806040016040528060098152602001687b616464726573737d60b81b81525081565b6100ff604051806040016040528060058152602001647b696e747d60d81b81525081565b5f602080835283518060208501525f5b8181101561030e578581018301518582016040015282016102f2565b505f604082860101526040601f19601f830116850101925050509291505056fea26469706673582212209cb994b8ecb77868d5d49294ab7723381667203d38713746b437e5038c64876264736f6c63430008160033",
					"opcodes": "PUSH2 0x364 PUSH2 0x35 PUSH1 0xB DUP3 DUP3 DUP3 CODECOPY DUP1 MLOAD PUSH0 BYTE PUSH1 0x73 EQ PUSH2 0x29 JUMPI PUSH4 0x4E487B71 PUSH1 0xE0 SHL PUSH0 MSTORE PUSH0 PUSH1 0x4 MSTORE PUSH1 0x24 PUSH0 REVERT JUMPDEST ADDRESS PUSH0 MSTORE PUSH1 0x73 DUP2 MSTORE8 DUP3 DUP2 RETURN INVALID PUSH20 0x0 ADDRESS EQ PUSH1 0x80 PUSH1 0x40 MSTORE PUSH1 0x4 CALLDATASIZE LT PUSH2 0xD6 JUMPI PUSH0 CALLDATALOAD PUSH1 0xE0 SHR DUP1 PUSH4 0x35C8B1EC GT PUSH2 0x93 JUMPI DUP1 PUSH4 0x8C215036 GT PUSH2 0x6E JUMPI DUP1 PUSH4 0x8C215036 EQ PUSH2 0x247 JUMPI DUP1 PUSH4 0xA14B1F85 EQ PUSH2 0x273 JUMPI DUP1 PUSH4 0xD95DCC35 EQ PUSH2 0x296 JUMPI DUP1 PUSH4 0xE30F17CD EQ PUSH2 0x2BE JUMPI PUSH0 DUP1 REVERT JUMPDEST DUP1 PUSH4 0x35C8B1EC EQ PUSH2 0x1D7 JUMPI DUP1 PUSH4 0x82A576CB EQ PUSH2 0x1FE JUMPI DUP1 PUSH4 0x86EAE84B EQ PUSH2 0x221 JUMPI PUSH0 DUP1 REVERT JUMPDEST DUP1 PUSH4 0x7E6FCD0 EQ PUSH2 0xDA JUMPI DUP1 PUSH4 0xE6DB37B EQ PUSH2 0x115 JUMPI DUP1 PUSH4 0xEC07449 EQ PUSH2 0x13C JUMPI DUP1 PUSH4 0x1F5E1334 EQ PUSH2 0x166 JUMPI DUP1 PUSH4 0x2564F64A EQ PUSH2 0x189 JUMPI DUP1 PUSH4 0x328B7770 EQ PUSH2 0x1B1 JUMPI JUMPDEST PUSH0 DUP1 REVERT JUMPDEST PUSH2 0xFF PUSH1 0x40 MLOAD DUP1 PUSH1 0x40 ADD PUSH1 0x40 MSTORE DUP1 PUSH1 0x6 DUP2 MSTORE PUSH1 0x20 ADD PUSH6 0x7B75696E747D PUSH1 0xD0 SHL DUP2 MSTORE POP DUP2 JUMP JUMPDEST PUSH1 0x40 MLOAD PUSH2 0x10C SWAP2 SWAP1 PUSH2 0x2E2 JUMP JUMPDEST PUSH1 0x40 MLOAD DUP1 SWAP2 SUB SWAP1 RETURN JUMPDEST PUSH2 0xFF PUSH1 0x40 MLOAD DUP1 PUSH1 0x40 ADD PUSH1 0x40 MSTORE DUP1 PUSH1 0x8 DUP2 MSTORE PUSH1 0x20 ADD PUSH8 0x7B616D6F756E747D PUSH1 0xC0 SHL DUP2 MSTORE POP DUP2 JUMP JUMPDEST PUSH2 0xFF PUSH1 0x40 MLOAD DUP1 PUSH1 0x40 ADD PUSH1 0x40 MSTORE DUP1 PUSH1 0xB DUP2 MSTORE PUSH1 0x20 ADD PUSH11 0x7B726563697069656E747D PUSH1 0xA8 SHL DUP2 MSTORE POP DUP2 JUMP JUMPDEST PUSH2 0xFF PUSH1 0x40 MLOAD DUP1 PUSH1 0x40 ADD PUSH1 0x40 MSTORE DUP1 PUSH1 0x4 DUP2 MSTORE PUSH1 0x20 ADD PUSH4 0x14D95B99 PUSH1 0xE2 SHL DUP2 MSTORE POP DUP2 JUMP JUMPDEST PUSH2 0xFF PUSH1 0x40 MLOAD DUP1 PUSH1 0x40 ADD PUSH1 0x40 MSTORE DUP1 PUSH1 0x9 DUP2 MSTORE PUSH1 0x20 ADD PUSH9 0x155B9A5B9CDD185B1B PUSH1 0xBA SHL DUP2 MSTORE POP DUP2 JUMP JUMPDEST PUSH2 0xFF PUSH1 0x40 MLOAD DUP1 PUSH1 0x40 ADD PUSH1 0x40 MSTORE DUP1 PUSH1 0x7 DUP2 MSTORE PUSH1 0x20 ADD PUSH7 0x45786563757465 PUSH1 0xC8 SHL DUP2 MSTORE POP DUP2 JUMP JUMPDEST PUSH2 0xFF PUSH1 0x40 MLOAD DUP1 PUSH1 0x40 ADD PUSH1 0x40 MSTORE DUP1 PUSH1 0x8 DUP2 MSTORE PUSH1 0x20 ADD PUSH8 0x7B737472696E677D PUSH1 0xC0 SHL DUP2 MSTORE POP DUP2 JUMP JUMPDEST PUSH2 0xFF PUSH1 0x40 MLOAD DUP1 PUSH1 0x40 ADD PUSH1 0x40 MSTORE DUP1 PUSH1 0x4 DUP2 MSTORE PUSH1 0x20 ADD PUSH4 0x115E1A5D PUSH1 0xE2 SHL DUP2 MSTORE POP DUP2 JUMP JUMPDEST PUSH2 0xFF PUSH1 0x40 MLOAD DUP1 PUSH1 0x40 ADD PUSH1 0x40 MSTORE DUP1 PUSH1 0x7 DUP2 MSTORE PUSH1 0x20 ADD PUSH7 0x125B9CDD185B1B PUSH1 0xCA SHL DUP2 MSTORE POP DUP2 JUMP JUMPDEST PUSH2 0xFF PUSH1 0x40 MLOAD DUP1 PUSH1 0x40 ADD PUSH1 0x40 MSTORE DUP1 PUSH1 0xD DUP2 MSTORE PUSH1 0x20 ADD PUSH13 0x7B746F6B656E416D6F756E747D PUSH1 0x98 SHL DUP2 MSTORE POP DUP2 JUMP JUMPDEST PUSH2 0xFF PUSH1 0x40 MLOAD DUP1 PUSH1 0x40 ADD PUSH1 0x40 MSTORE DUP1 PUSH1 0x4 DUP2 MSTORE PUSH1 0x20 ADD PUSH4 0x444B494D PUSH1 0xE0 SHL DUP2 MSTORE POP DUP2 JUMP JUMPDEST PUSH2 0xFF PUSH1 0x40 MLOAD DUP1 PUSH1 0x40 ADD PUSH1 0x40 MSTORE DUP1 PUSH1 0x9 DUP2 MSTORE PUSH1 0x20 ADD PUSH9 0x7B616464726573737D PUSH1 0xB8 SHL DUP2 MSTORE POP DUP2 JUMP JUMPDEST PUSH2 0xFF PUSH1 0x40 MLOAD DUP1 PUSH1 0x40 ADD PUSH1 0x40 MSTORE DUP1 PUSH1 0x5 DUP2 MSTORE PUSH1 0x20 ADD PUSH5 0x7B696E747D PUSH1 0xD8 SHL DUP2 MSTORE POP DUP2 JUMP JUMPDEST PUSH0 PUSH1 0x20 DUP1 DUP4 MSTORE DUP4 MLOAD DUP1 PUSH1 0x20 DUP6 ADD MSTORE PUSH0 JUMPDEST DUP2 DUP2 LT ISZERO PUSH2 0x30E JUMPI DUP6 DUP2 ADD DUP4 ADD MLOAD DUP6 DUP3 ADD PUSH1 0x40 ADD MSTORE DUP3 ADD PUSH2 0x2F2 JUMP JUMPDEST POP PUSH0 PUSH1 0x40 DUP3 DUP7 ADD ADD MSTORE PUSH1 0x40 PUSH1 0x1F NOT PUSH1 0x1F DUP4 ADD AND DUP6 ADD ADD SWAP3 POP POP POP SWAP3 SWAP2 POP POP JUMP INVALID LOG2 PUSH5 0x6970667358 0x22 SLT KECCAK256 SWAP13 0xB9 SWAP5 0xB8 0xEC 0xB7 PUSH25 0x68D5D49294AB7723381667203D38713746B437E5038C648762 PUSH5 0x736F6C6343 STOP ADDMOD AND STOP CALLER "
				},
				"gasEstimates": {
					"creation": {
						"codeDepositCost": "173600",
						"executionCost": "247",
						"totalCost": "173847"
					},
					"external": {
						"ADDRESS_TEMPLATE()": "infinite",
						"AMOUNT_TEMPLATE()": "infinite",
						"DKIM()": "infinite",
						"EXECUTE()": "infinite",
						"EXIT_EMAIL_WALLET()": "infinite",
						"INSTALL_EXTENSION()": "infinite",
						"INT_TEMPLATE()": "infinite",
						"RECIPIENT_TEMPLATE()": "infinite",
						"SEND()": "infinite",
						"STRING_TEMPLATE()": "infinite",
						"TOKEN_AMOUNT_TEMPLATE()": "infinite",
						"UINT_TEMPLATE()": "infinite",
						"UNINSTALL_EXTENSION()": "infinite"
					}
				},
				"methodIdentifiers": {
					"ADDRESS_TEMPLATE()": "d95dcc35",
					"AMOUNT_TEMPLATE()": "0e6db37b",
					"DKIM()": "a14b1f85",
					"EXECUTE()": "328b7770",
					"EXIT_EMAIL_WALLET()": "82a576cb",
					"INSTALL_EXTENSION()": "86eae84b",
					"INT_TEMPLATE()": "e30f17cd",
					"RECIPIENT_TEMPLATE()": "0ec07449",
					"SEND()": "1f5e1334",
					"STRING_TEMPLATE()": "35c8b1ec",
					"TOKEN_AMOUNT_TEMPLATE()": "8c215036",
					"UINT_TEMPLATE()": "07e6fcd0",
					"UNINSTALL_EXTENSION()": "2564f64a"
				}
			},
			"storageLayout": {
				"storage": [],
				"types": null
			},
			"userdoc": {
				"kind": "user",
				"methods": {},
				"version": 1
			}
		}
	}
}