{
	"data": {
		"bytecode": {
			"linkReferences": {},
			"object": "608060405234801561000f575f80fd5b506100193361001e565b61006d565b5f80546001600160a01b038381166001600160a01b0319831681178455604051919092169283917f8be0079c531659141344cd1fd0a4f28419497f9722a3daafe3b4186f6b6457e09190a35050565b611c7e8061007a5f395ff3fe608060405234801561000f575f80fd5b50600436106100cb575f3560e01c806393ec497111610088578063e086a82211610063578063e086a82214610232578063f1fbbba114610245578063f2fde38b14610258578063f884630b1461026b575f80fd5b806393ec4971146101cb57806393f87842146101eb578063bc27aeb31461021f575f80fd5b80630db79b93146100cf5780632f1d7ddc146101205780633a03738a1461014d5780636dfbe35e14610191578063715018a6146101b15780638da5cb5b146101bb575b5f80fd5b6101036100dd36600461151f565b80516020818301810180516002825292820191909301209152546001600160a01b031681565b6040516001600160a01b0390911681526020015b60405180910390f35b61013f61012e36600461157d565b60046020525f908152604090205481565b604051908152602001610117565b61010361015b36600461159f565b600560209081525f928352604090922081518083018401805192815290840192909301919091209152546001600160a01b031681565b6101a461019f36600461157d565b61027e565b60405161011791906116d1565b6101b96103ac565b005b5f546001600160a01b0316610103565b6101de6101d93660046116e3565b6103bf565b6040516101179190611715565b6101036101f936600461151f565b80516020818301810180516001825292820191909301209152546001600160a01b031681565b6101b961022d366004611846565b610486565b61010361024036600461159f565b610f68565b6101b96102533660046118ed565b610fee565b6101b961026636600461157d565b611053565b6101b961027936600461194d565b6110cc565b6001600160a01b0381165f908152600360209081526040808320805482518185028101850190935280835260609492939192909184015b828210156103a1578382905f5260205f2001805480602002602001604051908101604052809291908181526020015f905b8282101561038e578382905f5260205f20018054610303906119bc565b80601f016020809104026020016040519081016040528092919081815260200182805461032f906119bc565b801561037a5780601f106103515761010080835404028352916020019161037a565b820191905f5260205f20905b81548152906001019060200180831161035d57829003601f168201915b5050505050815260200190600101906102e6565b50505050815260200190600101906102b5565b505050509050919050565b6103b4611282565b6103bd5f6112db565b565b6003602052825f5260405f2082815481106103d8575f80fd5b905f5260205f200181815481106103ed575f80fd5b905f5260205f20015f9250925050508054610407906119bc565b80601f0160208091040260200160405190810160405280929190818152602001828054610433906119bc565b801561047e5780601f106104555761010080835404028352916020019161047e565b820191905f5260205f20905b81548152906001019060200180831161046157829003601f168201915b505050505081565b5f6001600160a01b0316600186866040516104a29291906119f4565b908152604051908190036020019020546001600160a01b03161461050d5760405162461bcd60e51b815260206004820152601b60248201527f657874656e73696f6e206e616d6520616c72656164792075736564000000000060448201526064015b60405180910390fd5b6001600160a01b0383166105635760405162461bcd60e51b815260206004820152601960248201527f696e76616c696420657874656e73696f6e2061646472657373000000000000006044820152606401610504565b836105a95760405162461bcd60e51b8152602060048201526016602482015275696e76616c696420657874656e73696f6e206e616d6560501b6044820152606401610504565b5f81116106095760405162461bcd60e51b815260206004820152602860248201527f6d6178457865637574696f6e476173206d757374206265206c6172676572207460448201526768616e207a65726f60c01b6064820152608401610504565b5f8251116106685760405162461bcd60e51b815260206004820152602660248201527f7375626a65637454656d706c617465732061727261792063616e6e6f7420626560448201526520656d70747960d01b6064820152608401610504565b6001600160a01b0383165f90815260046020526040902054156106cd5760405162461bcd60e51b815260206004820152601b60248201527f657874656e73696f6e20616c7265616479207075626c697368656400000000006044820152606401610504565b60605f5b835181101561095f575f8482815181106106ed576106ed611a03565b602002602001015151116107435760405162461bcd60e51b815260206004820152601f60248201527f7375626a65637454656d706c6174652063616e6e6f7420626520656d707479006044820152606401610504565b805f036107845783818151811061075c5761075c611a03565b60200260200101515f8151811061077557610775611a03565b6020026020010151915061082d565b6107d18285838151811061079a5761079a611a03565b60200260200101515f815181106107b3576107b3611a03565b60200260200101518051602091820120825192909101919091201490565b61082d5760405162461bcd60e51b815260206004820152602760248201527f7375626a65637454656d706c61746573206d75737420686176652073616d652060448201526618dbdb5b585b9960ca1b6064820152608401610504565b5f60015b85838151811061084357610843611a03565b6020026020010151518110156108f3576108d886848151811061086857610868611a03565b6020026020010151828151811061088157610881611a03565b60209081029190910181015160408051808201909152600b81526a7b726563697069656e747d60a81b9083015280519101207f8aaf32fcbd174399cb3669036e8da3c3578002bcce064a4a8f29f7b5674bbcaf1490565b156108eb57816108e781611a17565b9250505b600101610831565b5060018111156109565760405162461bcd60e51b815260206004820152602860248201527f726563697069656e742074656d706c6174652063616e206f6e6c792062652075604482015267736564206f6e636560c01b6064820152608401610504565b506001016106d1565b505f5b81518110156109e65781818151811061097d5761097d611a03565b01602001516001600160f81b031916600160fd1b036109de5760405162461bcd60e51b815260206004820152601a60248201527f636f6d6d616e642073686f756c64206265206f6e6520776f72640000000000006044820152606401610504565b600101610962565b5060408051808201909152600481526314d95b9960e21b6020918201528151908201207fa886dd9bf74a23521a7b7ff5d419d5a1c9e53e4b8c030012967fabd9be77821914158015610a7c57506040805180820190915260078152664578656375746560c81b6020918201528151908201207f28d668beb286a0839c52825618abb539cbe274853731db4004ca7bcf1049a4ca14155b8015610acc5750604080518082019091526007815266125b9cdd185b1b60ca1b6020918201528151908201207f6697c63a74fcc5c464f3dcb6b3a4e49cb1d1003da99048d44c6d2b12fe00ff3a14155b8015610b1e5750604080518082019091526009815268155b9a5b9cdd185b1b60ba1b6020918201528151908201207fcf0fb4af6fa71203bf8ca49a15d730b9e9a0385a52961e75ded30718d69a944e14155b8015610b6b5750604080518082019091526004815263115e1a5d60e21b6020918201528151908201207f24f73f4b0982cea5408e76088d1820dcfce3fd3fb65e923dcb9879c1e7e9114114155b8015610bb85750604080518082019091526004815263444b494d60e01b6020918201528151908201207f63caed16123396ddfbcc1e893ad0c18ec46a2548dbeb5118752368356439f0af14155b610c0e5760405162461bcd60e51b815260206004820152602160248201527f636f6d6d616e642063616e6e6f742062652061207265736572766564206e616d6044820152606560f81b6064820152608401610504565b60408051808201909152600d81526c7b746f6b656e416d6f756e747d60981b6020918201528151908201207f815ff003ec3cd903b6b66ff0f95b542fd3a93d2d90693c0d0c6beaa33ccaaf2b14158015610cad57506040805180820190915260088152677b616d6f756e747d60c01b6020918201528151908201207f6f8367b1d9d8a7b82dd8c3fea75362c06146bca071119cf59a3cb58501076bf014155b8015610cfe57506040805180820190915260088152677b737472696e677d60c01b6020918201528151908201207fb0dd9c5dfd6b1348089539c8cd8146a59f1fd23ff2de9c6052e54da8d2a6c0fb14155b8015610d4d57506040805180820190915260068152657b75696e747d60d01b6020918201528151908201207f6f5ea6f405f661d5066b9e0ff07a25fd2e0d206057a7fc2dfef33ff65ad22a2314155b8015610d9b57506040805180820190915260058152647b696e747d60d81b6020918201528151908201207f96115c52281705004db3ca7f604112b6bc76ae505ed268b2dbee29feb8e7899d14155b8015610ded57506040805180820190915260098152687b616464726573737d60b81b6020918201528151908201207f9a3de9fca46f2420947f2d1d4744c5febedebc77b9a3fcbfcf16ed02cbe48f7314155b8015610e41575060408051808201909152600b81526a7b726563697069656e747d60a81b6020918201528151908201207f8aaf32fcbd174399cb3669036e8da3c3578002bcce064a4a8f29f7b5674bbcaf14155b610e995760405162461bcd60e51b8152602060048201526024808201527f636f6d6d616e642063616e6e6f7420626520612074656d706c617465206d617460448201526331b432b960e11b6064820152608401610504565b8360018787604051610eac9291906119f4565b908152604080516020928190038301902080546001600160a01b0319166001600160a01b039485161790559186165f90815260038252919091208451610ef49286019061132a565b506001600160a01b0384165f818152600460205260409081902084905551610f1f90889088906119f4565b60405180910390207fef0e971f43d9347ead7cb66791fdcce2d7a5171ee1f652fec727823d1e2d4ee88585604051610f58929190611a3b565b60405180910390a3505050505050565b6001600160a01b0382165f90815260056020526040808220905182918291610f91908690611a5c565b908152604051908190036020019020546001600160a01b031690508015610fba57809150610fe6565b600284604051610fca9190611a5c565b908152604051908190036020019020546001600160a01b031691505b509392505050565b610ff6611282565b6001600160a01b0383165f9081526005602052604090819020905182919061101f908590611a5c565b90815260405190819003602001902080546001600160a01b03929092166001600160a01b0319909216919091179055505050565b61105b611282565b6001600160a01b0381166110c05760405162461bcd60e51b815260206004820152602660248201527f4f776e61626c653a206e6577206f776e657220697320746865207a65726f206160448201526564647265737360d01b6064820152608401610504565b6110c9816112db565b50565b6110d4611282565b5f54600160a01b900460ff161561112d5760405162461bcd60e51b815260206004820152601e60248201527f64656661756c7420657874656e73696f6e7320616c72656164792073657400006044820152606401610504565b5f5b8181101561126b575f805f8086868681811061114d5761114d611a03565b905060200281019061115f9190611a77565b81019061116c9190611ac1565b9350935093509350826001856040516111859190611a5c565b908152604080516020928190038301902080546001600160a01b0319166001600160a01b039485161790559185165f908152600382529190912083516111cd9285019061132a565b506001600160a01b0383165f908152600460205260408120829055825184916002918591906111fe576111fe611a03565b60200260200101515f8151811061121757611217611a03565b602002602001015160405161122c9190611a5c565b90815260405190819003602001902080546001600160a01b03929092166001600160a01b0319909216919091179055505050600191909101905061112f565b50505f805460ff60a01b1916600160a01b17905550565b5f546001600160a01b031633146103bd5760405162461bcd60e51b815260206004820181905260248201527f4f776e61626c653a2063616c6c6572206973206e6f7420746865206f776e65726044820152606401610504565b5f80546001600160a01b038381166001600160a01b0319831681178455604051919092169283917f8be0079c531659141344cd1fd0a4f28419497f9722a3daafe3b4186f6b6457e09190a35050565b828054828255905f5260205f20908101928215611375579160200282015b828111156113755782518051611365918491602090910190611385565b5091602001919060010190611348565b506113819291506113d5565b5090565b828054828255905f5260205f209081019282156113c9579160200282015b828111156113c957825182906113b99082611b88565b50916020019190600101906113a3565b506113819291506113f1565b80821115611381575f6113e8828261140d565b506001016113d5565b80821115611381575f6114048282611428565b506001016113f1565b5080545f8255905f5260205f20908101906110c991906113f1565b508054611434906119bc565b5f825580601f10611443575050565b601f0160209004905f5260205f20908101906110c991905b80821115611381575f815560010161145b565b634e487b7160e01b5f52604160045260245ffd5b604051601f8201601f1916810167ffffffffffffffff811182821017156114ab576114ab61146e565b604052919050565b5f82601f8301126114c2575f80fd5b813567ffffffffffffffff8111156114dc576114dc61146e565b6114ef601f8201601f1916602001611482565b818152846020838601011115611503575f80fd5b816020850160208301375f918101602001919091529392505050565b5f6020828403121561152f575f80fd5b813567ffffffffffffffff811115611545575f80fd5b611551848285016114b3565b949350505050565b6001600160a01b03811681146110c9575f80fd5b803561157881611559565b919050565b5f6020828403121561158d575f80fd5b813561159881611559565b9392505050565b5f80604083850312156115b0575f80fd5b82356115bb81611559565b9150602083013567ffffffffffffffff8111156115d6575f80fd5b6115e2858286016114b3565b9150509250929050565b5f5b838110156116065781810151838201526020016115ee565b50505f910152565b5f81518084526116258160208601602086016115ec565b601f01601f19169290920160200192915050565b5f828251808552602080860195506005818360051b8501018287015f5b858110156116c357601f1987840381018b5282518051808652908701908786019080881b870189015f5b828110156116ac578589830301845261169a82865161160e565b948b0194938b01939150600101611680565b509d89019d96505050928601925050600101611656565b509098975050505050505050565b602081525f6115986020830184611639565b5f805f606084860312156116f5575f80fd5b833561170081611559565b95602085013595506040909401359392505050565b602081525f611598602083018461160e565b5f67ffffffffffffffff8211156117405761174061146e565b5060051b60200190565b5f82601f830112611759575f80fd5b8135602061176e61176983611727565b611482565b82815260059290921b8401810191818101908684111561178c575f80fd5b8286015b8481101561183b57803567ffffffffffffffff808211156117af575f80fd5b818901915089603f8301126117c2575f80fd5b858201356117d261176982611727565b81815260059190911b830160400190878101908c8311156117f1575f80fd5b604085015b838110156118295780358581111561180c575f80fd5b61181b8f6040838a01016114b3565b8452509189019189016117f6565b50875250505092840192508301611790565b509695505050505050565b5f805f805f6080868803121561185a575f80fd5b853567ffffffffffffffff80821115611871575f80fd5b818801915088601f830112611884575f80fd5b813581811115611892575f80fd5b8960208285010111156118a3575f80fd5b602083019750809650506118b96020890161156d565b945060408801359150808211156118ce575f80fd5b506118db8882890161174a565b95989497509295606001359392505050565b5f805f606084860312156118ff575f80fd5b833561190a81611559565b9250602084013567ffffffffffffffff811115611925575f80fd5b611931868287016114b3565b925050604084013561194281611559565b809150509250925092565b5f806020838503121561195e575f80fd5b823567ffffffffffffffff80821115611975575f80fd5b818501915085601f830112611988575f80fd5b813581811115611996575f80fd5b8660208260051b85010111156119aa575f80fd5b60209290920196919550909350505050565b600181811c908216806119d057607f821691505b6020821081036119ee57634e487b7160e01b5f52602260045260245ffd5b50919050565b818382375f9101908152919050565b634e487b7160e01b5f52603260045260245ffd5b5f60018201611a3457634e487b7160e01b5f52601160045260245ffd5b5060010190565b604081525f611a4d6040830185611639565b90508260208301529392505050565b5f8251611a6d8184602087016115ec565b9190910192915050565b5f808335601e19843603018112611a8c575f80fd5b83018035915067ffffffffffffffff821115611aa6575f80fd5b602001915036819003821315611aba575f80fd5b9250929050565b5f805f8060808587031215611ad4575f80fd5b843567ffffffffffffffff80821115611aeb575f80fd5b611af7888389016114b3565b955060208701359150611b0982611559565b90935060408601359080821115611b1e575f80fd5b50611b2b8782880161174a565b949793965093946060013593505050565b601f821115611b8357805f5260205f20601f840160051c81016020851015611b615750805b601f840160051c820191505b81811015611b80575f8155600101611b6d565b50505b505050565b815167ffffffffffffffff811115611ba257611ba261146e565b611bb681611bb084546119bc565b84611b3c565b602080601f831160018114611be9575f8415611bd25750858301515b5f19600386901b1c1916600185901b178555611c40565b5f85815260208120601f198616915b82811015611c1757888601518255948401946001909101908401611bf8565b5085821015611c3457878501515f19600388901b60f8161c191681555b505060018460011b0185555b50505050505056fea2646970667358221220a9799dc9f14c19e14c6d64ae13b824047a2e599c9934f3a0104a5d46b8acf4f164736f6c63430008160033",
			"opcodes": "PUSH1 0x80 PUSH1 0x40 MSTORE CALLVALUE DUP1 ISZERO PUSH2 0xF JUMPI PUSH0 DUP1 REVERT JUMPDEST POP PUSH2 0x19 CALLER PUSH2 0x1E JUMP JUMPDEST PUSH2 0x6D JUMP JUMPDEST PUSH0 DUP1 SLOAD PUSH1 0x1 PUSH1 0x1 PUSH1 0xA0 SHL SUB DUP4 DUP2 AND PUSH1 0x1 PUSH1 0x1 PUSH1 0xA0 SHL SUB NOT DUP4 AND DUP2 OR DUP5 SSTORE PUSH1 0x40 MLOAD SWAP2 SWAP1 SWAP3 AND SWAP3 DUP4 SWAP2 PUSH32 0x8BE0079C531659141344CD1FD0A4F28419497F9722A3DAAFE3B4186F6B6457E0 SWAP2 SWAP1 LOG3 POP POP JUMP JUMPDEST PUSH2 0x1C7E DUP1 PUSH2 0x7A PUSH0 CODECOPY PUSH0 RETURN INVALID PUSH1 0x80 PUSH1 0x40 MSTORE CALLVALUE DUP1 ISZERO PUSH2 0xF JUMPI PUSH0 DUP1 REVERT JUMPDEST POP PUSH1 0x4 CALLDATASIZE LT PUSH2 0xCB JUMPI PUSH0 CALLDATALOAD PUSH1 0xE0 SHR DUP1 PUSH4 0x93EC4971 GT PUSH2 0x88 JUMPI DUP1 PUSH4 0xE086A822 GT PUSH2 0x63 JUMPI DUP1 PUSH4 0xE086A822 EQ PUSH2 0x232 JUMPI DUP1 PUSH4 0xF1FBBBA1 EQ PUSH2 0x245 JUMPI DUP1 PUSH4 0xF2FDE38B EQ PUSH2 0x258 JUMPI DUP1 PUSH4 0xF884630B EQ PUSH2 0x26B JUMPI PUSH0 DUP1 REVERT JUMPDEST DUP1 PUSH4 0x93EC4971 EQ PUSH2 0x1CB JUMPI DUP1 PUSH4 0x93F87842 EQ PUSH2 0x1EB JUMPI DUP1 PUSH4 0xBC27AEB3 EQ PUSH2 0x21F JUMPI PUSH0 DUP1 REVERT JUMPDEST DUP1 PUSH4 0xDB79B93 EQ PUSH2 0xCF JUMPI DUP1 PUSH4 0x2F1D7DDC EQ PUSH2 0x120 JUMPI DUP1 PUSH4 0x3A03738A EQ PUSH2 0x14D JUMPI DUP1 PUSH4 0x6DFBE35E EQ PUSH2 0x191 JUMPI DUP1 PUSH4 0x715018A6 EQ PUSH2 0x1B1 JUMPI DUP1 PUSH4 0x8DA5CB5B EQ PUSH2 0x1BB JUMPI JUMPDEST PUSH0 DUP1 REVERT JUMPDEST PUSH2 0x103 PUSH2 0xDD CALLDATASIZE PUSH1 0x4 PUSH2 0x151F JUMP JUMPDEST DUP1 MLOAD PUSH1 0x20 DUP2 DUP4 ADD DUP2 ADD DUP1 MLOAD PUSH1 0x2 DUP3 MSTORE SWAP3 DUP3 ADD SWAP2 SWAP1 SWAP4 ADD KECCAK256 SWAP2 MSTORE SLOAD PUSH1 0x1 PUSH1 0x1 PUSH1 0xA0 SHL SUB AND DUP2 JUMP JUMPDEST PUSH1 0x40 MLOAD PUSH1 0x1 PUSH1 0x1 PUSH1 0xA0 SHL SUB SWAP1 SWAP2 AND DUP2 MSTORE PUSH1 0x20 ADD JUMPDEST PUSH1 0x40 MLOAD DUP1 SWAP2 SUB SWAP1 RETURN JUMPDEST PUSH2 0x13F PUSH2 0x12E CALLDATASIZE PUSH1 0x4 PUSH2 0x157D JUMP JUMPDEST PUSH1 0x4 PUSH1 0x20 MSTORE PUSH0 SWAP1 DUP2 MSTORE PUSH1 0x40 SWAP1 KECCAK256 SLOAD DUP2 JUMP JUMPDEST PUSH1 0x40 MLOAD SWAP1 DUP2 MSTORE PUSH1 0x20 ADD PUSH2 0x117 JUMP JUMPDEST PUSH2 0x103 PUSH2 0x15B CALLDATASIZE PUSH1 0x4 PUSH2 0x159F JUMP JUMPDEST PUSH1 0x5 PUSH1 0x20 SWAP1 DUP2 MSTORE PUSH0 SWAP3 DUP4 MSTORE PUSH1 0x40 SWAP1 SWAP3 KECCAK256 DUP2 MLOAD DUP1 DUP4 ADD DUP5 ADD DUP1 MLOAD SWAP3 DUP2 MSTORE SWAP1 DUP5 ADD SWAP3 SWAP1 SWAP4 ADD SWAP2 SWAP1 SWAP2 KECCAK256 SWAP2 MSTORE SLOAD PUSH1 0x1 PUSH1 0x1 PUSH1 0xA0 SHL SUB AND DUP2 JUMP JUMPDEST PUSH2 0x1A4 PUSH2 0x19F CALLDATASIZE PUSH1 0x4 PUSH2 0x157D JUMP JUMPDEST PUSH2 0x27E JUMP JUMPDEST PUSH1 0x40 MLOAD PUSH2 0x117 SWAP2 SWAP1 PUSH2 0x16D1 JUMP JUMPDEST PUSH2 0x1B9 PUSH2 0x3AC JUMP JUMPDEST STOP JUMPDEST PUSH0 SLOAD PUSH1 0x1 PUSH1 0x1 PUSH1 0xA0 SHL SUB AND PUSH2 0x103 JUMP JUMPDEST PUSH2 0x1DE PUSH2 0x1D9 CALLDATASIZE PUSH1 0x4 PUSH2 0x16E3 JUMP JUMPDEST PUSH2 0x3BF JUMP JUMPDEST PUSH1 0x40 MLOAD PUSH2 0x117 SWAP2 SWAP1 PUSH2 0x1715 JUMP JUMPDEST PUSH2 0x103 PUSH2 0x1F9 CALLDATASIZE PUSH1 0x4 PUSH2 0x151F JUMP JUMPDEST DUP1 MLOAD PUSH1 0x20 DUP2 DUP4 ADD DUP2 ADD DUP1 MLOAD PUSH1 0x1 DUP3 MSTORE SWAP3 DUP3 ADD SWAP2 SWAP1 SWAP4 ADD KECCAK256 SWAP2 MSTORE SLOAD PUSH1 0x1 PUSH1 0x1 PUSH1 0xA0 SHL SUB AND DUP2 JUMP JUMPDEST PUSH2 0x1B9 PUSH2 0x22D CALLDATASIZE PUSH1 0x4 PUSH2 0x1846 JUMP JUMPDEST PUSH2 0x486 JUMP JUMPDEST PUSH2 0x103 PUSH2 0x240 CALLDATASIZE PUSH1 0x4 PUSH2 0x159F JUMP JUMPDEST PUSH2 0xF68 JUMP JUMPDEST PUSH2 0x1B9 PUSH2 0x253 CALLDATASIZE PUSH1 0x4 PUSH2 0x18ED JUMP JUMPDEST PUSH2 0xFEE JUMP JUMPDEST PUSH2 0x1B9 PUSH2 0x266 CALLDATASIZE PUSH1 0x4 PUSH2 0x157D JUMP JUMPDEST PUSH2 0x1053 JUMP JUMPDEST PUSH2 0x1B9 PUSH2 0x279 CALLDATASIZE PUSH1 0x4 PUSH2 0x194D JUMP JUMPDEST PUSH2 0x10CC JUMP JUMPDEST PUSH1 0x1 PUSH1 0x1 PUSH1 0xA0 SHL SUB DUP2 AND PUSH0 SWAP1 DUP2 MSTORE PUSH1 0x3 PUSH1 0x20 SWAP1 DUP2 MSTORE PUSH1 0x40 DUP1 DUP4 KECCAK256 DUP1 SLOAD DUP3 MLOAD DUP2 DUP6 MUL DUP2 ADD DUP6 ADD SWAP1 SWAP4 MSTORE DUP1 DUP4 MSTORE PUSH1 0x60 SWAP5 SWAP3 SWAP4 SWAP2 SWAP3 SWAP1 SWAP2 DUP5 ADD JUMPDEST DUP3 DUP3 LT ISZERO PUSH2 0x3A1 JUMPI DUP4 DUP3 SWAP1 PUSH0 MSTORE PUSH1 0x20 PUSH0 KECCAK256 ADD DUP1 SLOAD DUP1 PUSH1 0x20 MUL PUSH1 0x20 ADD PUSH1 0x40 MLOAD SWAP1 DUP2 ADD PUSH1 0x40 MSTORE DUP1 SWAP3 SWAP2 SWAP1 DUP2 DUP2 MSTORE PUSH1 0x20 ADD PUSH0 SWAP1 JUMPDEST DUP3 DUP3 LT ISZERO PUSH2 0x38E JUMPI DUP4 DUP3 SWAP1 PUSH0 MSTORE PUSH1 0x20 PUSH0 KECCAK256 ADD DUP1 SLOAD PUSH2 0x303 SWAP1 PUSH2 0x19BC JUMP JUMPDEST DUP1 PUSH1 0x1F ADD PUSH1 0x20 DUP1 SWAP2 DIV MUL PUSH1 0x20 ADD PUSH1 0x40 MLOAD SWAP1 DUP2 ADD PUSH1 0x40 MSTORE DUP1 SWAP3 SWAP2 SWAP1 DUP2 DUP2 MSTORE PUSH1 0x20 ADD DUP3 DUP1 SLOAD PUSH2 0x32F SWAP1 PUSH2 0x19BC JUMP JUMPDEST DUP1 ISZERO PUSH2 0x37A JUMPI DUP1 PUSH1 0x1F LT PUSH2 0x351 JUMPI PUSH2 0x100 DUP1 DUP4 SLOAD DIV MUL DUP4 MSTORE SWAP2 PUSH1 0x20 ADD SWAP2 PUSH2 0x37A JUMP JUMPDEST DUP3 ADD SWAP2 SWAP1 PUSH0 MSTORE PUSH1 0x20 PUSH0 KECCAK256 SWAP1 JUMPDEST DUP2 SLOAD DUP2 MSTORE SWAP1 PUSH1 0x1 ADD SWAP1 PUSH1 0x20 ADD DUP1 DUP4 GT PUSH2 0x35D JUMPI DUP3 SWAP1 SUB PUSH1 0x1F AND DUP3 ADD SWAP2 JUMPDEST POP POP POP POP POP DUP2 MSTORE PUSH1 0x20 ADD SWAP1 PUSH1 0x1 ADD SWAP1 PUSH2 0x2E6 JUMP JUMPDEST POP POP POP POP DUP2 MSTORE PUSH1 0x20 ADD SWAP1 PUSH1 0x1 ADD SWAP1 PUSH2 0x2B5 JUMP JUMPDEST POP POP POP POP SWAP1 POP SWAP2 SWAP1 POP JUMP JUMPDEST PUSH2 0x3B4 PUSH2 0x1282 JUMP JUMPDEST PUSH2 0x3BD PUSH0 PUSH2 0x12DB JUMP JUMPDEST JUMP JUMPDEST PUSH1 0x3 PUSH1 0x20 MSTORE DUP3 PUSH0 MSTORE PUSH1 0x40 PUSH0 KECCAK256 DUP3 DUP2 SLOAD DUP2 LT PUSH2 0x3D8 JUMPI PUSH0 DUP1 REVERT JUMPDEST SWAP1 PUSH0 MSTORE PUSH1 0x20 PUSH0 KECCAK256 ADD DUP2 DUP2 SLOAD DUP2 LT PUSH2 0x3ED JUMPI PUSH0 DUP1 REVERT JUMPDEST SWAP1 PUSH0 MSTORE PUSH1 0x20 PUSH0 KECCAK256 ADD PUSH0 SWAP3 POP SWAP3 POP POP POP DUP1 SLOAD PUSH2 0x407 SWAP1 PUSH2 0x19BC JUMP JUMPDEST DUP1 PUSH1 0x1F ADD PUSH1 0x20 DUP1 SWAP2 DIV MUL PUSH1 0x20 ADD PUSH1 0x40 MLOAD SWAP1 DUP2 ADD PUSH1 0x40 MSTORE DUP1 SWAP3 SWAP2 SWAP1 DUP2 DUP2 MSTORE PUSH1 0x20 ADD DUP3 DUP1 SLOAD PUSH2 0x433 SWAP1 PUSH2 0x19BC JUMP JUMPDEST DUP1 ISZERO PUSH2 0x47E JUMPI DUP1 PUSH1 0x1F LT PUSH2 0x455 JUMPI PUSH2 0x100 DUP1 DUP4 SLOAD DIV MUL DUP4 MSTORE SWAP2 PUSH1 0x20 ADD SWAP2 PUSH2 0x47E JUMP JUMPDEST DUP3 ADD SWAP2 SWAP1 PUSH0 MSTORE PUSH1 0x20 PUSH0 KECCAK256 SWAP1 JUMPDEST DUP2 SLOAD DUP2 MSTORE SWAP1 PUSH1 0x1 ADD SWAP1 PUSH1 0x20 ADD DUP1 DUP4 GT PUSH2 0x461 JUMPI DUP3 SWAP1 SUB PUSH1 0x1F AND DUP3 ADD SWAP2 JUMPDEST POP POP POP POP POP DUP2 JUMP JUMPDEST PUSH0 PUSH1 0x1 PUSH1 0x1 PUSH1 0xA0 SHL SUB AND PUSH1 0x1 DUP7 DUP7 PUSH1 0x40 MLOAD PUSH2 0x4A2 SWAP3 SWAP2 SWAP1 PUSH2 0x19F4 JUMP JUMPDEST SWAP1 DUP2 MSTORE PUSH1 0x40 MLOAD SWAP1 DUP2 SWAP1 SUB PUSH1 0x20 ADD SWAP1 KECCAK256 SLOAD PUSH1 0x1 PUSH1 0x1 PUSH1 0xA0 SHL SUB AND EQ PUSH2 0x50D JUMPI PUSH1 0x40 MLOAD PUSH3 0x461BCD PUSH1 0xE5 SHL DUP2 MSTORE PUSH1 0x20 PUSH1 0x4 DUP3 ADD MSTORE PUSH1 0x1B PUSH1 0x24 DUP3 ADD MSTORE PUSH32 0x657874656E73696F6E206E616D6520616C726561647920757365640000000000 PUSH1 0x44 DUP3 ADD MSTORE PUSH1 0x64 ADD JUMPDEST PUSH1 0x40 MLOAD DUP1 SWAP2 SUB SWAP1 REVERT JUMPDEST PUSH1 0x1 PUSH1 0x1 PUSH1 0xA0 SHL SUB DUP4 AND PUSH2 0x563 JUMPI PUSH1 0x40 MLOAD PUSH3 0x461BCD PUSH1 0xE5 SHL DUP2 MSTORE PUSH1 0x20 PUSH1 0x4 DUP3 ADD MSTORE PUSH1 0x19 PUSH1 0x24 DUP3 ADD MSTORE PUSH32 0x696E76616C696420657874656E73696F6E206164647265737300000000000000 PUSH1 0x44 DUP3 ADD MSTORE PUSH1 0x64 ADD PUSH2 0x504 JUMP JUMPDEST DUP4 PUSH2 0x5A9 JUMPI PUSH1 0x40 MLOAD PUSH3 0x461BCD PUSH1 0xE5 SHL DUP2 MSTORE PUSH1 0x20 PUSH1 0x4 DUP3 ADD MSTORE PUSH1 0x16 PUSH1 0x24 DUP3 ADD MSTORE PUSH22 0x696E76616C696420657874656E73696F6E206E616D65 PUSH1 0x50 SHL PUSH1 0x44 DUP3 ADD MSTORE PUSH1 0x64 ADD PUSH2 0x504 JUMP JUMPDEST PUSH0 DUP2 GT PUSH2 0x609 JUMPI PUSH1 0x40 MLOAD PUSH3 0x461BCD PUSH1 0xE5 SHL DUP2 MSTORE PUSH1 0x20 PUSH1 0x4 DUP3 ADD MSTORE PUSH1 0x28 PUSH1 0x24 DUP3 ADD MSTORE PUSH32 0x6D6178457865637574696F6E476173206D757374206265206C61726765722074 PUSH1 0x44 DUP3 ADD MSTORE PUSH8 0x68616E207A65726F PUSH1 0xC0 SHL PUSH1 0x64 DUP3 ADD MSTORE PUSH1 0x84 ADD PUSH2 0x504 JUMP JUMPDEST PUSH0 DUP3 MLOAD GT PUSH2 0x668 JUMPI PUSH1 0x40 MLOAD PUSH3 0x461BCD PUSH1 0xE5 SHL DUP2 MSTORE PUSH1 0x20 PUSH1 0x4 DUP3 ADD MSTORE PUSH1 0x26 PUSH1 0x24 DUP3 ADD MSTORE PUSH32 0x7375626A65637454656D706C617465732061727261792063616E6E6F74206265 PUSH1 0x44 DUP3 ADD MSTORE PUSH6 0x20656D707479 PUSH1 0xD0 SHL PUSH1 0x64 DUP3 ADD MSTORE PUSH1 0x84 ADD PUSH2 0x504 JUMP JUMPDEST PUSH1 0x1 PUSH1 0x1 PUSH1 0xA0 SHL SUB DUP4 AND PUSH0 SWAP1 DUP2 MSTORE PUSH1 0x4 PUSH1 0x20 MSTORE PUSH1 0x40 SWAP1 KECCAK256 SLOAD ISZERO PUSH2 0x6CD JUMPI PUSH1 0x40 MLOAD PUSH3 0x461BCD PUSH1 0xE5 SHL DUP2 MSTORE PUSH1 0x20 PUSH1 0x4 DUP3 ADD MSTORE PUSH1 0x1B PUSH1 0x24 DUP3 ADD MSTORE PUSH32 0x657874656E73696F6E20616C7265616479207075626C69736865640000000000 PUSH1 0x44 DUP3 ADD MSTORE PUSH1 0x64 ADD PUSH2 0x504 JUMP JUMPDEST PUSH1 0x60 PUSH0 JUMPDEST DUP4 MLOAD DUP2 LT ISZERO PUSH2 0x95F JUMPI PUSH0 DUP5 DUP3 DUP2 MLOAD DUP2 LT PUSH2 0x6ED JUMPI PUSH2 0x6ED PUSH2 0x1A03 JUMP JUMPDEST PUSH1 0x20 MUL PUSH1 0x20 ADD ADD MLOAD MLOAD GT PUSH2 0x743 JUMPI PUSH1 0x40 MLOAD PUSH3 0x461BCD PUSH1 0xE5 SHL DUP2 MSTORE PUSH1 0x20 PUSH1 0x4 DUP3 ADD MSTORE PUSH1 0x1F PUSH1 0x24 DUP3 ADD MSTORE PUSH32 0x7375626A65637454656D706C6174652063616E6E6F7420626520656D70747900 PUSH1 0x44 DUP3 ADD MSTORE PUSH1 0x64 ADD PUSH2 0x504 JUMP JUMPDEST DUP1 PUSH0 SUB PUSH2 0x784 JUMPI DUP4 DUP2 DUP2 MLOAD DUP2 LT PUSH2 0x75C JUMPI PUSH2 0x75C PUSH2 0x1A03 JUMP JUMPDEST PUSH1 0x20 MUL PUSH1 0x20 ADD ADD MLOAD PUSH0 DUP2 MLOAD DUP2 LT PUSH2 0x775 JUMPI PUSH2 0x775 PUSH2 0x1A03 JUMP JUMPDEST PUSH1 0x20 MUL PUSH1 0x20 ADD ADD MLOAD SWAP2 POP PUSH2 0x82D JUMP JUMPDEST PUSH2 0x7D1 DUP3 DUP6 DUP4 DUP2 MLOAD DUP2 LT PUSH2 0x79A JUMPI PUSH2 0x79A PUSH2 0x1A03 JUMP JUMPDEST PUSH1 0x20 MUL PUSH1 0x20 ADD ADD MLOAD PUSH0 DUP2 MLOAD DUP2 LT PUSH2 0x7B3 JUMPI PUSH2 0x7B3 PUSH2 0x1A03 JUMP JUMPDEST PUSH1 0x20 MUL PUSH1 0x20 ADD ADD MLOAD DUP1 MLOAD PUSH1 0x20 SWAP2 DUP3 ADD KECCAK256 DUP3 MLOAD SWAP3 SWAP1 SWAP2 ADD SWAP2 SWAP1 SWAP2 KECCAK256 EQ SWAP1 JUMP JUMPDEST PUSH2 0x82D JUMPI PUSH1 0x40 MLOAD PUSH3 0x461BCD PUSH1 0xE5 SHL DUP2 MSTORE PUSH1 0x20 PUSH1 0x4 DUP3 ADD MSTORE PUSH1 0x27 PUSH1 0x24 DUP3 ADD MSTORE PUSH32 0x7375626A65637454656D706C61746573206D75737420686176652073616D6520 PUSH1 0x44 DUP3 ADD MSTORE PUSH7 0x18DBDB5B585B99 PUSH1 0xCA SHL PUSH1 0x64 DUP3 ADD MSTORE PUSH1 0x84 ADD PUSH2 0x504 JUMP JUMPDEST PUSH0 PUSH1 0x1 JUMPDEST DUP6 DUP4 DUP2 MLOAD DUP2 LT PUSH2 0x843 JUMPI PUSH2 0x843 PUSH2 0x1A03 JUMP JUMPDEST PUSH1 0x20 MUL PUSH1 0x20 ADD ADD MLOAD MLOAD DUP2 LT ISZERO PUSH2 0x8F3 JUMPI PUSH2 0x8D8 DUP7 DUP5 DUP2 MLOAD DUP2 LT PUSH2 0x868 JUMPI PUSH2 0x868 PUSH2 0x1A03 JUMP JUMPDEST PUSH1 0x20 MUL PUSH1 0x20 ADD ADD MLOAD DUP3 DUP2 MLOAD DUP2 LT PUSH2 0x881 JUMPI PUSH2 0x881 PUSH2 0x1A03 JUMP JUMPDEST PUSH1 0x20 SWAP1 DUP2 MUL SWAP2 SWAP1 SWAP2 ADD DUP2 ADD MLOAD PUSH1 0x40 DUP1 MLOAD DUP1 DUP3 ADD SWAP1 SWAP2 MSTORE PUSH1 0xB DUP2 MSTORE PUSH11 0x7B726563697069656E747D PUSH1 0xA8 SHL SWAP1 DUP4 ADD MSTORE DUP1 MLOAD SWAP2 ADD KECCAK256 PUSH32 0x8AAF32FCBD174399CB3669036E8DA3C3578002BCCE064A4A8F29F7B5674BBCAF EQ SWAP1 JUMP JUMPDEST ISZERO PUSH2 0x8EB JUMPI DUP2 PUSH2 0x8E7 DUP2 PUSH2 0x1A17 JUMP JUMPDEST SWAP3 POP POP JUMPDEST PUSH1 0x1 ADD PUSH2 0x831 JUMP JUMPDEST POP PUSH1 0x1 DUP2 GT ISZERO PUSH2 0x956 JUMPI PUSH1 0x40 MLOAD PUSH3 0x461BCD PUSH1 0xE5 SHL DUP2 MSTORE PUSH1 0x20 PUSH1 0x4 DUP3 ADD MSTORE PUSH1 0x28 PUSH1 0x24 DUP3 ADD MSTORE PUSH32 0x726563697069656E742074656D706C6174652063616E206F6E6C792062652075 PUSH1 0x44 DUP3 ADD MSTORE PUSH8 0x736564206F6E6365 PUSH1 0xC0 SHL PUSH1 0x64 DUP3 ADD MSTORE PUSH1 0x84 ADD PUSH2 0x504 JUMP JUMPDEST POP PUSH1 0x1 ADD PUSH2 0x6D1 JUMP JUMPDEST POP PUSH0 JUMPDEST DUP2 MLOAD DUP2 LT ISZERO PUSH2 0x9E6 JUMPI DUP2 DUP2 DUP2 MLOAD DUP2 LT PUSH2 0x97D JUMPI PUSH2 0x97D PUSH2 0x1A03 JUMP JUMPDEST ADD PUSH1 0x20 ADD MLOAD PUSH1 0x1 PUSH1 0x1 PUSH1 0xF8 SHL SUB NOT AND PUSH1 0x1 PUSH1 0xFD SHL SUB PUSH2 0x9DE JUMPI PUSH1 0x40 MLOAD PUSH3 0x461BCD PUSH1 0xE5 SHL DUP2 MSTORE PUSH1 0x20 PUSH1 0x4 DUP3 ADD MSTORE PUSH1 0x1A PUSH1 0x24 DUP3 ADD MSTORE PUSH32 0x636F6D6D616E642073686F756C64206265206F6E6520776F7264000000000000 PUSH1 0x44 DUP3 ADD MSTORE PUSH1 0x64 ADD PUSH2 0x504 JUMP JUMPDEST PUSH1 0x1 ADD PUSH2 0x962 JUMP JUMPDEST POP PUSH1 0x40 DUP1 MLOAD DUP1 DUP3 ADD SWAP1 SWAP2 MSTORE PUSH1 0x4 DUP2 MSTORE PUSH4 0x14D95B99 PUSH1 0xE2 SHL PUSH1 0x20 SWAP2 DUP3 ADD MSTORE DUP2 MLOAD SWAP1 DUP3 ADD KECCAK256 PUSH32 0xA886DD9BF74A23521A7B7FF5D419D5A1C9E53E4B8C030012967FABD9BE778219 EQ ISZERO DUP1 ISZERO PUSH2 0xA7C JUMPI POP PUSH1 0x40 DUP1 MLOAD DUP1 DUP3 ADD SWAP1 SWAP2 MSTORE PUSH1 0x7 DUP2 MSTORE PUSH7 0x45786563757465 PUSH1 0xC8 SHL PUSH1 0x20 SWAP2 DUP3 ADD MSTORE DUP2 MLOAD SWAP1 DUP3 ADD KECCAK256 PUSH32 0x28D668BEB286A0839C52825618ABB539CBE274853731DB4004CA7BCF1049A4CA EQ ISZERO JUMPDEST DUP1 ISZERO PUSH2 0xACC JUMPI POP PUSH1 0x40 DUP1 MLOAD DUP1 DUP3 ADD SWAP1 SWAP2 MSTORE PUSH1 0x7 DUP2 MSTORE PUSH7 0x125B9CDD185B1B PUSH1 0xCA SHL PUSH1 0x20 SWAP2 DUP3 ADD MSTORE DUP2 MLOAD SWAP1 DUP3 ADD KECCAK256 PUSH32 0x6697C63A74FCC5C464F3DCB6B3A4E49CB1D1003DA99048D44C6D2B12FE00FF3A EQ ISZERO JUMPDEST DUP1 ISZERO PUSH2 0xB1E JUMPI POP PUSH1 0x40 DUP1 MLOAD DUP1 DUP3 ADD SWAP1 SWAP2 MSTORE PUSH1 0x9 DUP2 MSTORE PUSH9 0x155B9A5B9CDD185B1B PUSH1 0xBA SHL PUSH1 0x20 SWAP2 DUP3 ADD MSTORE DUP2 MLOAD SWAP1 DUP3 ADD KECCAK256 PUSH32 0xCF0FB4AF6FA71203BF8CA49A15D730B9E9A0385A52961E75DED30718D69A944E EQ ISZERO JUMPDEST DUP1 ISZERO PUSH2 0xB6B JUMPI POP PUSH1 0x40 DUP1 MLOAD DUP1 DUP3 ADD SWAP1 SWAP2 MSTORE PUSH1 0x4 DUP2 MSTORE PUSH4 0x115E1A5D PUSH1 0xE2 SHL PUSH1 0x20 SWAP2 DUP3 ADD MSTORE DUP2 MLOAD SWAP1 DUP3 ADD KECCAK256 PUSH32 0x24F73F4B0982CEA5408E76088D1820DCFCE3FD3FB65E923DCB9879C1E7E91141 EQ ISZERO JUMPDEST DUP1 ISZERO PUSH2 0xBB8 JUMPI POP PUSH1 0x40 DUP1 MLOAD DUP1 DUP3 ADD SWAP1 SWAP2 MSTORE PUSH1 0x4 DUP2 MSTORE PUSH4 0x444B494D PUSH1 0xE0 SHL PUSH1 0x20 SWAP2 DUP3 ADD MSTORE DUP2 MLOAD SWAP1 DUP3 ADD KECCAK256 PUSH32 0x63CAED16123396DDFBCC1E893AD0C18EC46A2548DBEB5118752368356439F0AF EQ ISZERO JUMPDEST PUSH2 0xC0E JUMPI PUSH1 0x40 MLOAD PUSH3 0x461BCD PUSH1 0xE5 SHL DUP2 MSTORE PUSH1 0x20 PUSH1 0x4 DUP3 ADD MSTORE PUSH1 0x21 PUSH1 0x24 DUP3 ADD MSTORE PUSH32 0x636F6D6D616E642063616E6E6F742062652061207265736572766564206E616D PUSH1 0x44 DUP3 ADD MSTORE PUSH1 0x65 PUSH1 0xF8 SHL PUSH1 0x64 DUP3 ADD MSTORE PUSH1 0x84 ADD PUSH2 0x504 JUMP JUMPDEST PUSH1 0x40 DUP1 MLOAD DUP1 DUP3 ADD SWAP1 SWAP2 MSTORE PUSH1 0xD DUP2 MSTORE PUSH13 0x7B746F6B656E416D6F756E747D PUSH1 0x98 SHL PUSH1 0x20 SWAP2 DUP3 ADD MSTORE DUP2 MLOAD SWAP1 DUP3 ADD KECCAK256 PUSH32 0x815FF003EC3CD903B6B66FF0F95B542FD3A93D2D90693C0D0C6BEAA33CCAAF2B EQ ISZERO DUP1 ISZERO PUSH2 0xCAD JUMPI POP PUSH1 0x40 DUP1 MLOAD DUP1 DUP3 ADD SWAP1 SWAP2 MSTORE PUSH1 0x8 DUP2 MSTORE PUSH8 0x7B616D6F756E747D PUSH1 0xC0 SHL PUSH1 0x20 SWAP2 DUP3 ADD MSTORE DUP2 MLOAD SWAP1 DUP3 ADD KECCAK256 PUSH32 0x6F8367B1D9D8A7B82DD8C3FEA75362C06146BCA071119CF59A3CB58501076BF0 EQ ISZERO JUMPDEST DUP1 ISZERO PUSH2 0xCFE JUMPI POP PUSH1 0x40 DUP1 MLOAD DUP1 DUP3 ADD SWAP1 SWAP2 MSTORE PUSH1 0x8 DUP2 MSTORE PUSH8 0x7B737472696E677D PUSH1 0xC0 SHL PUSH1 0x20 SWAP2 DUP3 ADD MSTORE DUP2 MLOAD SWAP1 DUP3 ADD KECCAK256 PUSH32 0xB0DD9C5DFD6B1348089539C8CD8146A59F1FD23FF2DE9C6052E54DA8D2A6C0FB EQ ISZERO JUMPDEST DUP1 ISZERO PUSH2 0xD4D JUMPI POP PUSH1 0x40 DUP1 MLOAD DUP1 DUP3 ADD SWAP1 SWAP2 MSTORE PUSH1 0x6 DUP2 MSTORE PUSH6 0x7B75696E747D PUSH1 0xD0 SHL PUSH1 0x20 SWAP2 DUP3 ADD MSTORE DUP2 MLOAD SWAP1 DUP3 ADD KECCAK256 PUSH32 0x6F5EA6F405F661D5066B9E0FF07A25FD2E0D206057A7FC2DFEF33FF65AD22A23 EQ ISZERO JUMPDEST DUP1 ISZERO PUSH2 0xD9B JUMPI POP PUSH1 0x40 DUP1 MLOAD DUP1 DUP3 ADD SWAP1 SWAP2 MSTORE PUSH1 0x5 DUP2 MSTORE PUSH5 0x7B696E747D PUSH1 0xD8 SHL PUSH1 0x20 SWAP2 DUP3 ADD MSTORE DUP2 MLOAD SWAP1 DUP3 ADD KECCAK256 PUSH32 0x96115C52281705004DB3CA7F604112B6BC76AE505ED268B2DBEE29FEB8E7899D EQ ISZERO JUMPDEST DUP1 ISZERO PUSH2 0xDED JUMPI POP PUSH1 0x40 DUP1 MLOAD DUP1 DUP3 ADD SWAP1 SWAP2 MSTORE PUSH1 0x9 DUP2 MSTORE PUSH9 0x7B616464726573737D PUSH1 0xB8 SHL PUSH1 0x20 SWAP2 DUP3 ADD MSTORE DUP2 MLOAD SWAP1 DUP3 ADD KECCAK256 PUSH32 0x9A3DE9FCA46F2420947F2D1D4744C5FEBEDEBC77B9A3FCBFCF16ED02CBE48F73 EQ ISZERO JUMPDEST DUP1 ISZERO PUSH2 0xE41 JUMPI POP PUSH1 0x40 DUP1 MLOAD DUP1 DUP3 ADD SWAP1 SWAP2 MSTORE PUSH1 0xB DUP2 MSTORE PUSH11 0x7B726563697069656E747D PUSH1 0xA8 SHL PUSH1 0x20 SWAP2 DUP3 ADD MSTORE DUP2 MLOAD SWAP1 DUP3 ADD KECCAK256 PUSH32 0x8AAF32FCBD174399CB3669036E8DA3C3578002BCCE064A4A8F29F7B5674BBCAF EQ ISZERO JUMPDEST PUSH2 0xE99 JUMPI PUSH1 0x40 MLOAD PUSH3 0x461BCD PUSH1 0xE5 SHL DUP2 MSTORE PUSH1 0x20 PUSH1 0x4 DUP3 ADD MSTORE PUSH1 0x24 DUP1 DUP3 ADD MSTORE PUSH32 0x636F6D6D616E642063616E6E6F7420626520612074656D706C617465206D6174 PUSH1 0x44 DUP3 ADD MSTORE PUSH4 0x31B432B9 PUSH1 0xE1 SHL PUSH1 0x64 DUP3 ADD MSTORE PUSH1 0x84 ADD PUSH2 0x504 JUMP JUMPDEST DUP4 PUSH1 0x1 DUP8 DUP8 PUSH1 0x40 MLOAD PUSH2 0xEAC SWAP3 SWAP2 SWAP1 PUSH2 0x19F4 JUMP JUMPDEST SWAP1 DUP2 MSTORE PUSH1 0x40 DUP1 MLOAD PUSH1 0x20 SWAP3 DUP2 SWAP1 SUB DUP4 ADD SWAP1 KECCAK256 DUP1 SLOAD PUSH1 0x1 PUSH1 0x1 PUSH1 0xA0 SHL SUB NOT AND PUSH1 0x1 PUSH1 0x1 PUSH1 0xA0 SHL SUB SWAP5 DUP6 AND OR SWAP1 SSTORE SWAP2 DUP7 AND PUSH0 SWAP1 DUP2 MSTORE PUSH1 0x3 DUP3 MSTORE SWAP2 SWAP1 SWAP2 KECCAK256 DUP5 MLOAD PUSH2 0xEF4 SWAP3 DUP7 ADD SWAP1 PUSH2 0x132A JUMP JUMPDEST POP PUSH1 0x1 PUSH1 0x1 PUSH1 0xA0 SHL SUB DUP5 AND PUSH0 DUP2 DUP2 MSTORE PUSH1 0x4 PUSH1 0x20 MSTORE PUSH1 0x40 SWAP1 DUP2 SWAP1 KECCAK256 DUP5 SWAP1 SSTORE MLOAD PUSH2 0xF1F SWAP1 DUP9 SWAP1 DUP9 SWAP1 PUSH2 0x19F4 JUMP JUMPDEST PUSH1 0x40 MLOAD DUP1 SWAP2 SUB SWAP1 KECCAK256 PUSH32 0xEF0E971F43D9347EAD7CB66791FDCCE2D7A5171EE1F652FEC727823D1E2D4EE8 DUP6 DUP6 PUSH1 0x40 MLOAD PUSH2 0xF58 SWAP3 SWAP2 SWAP1 PUSH2 0x1A3B JUMP JUMPDEST PUSH1 0x40 MLOAD DUP1 SWAP2 SUB SWAP1 LOG3 POP POP POP POP POP POP JUMP JUMPDEST PUSH1 0x1 PUSH1 0x1 PUSH1 0xA0 SHL SUB DUP3 AND PUSH0 SWAP1 DUP2 MSTORE PUSH1 0x5 PUSH1 0x20 MSTORE PUSH1 0x40 DUP1 DUP3 KECCAK256 SWAP1 MLOAD DUP3 SWAP2 DUP3 SWAP2 PUSH2 0xF91 SWAP1 DUP7 SWAP1 PUSH2 0x1A5C JUMP JUMPDEST SWAP1 DUP2 MSTORE PUSH1 0x40 MLOAD SWAP1 DUP2 SWAP1 SUB PUSH1 0x20 ADD SWAP1 KECCAK256 SLOAD PUSH1 0x1 PUSH1 0x1 PUSH1 0xA0 SHL SUB AND SWAP1 POP DUP1 ISZERO PUSH2 0xFBA JUMPI DUP1 SWAP2 POP PUSH2 0xFE6 JUMP JUMPDEST PUSH1 0x2 DUP5 PUSH1 0x40 MLOAD PUSH2 0xFCA SWAP2 SWAP1 PUSH2 0x1A5C JUMP JUMPDEST SWAP1 DUP2 MSTORE PUSH1 0x40 MLOAD SWAP1 DUP2 SWAP1 SUB PUSH1 0x20 ADD SWAP1 KECCAK256 SLOAD PUSH1 0x1 PUSH1 0x1 PUSH1 0xA0 SHL SUB AND SWAP2 POP JUMPDEST POP SWAP4 SWAP3 POP POP POP JUMP JUMPDEST PUSH2 0xFF6 PUSH2 0x1282 JUMP JUMPDEST PUSH1 0x1 PUSH1 0x1 PUSH1 0xA0 SHL SUB DUP4 AND PUSH0 SWAP1 DUP2 MSTORE PUSH1 0x5 PUSH1 0x20 MSTORE PUSH1 0x40 SWAP1 DUP2 SWAP1 KECCAK256 SWAP1 MLOAD DUP3 SWAP2 SWAP1 PUSH2 0x101F SWAP1 DUP6 SWAP1 PUSH2 0x1A5C JUMP JUMPDEST SWAP1 DUP2 MSTORE PUSH1 0x40 MLOAD SWAP1 DUP2 SWAP1 SUB PUSH1 0x20 ADD SWAP1 KECCAK256 DUP1 SLOAD PUSH1 0x1 PUSH1 0x1 PUSH1 0xA0 SHL SUB SWAP3 SWAP1 SWAP3 AND PUSH1 0x1 PUSH1 0x1 PUSH1 0xA0 SHL SUB NOT SWAP1 SWAP3 AND SWAP2 SWAP1 SWAP2 OR SWAP1 SSTORE POP POP POP JUMP JUMPDEST PUSH2 0x105B PUSH2 0x1282 JUMP JUMPDEST PUSH1 0x1 PUSH1 0x1 PUSH1 0xA0 SHL SUB DUP2 AND PUSH2 0x10C0 JUMPI PUSH1 0x40 MLOAD PUSH3 0x461BCD PUSH1 0xE5 SHL DUP2 MSTORE PUSH1 0x20 PUSH1 0x4 DUP3 ADD MSTORE PUSH1 0x26 PUSH1 0x24 DUP3 ADD MSTORE PUSH32 0x4F776E61626C653A206E6577206F776E657220697320746865207A65726F2061 PUSH1 0x44 DUP3 ADD MSTORE PUSH6 0x646472657373 PUSH1 0xD0 SHL PUSH1 0x64 DUP3 ADD MSTORE PUSH1 0x84 ADD PUSH2 0x504 JUMP JUMPDEST PUSH2 0x10C9 DUP2 PUSH2 0x12DB JUMP JUMPDEST POP JUMP JUMPDEST PUSH2 0x10D4 PUSH2 0x1282 JUMP JUMPDEST PUSH0 SLOAD PUSH1 0x1 PUSH1 0xA0 SHL SWAP1 DIV PUSH1 0xFF AND ISZERO PUSH2 0x112D JUMPI PUSH1 0x40 MLOAD PUSH3 0x461BCD PUSH1 0xE5 SHL DUP2 MSTORE PUSH1 0x20 PUSH1 0x4 DUP3 ADD MSTORE PUSH1 0x1E PUSH1 0x24 DUP3 ADD MSTORE PUSH32 0x64656661756C7420657874656E73696F6E7320616C7265616479207365740000 PUSH1 0x44 DUP3 ADD MSTORE PUSH1 0x64 ADD PUSH2 0x504 JUMP JUMPDEST PUSH0 JUMPDEST DUP2 DUP2 LT ISZERO PUSH2 0x126B JUMPI PUSH0 DUP1 PUSH0 DUP1 DUP7 DUP7 DUP7 DUP2 DUP2 LT PUSH2 0x114D JUMPI PUSH2 0x114D PUSH2 0x1A03 JUMP JUMPDEST SWAP1 POP PUSH1 0x20 MUL DUP2 ADD SWAP1 PUSH2 0x115F SWAP2 SWAP1 PUSH2 0x1A77 JUMP JUMPDEST DUP2 ADD SWAP1 PUSH2 0x116C SWAP2 SWAP1 PUSH2 0x1AC1 JUMP JUMPDEST SWAP4 POP SWAP4 POP SWAP4 POP SWAP4 POP DUP3 PUSH1 0x1 DUP6 PUSH1 0x40 MLOAD PUSH2 0x1185 SWAP2 SWAP1 PUSH2 0x1A5C JUMP JUMPDEST SWAP1 DUP2 MSTORE PUSH1 0x40 DUP1 MLOAD PUSH1 0x20 SWAP3 DUP2 SWAP1 SUB DUP4 ADD SWAP1 KECCAK256 DUP1 SLOAD PUSH1 0x1 PUSH1 0x1 PUSH1 0xA0 SHL SUB NOT AND PUSH1 0x1 PUSH1 0x1 PUSH1 0xA0 SHL SUB SWAP5 DUP6 AND OR SWAP1 SSTORE SWAP2 DUP6 AND PUSH0 SWAP1 DUP2 MSTORE PUSH1 0x3 DUP3 MSTORE SWAP2 SWAP1 SWAP2 KECCAK256 DUP4 MLOAD PUSH2 0x11CD SWAP3 DUP6 ADD SWAP1 PUSH2 0x132A JUMP JUMPDEST POP PUSH1 0x1 PUSH1 0x1 PUSH1 0xA0 SHL SUB DUP4 AND PUSH0 SWAP1 DUP2 MSTORE PUSH1 0x4 PUSH1 0x20 MSTORE PUSH1 0x40 DUP2 KECCAK256 DUP3 SWAP1 SSTORE DUP3 MLOAD DUP5 SWAP2 PUSH1 0x2 SWAP2 DUP6 SWAP2 SWAP1 PUSH2 0x11FE JUMPI PUSH2 0x11FE PUSH2 0x1A03 JUMP JUMPDEST PUSH1 0x20 MUL PUSH1 0x20 ADD ADD MLOAD PUSH0 DUP2 MLOAD DUP2 LT PUSH2 0x1217 JUMPI PUSH2 0x1217 PUSH2 0x1A03 JUMP JUMPDEST PUSH1 0x20 MUL PUSH1 0x20 ADD ADD MLOAD PUSH1 0x40 MLOAD PUSH2 0x122C SWAP2 SWAP1 PUSH2 0x1A5C JUMP JUMPDEST SWAP1 DUP2 MSTORE PUSH1 0x40 MLOAD SWAP1 DUP2 SWAP1 SUB PUSH1 0x20 ADD SWAP1 KECCAK256 DUP1 SLOAD PUSH1 0x1 PUSH1 0x1 PUSH1 0xA0 SHL SUB SWAP3 SWAP1 SWAP3 AND PUSH1 0x1 PUSH1 0x1 PUSH1 0xA0 SHL SUB NOT SWAP1 SWAP3 AND SWAP2 SWAP1 SWAP2 OR SWAP1 SSTORE POP POP POP PUSH1 0x1 SWAP2 SWAP1 SWAP2 ADD SWAP1 POP PUSH2 0x112F JUMP JUMPDEST POP POP PUSH0 DUP1 SLOAD PUSH1 0xFF PUSH1 0xA0 SHL NOT AND PUSH1 0x1 PUSH1 0xA0 SHL OR SWAP1 SSTORE POP JUMP JUMPDEST PUSH0 SLOAD PUSH1 0x1 PUSH1 0x1 PUSH1 0xA0 SHL SUB AND CALLER EQ PUSH2 0x3BD JUMPI PUSH1 0x40 MLOAD PUSH3 0x461BCD PUSH1 0xE5 SHL DUP2 MSTORE PUSH1 0x20 PUSH1 0x4 DUP3 ADD DUP2 SWAP1 MSTORE PUSH1 0x24 DUP3 ADD MSTORE PUSH32 0x4F776E61626C653A2063616C6C6572206973206E6F7420746865206F776E6572 PUSH1 0x44 DUP3 ADD MSTORE PUSH1 0x64 ADD PUSH2 0x504 JUMP JUMPDEST PUSH0 DUP1 SLOAD PUSH1 0x1 PUSH1 0x1 PUSH1 0xA0 SHL SUB DUP4 DUP2 AND PUSH1 0x1 PUSH1 0x1 PUSH1 0xA0 SHL SUB NOT DUP4 AND DUP2 OR DUP5 SSTORE PUSH1 0x40 MLOAD SWAP2 SWAP1 SWAP3 AND SWAP3 DUP4 SWAP2 PUSH32 0x8BE0079C531659141344CD1FD0A4F28419497F9722A3DAAFE3B4186F6B6457E0 SWAP2 SWAP1 LOG3 POP POP JUMP JUMPDEST DUP3 DUP1 SLOAD DUP3 DUP3 SSTORE SWAP1 PUSH0 MSTORE PUSH1 0x20 PUSH0 KECCAK256 SWAP1 DUP2 ADD SWAP3 DUP3 ISZERO PUSH2 0x1375 JUMPI SWAP2 PUSH1 0x20 MUL DUP3 ADD JUMPDEST DUP3 DUP2 GT ISZERO PUSH2 0x1375 JUMPI DUP3 MLOAD DUP1 MLOAD PUSH2 0x1365 SWAP2 DUP5 SWAP2 PUSH1 0x20 SWAP1 SWAP2 ADD SWAP1 PUSH2 0x1385 JUMP JUMPDEST POP SWAP2 PUSH1 0x20 ADD SWAP2 SWAP1 PUSH1 0x1 ADD SWAP1 PUSH2 0x1348 JUMP JUMPDEST POP PUSH2 0x1381 SWAP3 SWAP2 POP PUSH2 0x13D5 JUMP JUMPDEST POP SWAP1 JUMP JUMPDEST DUP3 DUP1 SLOAD DUP3 DUP3 SSTORE SWAP1 PUSH0 MSTORE PUSH1 0x20 PUSH0 KECCAK256 SWAP1 DUP2 ADD SWAP3 DUP3 ISZERO PUSH2 0x13C9 JUMPI SWAP2 PUSH1 0x20 MUL DUP3 ADD JUMPDEST DUP3 DUP2 GT ISZERO PUSH2 0x13C9 JUMPI DUP3 MLOAD DUP3 SWAP1 PUSH2 0x13B9 SWAP1 DUP3 PUSH2 0x1B88 JUMP JUMPDEST POP SWAP2 PUSH1 0x20 ADD SWAP2 SWAP1 PUSH1 0x1 ADD SWAP1 PUSH2 0x13A3 JUMP JUMPDEST POP PUSH2 0x1381 SWAP3 SWAP2 POP PUSH2 0x13F1 JUMP JUMPDEST DUP1 DUP3 GT ISZERO PUSH2 0x1381 JUMPI PUSH0 PUSH2 0x13E8 DUP3 DUP3 PUSH2 0x140D JUMP JUMPDEST POP PUSH1 0x1 ADD PUSH2 0x13D5 JUMP JUMPDEST DUP1 DUP3 GT ISZERO PUSH2 0x1381 JUMPI PUSH0 PUSH2 0x1404 DUP3 DUP3 PUSH2 0x1428 JUMP JUMPDEST POP PUSH1 0x1 ADD PUSH2 0x13F1 JUMP JUMPDEST POP DUP1 SLOAD PUSH0 DUP3 SSTORE SWAP1 PUSH0 MSTORE PUSH1 0x20 PUSH0 KECCAK256 SWAP1 DUP2 ADD SWAP1 PUSH2 0x10C9 SWAP2 SWAP1 PUSH2 0x13F1 JUMP JUMPDEST POP DUP1 SLOAD PUSH2 0x1434 SWAP1 PUSH2 0x19BC JUMP JUMPDEST PUSH0 DUP3 SSTORE DUP1 PUSH1 0x1F LT PUSH2 0x1443 JUMPI POP POP JUMP JUMPDEST PUSH1 0x1F ADD PUSH1 0x20 SWAP1 DIV SWAP1 PUSH0 MSTORE PUSH1 0x20 PUSH0 KECCAK256 SWAP1 DUP2 ADD SWAP1 PUSH2 0x10C9 SWAP2 SWAP1 JUMPDEST DUP1 DUP3 GT ISZERO PUSH2 0x1381 JUMPI PUSH0 DUP2 SSTORE PUSH1 0x1 ADD PUSH2 0x145B JUMP JUMPDEST PUSH4 0x4E487B71 PUSH1 0xE0 SHL PUSH0 MSTORE PUSH1 0x41 PUSH1 0x4 MSTORE PUSH1 0x24 PUSH0 REVERT JUMPDEST PUSH1 0x40 MLOAD PUSH1 0x1F DUP3 ADD PUSH1 0x1F NOT AND DUP2 ADD PUSH8 0xFFFFFFFFFFFFFFFF DUP2 GT DUP3 DUP3 LT OR ISZERO PUSH2 0x14AB JUMPI PUSH2 0x14AB PUSH2 0x146E JUMP JUMPDEST PUSH1 0x40 MSTORE SWAP2 SWAP1 POP JUMP JUMPDEST PUSH0 DUP3 PUSH1 0x1F DUP4 ADD SLT PUSH2 0x14C2 JUMPI PUSH0 DUP1 REVERT JUMPDEST DUP2 CALLDATALOAD PUSH8 0xFFFFFFFFFFFFFFFF DUP2 GT ISZERO PUSH2 0x14DC JUMPI PUSH2 0x14DC PUSH2 0x146E JUMP JUMPDEST PUSH2 0x14EF PUSH1 0x1F DUP3 ADD PUSH1 0x1F NOT AND PUSH1 0x20 ADD PUSH2 0x1482 JUMP JUMPDEST DUP2 DUP2 MSTORE DUP5 PUSH1 0x20 DUP4 DUP7 ADD ADD GT ISZERO PUSH2 0x1503 JUMPI PUSH0 DUP1 REVERT JUMPDEST DUP2 PUSH1 0x20 DUP6 ADD PUSH1 0x20 DUP4 ADD CALLDATACOPY PUSH0 SWAP2 DUP2 ADD PUSH1 0x20 ADD SWAP2 SWAP1 SWAP2 MSTORE SWAP4 SWAP3 POP POP POP JUMP JUMPDEST PUSH0 PUSH1 0x20 DUP3 DUP5 SUB SLT ISZERO PUSH2 0x152F JUMPI PUSH0 DUP1 REVERT JUMPDEST DUP2 CALLDATALOAD PUSH8 0xFFFFFFFFFFFFFFFF DUP2 GT ISZERO PUSH2 0x1545 JUMPI PUSH0 DUP1 REVERT JUMPDEST PUSH2 0x1551 DUP5 DUP3 DUP6 ADD PUSH2 0x14B3 JUMP JUMPDEST SWAP5 SWAP4 POP POP POP POP JUMP JUMPDEST PUSH1 0x1 PUSH1 0x1 PUSH1 0xA0 SHL SUB DUP2 AND DUP2 EQ PUSH2 0x10C9 JUMPI PUSH0 DUP1 REVERT JUMPDEST DUP1 CALLDATALOAD PUSH2 0x1578 DUP2 PUSH2 0x1559 JUMP JUMPDEST SWAP2 SWAP1 POP JUMP JUMPDEST PUSH0 PUSH1 0x20 DUP3 DUP5 SUB SLT ISZERO PUSH2 0x158D JUMPI PUSH0 DUP1 REVERT JUMPDEST DUP2 CALLDATALOAD PUSH2 0x1598 DUP2 PUSH2 0x1559 JUMP JUMPDEST SWAP4 SWAP3 POP POP POP JUMP JUMPDEST PUSH0 DUP1 PUSH1 0x40 DUP4 DUP6 SUB SLT ISZERO PUSH2 0x15B0 JUMPI PUSH0 DUP1 REVERT JUMPDEST DUP3 CALLDATALOAD PUSH2 0x15BB DUP2 PUSH2 0x1559 JUMP JUMPDEST SWAP2 POP PUSH1 0x20 DUP4 ADD CALLDATALOAD PUSH8 0xFFFFFFFFFFFFFFFF DUP2 GT ISZERO PUSH2 0x15D6 JUMPI PUSH0 DUP1 REVERT JUMPDEST PUSH2 0x15E2 DUP6 DUP3 DUP7 ADD PUSH2 0x14B3 JUMP JUMPDEST SWAP2 POP POP SWAP3 POP SWAP3 SWAP1 POP JUMP JUMPDEST PUSH0 JUMPDEST DUP4 DUP2 LT ISZERO PUSH2 0x1606 JUMPI DUP2 DUP2 ADD MLOAD DUP4 DUP3 ADD MSTORE PUSH1 0x20 ADD PUSH2 0x15EE JUMP JUMPDEST POP POP PUSH0 SWAP2 ADD MSTORE JUMP JUMPDEST PUSH0 DUP2 MLOAD DUP1 DUP5 MSTORE PUSH2 0x1625 DUP2 PUSH1 0x20 DUP7 ADD PUSH1 0x20 DUP7 ADD PUSH2 0x15EC JUMP JUMPDEST PUSH1 0x1F ADD PUSH1 0x1F NOT AND SWAP3 SWAP1 SWAP3 ADD PUSH1 0x20 ADD SWAP3 SWAP2 POP POP JUMP JUMPDEST PUSH0 DUP3 DUP3 MLOAD DUP1 DUP6 MSTORE PUSH1 0x20 DUP1 DUP7 ADD SWAP6 POP PUSH1 0x5 DUP2 DUP4 PUSH1 0x5 SHL DUP6 ADD ADD DUP3 DUP8 ADD PUSH0 JUMPDEST DUP6 DUP2 LT ISZERO PUSH2 0x16C3 JUMPI PUSH1 0x1F NOT DUP8 DUP5 SUB DUP2 ADD DUP12 MSTORE DUP3 MLOAD DUP1 MLOAD DUP1 DUP7 MSTORE SWAP1 DUP8 ADD SWAP1 DUP8 DUP7 ADD SWAP1 DUP1 DUP9 SHL DUP8 ADD DUP10 ADD PUSH0 JUMPDEST DUP3 DUP2 LT ISZERO PUSH2 0x16AC JUMPI DUP6 DUP10 DUP4 SUB ADD DUP5 MSTORE PUSH2 0x169A DUP3 DUP7 MLOAD PUSH2 0x160E JUMP JUMPDEST SWAP5 DUP12 ADD SWAP5 SWAP4 DUP12 ADD SWAP4 SWAP2 POP PUSH1 0x1 ADD PUSH2 0x1680 JUMP JUMPDEST POP SWAP14 DUP10 ADD SWAP14 SWAP7 POP POP POP SWAP3 DUP7 ADD SWAP3 POP POP PUSH1 0x1 ADD PUSH2 0x1656 JUMP JUMPDEST POP SWAP1 SWAP9 SWAP8 POP POP POP POP POP POP POP POP JUMP JUMPDEST PUSH1 0x20 DUP2 MSTORE PUSH0 PUSH2 0x1598 PUSH1 0x20 DUP4 ADD DUP5 PUSH2 0x1639 JUMP JUMPDEST PUSH0 DUP1 PUSH0 PUSH1 0x60 DUP5 DUP7 SUB SLT ISZERO PUSH2 0x16F5 JUMPI PUSH0 DUP1 REVERT JUMPDEST DUP4 CALLDATALOAD PUSH2 0x1700 DUP2 PUSH2 0x1559 JUMP JUMPDEST SWAP6 PUSH1 0x20 DUP6 ADD CALLDATALOAD SWAP6 POP PUSH1 0x40 SWAP1 SWAP5 ADD CALLDATALOAD SWAP4 SWAP3 POP POP POP JUMP JUMPDEST PUSH1 0x20 DUP2 MSTORE PUSH0 PUSH2 0x1598 PUSH1 0x20 DUP4 ADD DUP5 PUSH2 0x160E JUMP JUMPDEST PUSH0 PUSH8 0xFFFFFFFFFFFFFFFF DUP3 GT ISZERO PUSH2 0x1740 JUMPI PUSH2 0x1740 PUSH2 0x146E JUMP JUMPDEST POP PUSH1 0x5 SHL PUSH1 0x20 ADD SWAP1 JUMP JUMPDEST PUSH0 DUP3 PUSH1 0x1F DUP4 ADD SLT PUSH2 0x1759 JUMPI PUSH0 DUP1 REVERT JUMPDEST DUP2 CALLDATALOAD PUSH1 0x20 PUSH2 0x176E PUSH2 0x1769 DUP4 PUSH2 0x1727 JUMP JUMPDEST PUSH2 0x1482 JUMP JUMPDEST DUP3 DUP2 MSTORE PUSH1 0x5 SWAP3 SWAP1 SWAP3 SHL DUP5 ADD DUP2 ADD SWAP2 DUP2 DUP2 ADD SWAP1 DUP7 DUP5 GT ISZERO PUSH2 0x178C JUMPI PUSH0 DUP1 REVERT JUMPDEST DUP3 DUP7 ADD JUMPDEST DUP5 DUP2 LT ISZERO PUSH2 0x183B JUMPI DUP1 CALLDATALOAD PUSH8 0xFFFFFFFFFFFFFFFF DUP1 DUP3 GT ISZERO PUSH2 0x17AF JUMPI PUSH0 DUP1 REVERT JUMPDEST DUP2 DUP10 ADD SWAP2 POP DUP10 PUSH1 0x3F DUP4 ADD SLT PUSH2 0x17C2 JUMPI PUSH0 DUP1 REVERT JUMPDEST DUP6 DUP3 ADD CALLDATALOAD PUSH2 0x17D2 PUSH2 0x1769 DUP3 PUSH2 0x1727 JUMP JUMPDEST DUP2 DUP2 MSTORE PUSH1 0x5 SWAP2 SWAP1 SWAP2 SHL DUP4 ADD PUSH1 0x40 ADD SWAP1 DUP8 DUP2 ADD SWAP1 DUP13 DUP4 GT ISZERO PUSH2 0x17F1 JUMPI PUSH0 DUP1 REVERT JUMPDEST PUSH1 0x40 DUP6 ADD JUMPDEST DUP4 DUP2 LT ISZERO PUSH2 0x1829 JUMPI DUP1 CALLDATALOAD DUP6 DUP2 GT ISZERO PUSH2 0x180C JUMPI PUSH0 DUP1 REVERT JUMPDEST PUSH2 0x181B DUP16 PUSH1 0x40 DUP4 DUP11 ADD ADD PUSH2 0x14B3 JUMP JUMPDEST DUP5 MSTORE POP SWAP2 DUP10 ADD SWAP2 DUP10 ADD PUSH2 0x17F6 JUMP JUMPDEST POP DUP8 MSTORE POP POP POP SWAP3 DUP5 ADD SWAP3 POP DUP4 ADD PUSH2 0x1790 JUMP JUMPDEST POP SWAP7 SWAP6 POP POP POP POP POP POP JUMP JUMPDEST PUSH0 DUP1 PUSH0 DUP1 PUSH0 PUSH1 0x80 DUP7 DUP9 SUB SLT ISZERO PUSH2 0x185A JUMPI PUSH0 DUP1 REVERT JUMPDEST DUP6 CALLDATALOAD PUSH8 0xFFFFFFFFFFFFFFFF DUP1 DUP3 GT ISZERO PUSH2 0x1871 JUMPI PUSH0 DUP1 REVERT JUMPDEST DUP2 DUP9 ADD SWAP2 POP DUP9 PUSH1 0x1F DUP4 ADD SLT PUSH2 0x1884 JUMPI PUSH0 DUP1 REVERT JUMPDEST DUP2 CALLDATALOAD DUP2 DUP2 GT ISZERO PUSH2 0x1892 JUMPI PUSH0 DUP1 REVERT JUMPDEST DUP10 PUSH1 0x20 DUP3 DUP6 ADD ADD GT ISZERO PUSH2 0x18A3 JUMPI PUSH0 DUP1 REVERT JUMPDEST PUSH1 0x20 DUP4 ADD SWAP8 POP DUP1 SWAP7 POP POP PUSH2 0x18B9 PUSH1 0x20 DUP10 ADD PUSH2 0x156D JUMP JUMPDEST SWAP5 POP PUSH1 0x40 DUP9 ADD CALLDATALOAD SWAP2 POP DUP1 DUP3 GT ISZERO PUSH2 0x18CE JUMPI PUSH0 DUP1 REVERT JUMPDEST POP PUSH2 0x18DB DUP9 DUP3 DUP10 ADD PUSH2 0x174A JUMP JUMPDEST SWAP6 SWAP9 SWAP5 SWAP8 POP SWAP3 SWAP6 PUSH1 0x60 ADD CALLDATALOAD SWAP4 SWAP3 POP POP POP JUMP JUMPDEST PUSH0 DUP1 PUSH0 PUSH1 0x60 DUP5 DUP7 SUB SLT ISZERO PUSH2 0x18FF JUMPI PUSH0 DUP1 REVERT JUMPDEST DUP4 CALLDATALOAD PUSH2 0x190A DUP2 PUSH2 0x1559 JUMP JUMPDEST SWAP3 POP PUSH1 0x20 DUP5 ADD CALLDATALOAD PUSH8 0xFFFFFFFFFFFFFFFF DUP2 GT ISZERO PUSH2 0x1925 JUMPI PUSH0 DUP1 REVERT JUMPDEST PUSH2 0x1931 DUP7 DUP3 DUP8 ADD PUSH2 0x14B3 JUMP JUMPDEST SWAP3 POP POP PUSH1 0x40 DUP5 ADD CALLDATALOAD PUSH2 0x1942 DUP2 PUSH2 0x1559 JUMP JUMPDEST DUP1 SWAP2 POP POP SWAP3 POP SWAP3 POP SWAP3 JUMP JUMPDEST PUSH0 DUP1 PUSH1 0x20 DUP4 DUP6 SUB SLT ISZERO PUSH2 0x195E JUMPI PUSH0 DUP1 REVERT JUMPDEST DUP3 CALLDATALOAD PUSH8 0xFFFFFFFFFFFFFFFF DUP1 DUP3 GT ISZERO PUSH2 0x1975 JUMPI PUSH0 DUP1 REVERT JUMPDEST DUP2 DUP6 ADD SWAP2 POP DUP6 PUSH1 0x1F DUP4 ADD SLT PUSH2 0x1988 JUMPI PUSH0 DUP1 REVERT JUMPDEST DUP2 CALLDATALOAD DUP2 DUP2 GT ISZERO PUSH2 0x1996 JUMPI PUSH0 DUP1 REVERT JUMPDEST DUP7 PUSH1 0x20 DUP3 PUSH1 0x5 SHL DUP6 ADD ADD GT ISZERO PUSH2 0x19AA JUMPI PUSH0 DUP1 REVERT JUMPDEST PUSH1 0x20 SWAP3 SWAP1 SWAP3 ADD SWAP7 SWAP2 SWAP6 POP SWAP1 SWAP4 POP POP POP POP JUMP JUMPDEST PUSH1 0x1 DUP2 DUP2 SHR SWAP1 DUP3 AND DUP1 PUSH2 0x19D0 JUMPI PUSH1 0x7F DUP3 AND SWAP2 POP JUMPDEST PUSH1 0x20 DUP3 LT DUP2 SUB PUSH2 0x19EE JUMPI PUSH4 0x4E487B71 PUSH1 0xE0 SHL PUSH0 MSTORE PUSH1 0x22 PUSH1 0x4 MSTORE PUSH1 0x24 PUSH0 REVERT JUMPDEST POP SWAP2 SWAP1 POP JUMP JUMPDEST DUP2 DUP4 DUP3 CALLDATACOPY PUSH0 SWAP2 ADD SWAP1 DUP2 MSTORE SWAP2 SWAP1 POP JUMP JUMPDEST PUSH4 0x4E487B71 PUSH1 0xE0 SHL PUSH0 MSTORE PUSH1 0x32 PUSH1 0x4 MSTORE PUSH1 0x24 PUSH0 REVERT JUMPDEST PUSH0 PUSH1 0x1 DUP3 ADD PUSH2 0x1A34 JUMPI PUSH4 0x4E487B71 PUSH1 0xE0 SHL PUSH0 MSTORE PUSH1 0x11 PUSH1 0x4 MSTORE PUSH1 0x24 PUSH0 REVERT JUMPDEST POP PUSH1 0x1 ADD SWAP1 JUMP JUMPDEST PUSH1 0x40 DUP2 MSTORE PUSH0 PUSH2 0x1A4D PUSH1 0x40 DUP4 ADD DUP6 PUSH2 0x1639 JUMP JUMPDEST SWAP1 POP DUP3 PUSH1 0x20 DUP4 ADD MSTORE SWAP4 SWAP3 POP POP POP JUMP JUMPDEST PUSH0 DUP3 MLOAD PUSH2 0x1A6D DUP2 DUP5 PUSH1 0x20 DUP8 ADD PUSH2 0x15EC JUMP JUMPDEST SWAP2 SWAP1 SWAP2 ADD SWAP3 SWAP2 POP POP JUMP JUMPDEST PUSH0 DUP1 DUP4 CALLDATALOAD PUSH1 0x1E NOT DUP5 CALLDATASIZE SUB ADD DUP2 SLT PUSH2 0x1A8C JUMPI PUSH0 DUP1 REVERT JUMPDEST DUP4 ADD DUP1 CALLDATALOAD SWAP2 POP PUSH8 0xFFFFFFFFFFFFFFFF DUP3 GT ISZERO PUSH2 0x1AA6 JUMPI PUSH0 DUP1 REVERT JUMPDEST PUSH1 0x20 ADD SWAP2 POP CALLDATASIZE DUP2 SWAP1 SUB DUP3 SGT ISZERO PUSH2 0x1ABA JUMPI PUSH0 DUP1 REVERT JUMPDEST SWAP3 POP SWAP3 SWAP1 POP JUMP JUMPDEST PUSH0 DUP1 PUSH0 DUP1 PUSH1 0x80 DUP6 DUP8 SUB SLT ISZERO PUSH2 0x1AD4 JUMPI PUSH0 DUP1 REVERT JUMPDEST DUP5 CALLDATALOAD PUSH8 0xFFFFFFFFFFFFFFFF DUP1 DUP3 GT ISZERO PUSH2 0x1AEB JUMPI PUSH0 DUP1 REVERT JUMPDEST PUSH2 0x1AF7 DUP9 DUP4 DUP10 ADD PUSH2 0x14B3 JUMP JUMPDEST SWAP6 POP PUSH1 0x20 DUP8 ADD CALLDATALOAD SWAP2 POP PUSH2 0x1B09 DUP3 PUSH2 0x1559 JUMP JUMPDEST SWAP1 SWAP4 POP PUSH1 0x40 DUP7 ADD CALLDATALOAD SWAP1 DUP1 DUP3 GT ISZERO PUSH2 0x1B1E JUMPI PUSH0 DUP1 REVERT JUMPDEST POP PUSH2 0x1B2B DUP8 DUP3 DUP9 ADD PUSH2 0x174A JUMP JUMPDEST SWAP5 SWAP8 SWAP4 SWAP7 POP SWAP4 SWAP5 PUSH1 0x60 ADD CALLDATALOAD SWAP4 POP POP POP JUMP JUMPDEST PUSH1 0x1F DUP3 GT ISZERO PUSH2 0x1B83 JUMPI DUP1 PUSH0 MSTORE PUSH1 0x20 PUSH0 KECCAK256 PUSH1 0x1F DUP5 ADD PUSH1 0x5 SHR DUP2 ADD PUSH1 0x20 DUP6 LT ISZERO PUSH2 0x1B61 JUMPI POP DUP1 JUMPDEST PUSH1 0x1F DUP5 ADD PUSH1 0x5 SHR DUP3 ADD SWAP2 POP JUMPDEST DUP2 DUP2 LT ISZERO PUSH2 0x1B80 JUMPI PUSH0 DUP2 SSTORE PUSH1 0x1 ADD PUSH2 0x1B6D JUMP JUMPDEST POP POP JUMPDEST POP POP POP JUMP JUMPDEST DUP2 MLOAD PUSH8 0xFFFFFFFFFFFFFFFF DUP2 GT ISZERO PUSH2 0x1BA2 JUMPI PUSH2 0x1BA2 PUSH2 0x146E JUMP JUMPDEST PUSH2 0x1BB6 DUP2 PUSH2 0x1BB0 DUP5 SLOAD PUSH2 0x19BC JUMP JUMPDEST DUP5 PUSH2 0x1B3C JUMP JUMPDEST PUSH1 0x20 DUP1 PUSH1 0x1F DUP4 GT PUSH1 0x1 DUP2 EQ PUSH2 0x1BE9 JUMPI PUSH0 DUP5 ISZERO PUSH2 0x1BD2 JUMPI POP DUP6 DUP4 ADD MLOAD JUMPDEST PUSH0 NOT PUSH1 0x3 DUP7 SWAP1 SHL SHR NOT AND PUSH1 0x1 DUP6 SWAP1 SHL OR DUP6 SSTORE PUSH2 0x1C40 JUMP JUMPDEST PUSH0 DUP6 DUP2 MSTORE PUSH1 0x20 DUP2 KECCAK256 PUSH1 0x1F NOT DUP7 AND SWAP2 JUMPDEST DUP3 DUP2 LT ISZERO PUSH2 0x1C17 JUMPI DUP9 DUP7 ADD MLOAD DUP3 SSTORE SWAP5 DUP5 ADD SWAP5 PUSH1 0x1 SWAP1 SWAP2 ADD SWAP1 DUP5 ADD PUSH2 0x1BF8 JUMP JUMPDEST POP DUP6 DUP3 LT ISZERO PUSH2 0x1C34 JUMPI DUP8 DUP6 ADD MLOAD PUSH0 NOT PUSH1 0x3 DUP9 SWAP1 SHL PUSH1 0xF8 AND SHR NOT AND DUP2 SSTORE JUMPDEST POP POP PUSH1 0x1 DUP5 PUSH1 0x1 SHL ADD DUP6 SSTORE JUMPDEST POP POP POP POP POP POP JUMP INVALID LOG2 PUSH5 0x6970667358 0x22 SLT KECCAK256 0xA9 PUSH26 0x9DC9F14C19E14C6D64AE13B824047A2E599C9934F3A0104A5D46 0xB8 0xAC DELEGATECALL CALL PUSH5 0x736F6C6343 STOP ADDMOD AND STOP CALLER "
		},
		"gasEstimates": {
			"creation": {
				"codeDepositCost": "1458800",
				"executionCost": "27358",
				"totalCost": "1486158"
			},
			"external": {
				"addressOfExtensionName(string)": "infinite",
				"defaultExtensionOfCommand(string)": "infinite",
				"getExtensionForCommand(address,string)": "infinite",
				"getSubjectTemplatesOfExtension(address)": "infinite",
				"maxGasOfExtension(address)": "2533",
				"owner()": "2429",
				"publishExtension(string,address,string[][],uint256)": "infinite",
				"renounceOwnership()": "infinite",
				"setDefaultExtensions(bytes[])": "infinite",
				"setExtensionForCommand(address,string,address)": "infinite",
				"subjectTemplatesOfExtension(address,uint256,uint256)": "infinite",
				"transferOwnership(address)": "infinite",
				"userExtensionOfCommand(address,string)": "infinite"
			}
		},
		"methodIdentifiers": {
			"addressOfExtensionName(string)": "93f87842",
			"defaultExtensionOfCommand(string)": "0db79b93",
			"getExtensionForCommand(address,string)": "e086a822",
			"getSubjectTemplatesOfExtension(address)": "6dfbe35e",
			"maxGasOfExtension(address)": "2f1d7ddc",
			"owner()": "8da5cb5b",
			"publishExtension(string,address,string[][],uint256)": "bc27aeb3",
			"renounceOwnership()": "715018a6",
			"setDefaultExtensions(bytes[])": "f884630b",
			"setExtensionForCommand(address,string,address)": "f1fbbba1",
			"subjectTemplatesOfExtension(address,uint256,uint256)": "93ec4971",
			"transferOwnership(address)": "f2fde38b",
			"userExtensionOfCommand(address,string)": "3a03738a"
		}
	},
	"abi": [
		{
			"anonymous": false,
			"inputs": [
				{
					"indexed": true,
					"internalType": "string",
					"name": "name",
					"type": "string"
				},
				{
					"indexed": true,
					"internalType": "address",
					"name": "extensionAddr",
					"type": "address"
				},
				{
					"indexed": false,
					"internalType": "string[][]",
					"name": "subjectTemplates",
					"type": "string[][]"
				},
				{
					"indexed": false,
					"internalType": "uint256",
					"name": "maxExecutionGas",
					"type": "uint256"
				}
			],
			"name": "ExtensionPublished",
			"type": "event"
		},
		{
			"anonymous": false,
			"inputs": [
				{
					"indexed": true,
					"internalType": "address",
					"name": "previousOwner",
					"type": "address"
				},
				{
					"indexed": true,
					"internalType": "address",
					"name": "newOwner",
					"type": "address"
				}
			],
			"name": "OwnershipTransferred",
			"type": "event"
		},
		{
			"inputs": [
				{
					"internalType": "string",
					"name": "",
					"type": "string"
				}
			],
			"name": "addressOfExtensionName",
			"outputs": [
				{
					"internalType": "address",
					"name": "",
					"type": "address"
				}
			],
			"stateMutability": "view",
			"type": "function"
		},
		{
			"inputs": [
				{
					"internalType": "string",
					"name": "",
					"type": "string"
				}
			],
			"name": "defaultExtensionOfCommand",
			"outputs": [
				{
					"internalType": "address",
					"name": "",
					"type": "address"
				}
			],
			"stateMutability": "view",
			"type": "function"
		},
		{
			"inputs": [
				{
					"internalType": "address",
					"name": "walletAddr",
					"type": "address"
				},
				{
					"internalType": "string",
					"name": "command",
					"type": "string"
				}
			],
			"name": "getExtensionForCommand",
			"outputs": [
				{
					"internalType": "address",
					"name": "",
					"type": "address"
				}
			],
			"stateMutability": "view",
			"type": "function"
		},
		{
			"inputs": [
				{
					"internalType": "address",
					"name": "extensionAddr",
					"type": "address"
				}
			],
			"name": "getSubjectTemplatesOfExtension",
			"outputs": [
				{
					"internalType": "string[][]",
					"name": "",
					"type": "string[][]"
				}
			],
			"stateMutability": "view",
			"type": "function"
		},
		{
			"inputs": [
				{
					"internalType": "address",
					"name": "",
					"type": "address"
				}
			],
			"name": "maxGasOfExtension",
			"outputs": [
				{
					"internalType": "uint256",
					"name": "",
					"type": "uint256"
				}
			],
			"stateMutability": "view",
			"type": "function"
		},
		{
			"inputs": [],
			"name": "owner",
			"outputs": [
				{
					"internalType": "address",
					"name": "",
					"type": "address"
				}
			],
			"stateMutability": "view",
			"type": "function"
		},
		{
			"inputs": [
				{
					"internalType": "string",
					"name": "name",
					"type": "string"
				},
				{
					"internalType": "address",
					"name": "addr",
					"type": "address"
				},
				{
					"internalType": "string[][]",
					"name": "subjectTemplates",
					"type": "string[][]"
				},
				{
					"internalType": "uint256",
					"name": "maxExecutionGas",
					"type": "uint256"
				}
			],
			"name": "publishExtension",
			"outputs": [],
			"stateMutability": "nonpayable",
			"type": "function"
		},
		{
			"inputs": [],
			"name": "renounceOwnership",
			"outputs": [],
			"stateMutability": "nonpayable",
			"type": "function"
		},
		{
			"inputs": [
				{
					"internalType": "bytes[]",
					"name": "defaultExtensions",
					"type": "bytes[]"
				}
			],
			"name": "setDefaultExtensions",
			"outputs": [],
			"stateMutability": "nonpayable",
			"type": "function"
		},
		{
			"inputs": [
				{
					"internalType": "address",
					"name": "walletAddr",
					"type": "address"
				},
				{
					"internalType": "string",
					"name": "command",
					"type": "string"
				},
				{
					"internalType": "address",
					"name": "extensionAddr",
					"type": "address"
				}
			],
			"name": "setExtensionForCommand",
			"outputs": [],
			"stateMutability": "nonpayable",
			"type": "function"
		},
		{
			"inputs": [
				{
					"internalType": "address",
					"name": "",
					"type": "address"
				},
				{
					"internalType": "uint256",
					"name": "",
					"type": "uint256"
				},
				{
					"internalType": "uint256",
					"name": "",
					"type": "uint256"
				}
			],
			"name": "subjectTemplatesOfExtension",
			"outputs": [
				{
					"internalType": "string",
					"name": "",
					"type": "string"
				}
			],
			"stateMutability": "view",
			"type": "function"
		},
		{
			"inputs": [
				{
					"internalType": "address",
					"name": "newOwner",
					"type": "address"
				}
			],
			"name": "transferOwnership",
			"outputs": [],
			"stateMutability": "nonpayable",
			"type": "function"
		},
		{
			"inputs": [
				{
					"internalType": "address",
					"name": "",
					"type": "address"
				},
				{
					"internalType": "string",
					"name": "",
					"type": "string"
				}
			],
			"name": "userExtensionOfCommand",
			"outputs": [
				{
					"internalType": "address",
					"name": "",
					"type": "address"
				}
			],
			"stateMutability": "view",
			"type": "function"
		}
	]
}