{
	"data": {
		"bytecode": {
			"linkReferences": {
				"packages/contracts/src/libraries/SubjectUtils.sol": {
					"SubjectUtils": [
						{
							"length": 20,
							"start": 7122
						}
					]
				}
			},
			"object": "61018060405234801562000011575f80fd5b5060405162004a2238038062004a228339810160408190526200003491620000d5565b5f80546001600160a01b03199081166001600160a01b039e8f16179091556001805482169c8e169c909c17909b55600280548c169a8d169a909a1790995560038054909a16978b169790971790985593881660805291871660a052861660c05290941660e052610100939093526101209190915261014091909152610160526200019f565b80516001600160a01b0381168114620000d0575f80fd5b919050565b5f805f805f805f805f805f806101808d8f031215620000f2575f80fd5b620000fd8d620000b9565b9b506200010d60208e01620000b9565b9a506200011d60408e01620000b9565b99506200012d60608e01620000b9565b98506200013d60808e01620000b9565b97506200014d60a08e01620000b9565b96506200015d60c08e01620000b9565b95506200016d60e08e01620000b9565b94506101008d015193506101208d015192506101408d015191506101608d015190509295989b509295989b509295989b565b60805160a05160c05160e0516101005161012051610140516101605161478d620002955f395f81816103ff015281816108a20152818161094901526109af01525f818161031d0152818161070f015281816107b5015261081b01525f818161043201526113fb01525f818161021a015281816106ee01528181610794015281816107fa01528181610881015281816109280152818161098e01526115c101525f81816102ad015261202701525f81816101cf0152612ee901525f818161038e01528181610b4001528181610ea001528181611e2d01528181612a2f0152612e3e01525f818161025b0152611aa5015261478d5ff3fe608060405260043610610122575f3560e01c8063662217341161009f578063a396447511610063578063a3964475146103cf578063a87fedae146103ee578063b90d36f914610421578063c9af3f1c14610454578063d5e5c1c8146104735761012b565b8063662217341461030c5780636f2de70e1461033f57806375af32171461035e5780639d23c4c71461037d5780639f6d1d83146103b05761012b565b80632b7ac3f3116100e65780632b7ac3f31461024a57806333ddfb9a1461027d5780634780eac11461029c5780635e5f2610146102cf57806365a345ac146102ed5761012b565b80631377df441461013557806317ace6b51461016157806321d71c8f1461019f5780632630c12f146101be5780632728bf2c146102095761012b565b3661012b575f80fd5b610133610492565b005b610148610143366004613462565b610521565b60405161015894939291906134ed565b60405180910390f35b34801561016c575f80fd5b5061018f61017b36600461351a565b60046020525f908152604090205460ff1681565b6040519015158152602001610158565b3480156101aa575f80fd5b506101336101b9366004613555565b610cd8565b3480156101c9575f80fd5b506101f17f000000000000000000000000000000000000000000000000000000000000000081565b6040516001600160a01b039091168152602001610158565b348015610214575f80fd5b5061023c7f000000000000000000000000000000000000000000000000000000000000000081565b604051908152602001610158565b348015610255575f80fd5b506101f17f000000000000000000000000000000000000000000000000000000000000000081565b348015610288575f80fd5b506001546101f1906001600160a01b031681565b3480156102a7575f80fd5b506101f17f000000000000000000000000000000000000000000000000000000000000000081565b3480156102da575f80fd5b505f546101f1906001600160a01b031681565b3480156102f8575f80fd5b506101336103073660046135d2565b610fc1565b348015610317575f80fd5b5061023c7f000000000000000000000000000000000000000000000000000000000000000081565b34801561034a575f80fd5b506101336103593660046135fc565b61119e565b348015610369575f80fd5b506101336103783660046135d2565b6111f9565b348015610388575f80fd5b506101f17f000000000000000000000000000000000000000000000000000000000000000081565b3480156103bb575f80fd5b506003546101f1906001600160a01b031681565b3480156103da575f80fd5b506101336103e9366004613aec565b61123f565b3480156103f9575f80fd5b5061023c7f000000000000000000000000000000000000000000000000000000000000000081565b34801561042c575f80fd5b5061023c7f000000000000000000000000000000000000000000000000000000000000000081565b34801561045f575f80fd5b5061013361046e366004613555565b611be3565b34801561047e575f80fd5b506002546101f1906001600160a01b031681565b3661049b573636f35b5f805b803682106104ac5750610505565b60018083019260031981019035185f1a90816104f5575f1985526002830193356002198401185f1a607f8082116104e4578282013888395b1694909401909301925061049e9050565b818553808501945050505061049e565b505f80825f305af490503d5f803e8061051c573d5ffd5b503d5ff35b6005545f90606090829081906001600160a01b03161561057e5760405162461bcd60e51b815260206004820152601360248201527218dbdb9d195e1d08185b1c9958591e481cd95d606a1b60448201526064015b60405180910390fd5b5f5a6040878101356008556001549051629316e960e11b8152883560048201529192506001600160a01b0316906301262dd290602401602060405180830381865afa1580156105cf573d5f803e3d5ffd5b505050506040513d601f19601f820116820180604052508101906105f39190613b1d565b600580546001600160a01b0319166001600160a01b039290921691909117905561061f6103e987613b38565b60c08601355f908152600460205260409020805460ff1916600117905561064d61064887613b38565b611dda565b6006549196509450600160a01b900460ff1680156106745750600654600160a81b900460ff165b156106d75760405162461bcd60e51b815260206004820152602d60248201527f63616e6e6f7420726567697374657220626f746820756e636c61696d6564206660448201526c756e6420616e6420737461746560981b6064820152608401610575565b600654600160a01b900460ff161561086a576107337f00000000000000000000000000000000000000000000000000000000000000007f0000000000000000000000000000000000000000000000000000000000000000613b57565b341461078f5760405162461bcd60e51b815260206004820152602560248201527f696e636f7272656374204554482073656e7420666f7220756e636c61696d656460448201526408199d5b9960da1b6064820152608401610575565b6107d97f00000000000000000000000000000000000000000000000000000000000000007f0000000000000000000000000000000000000000000000000000000000000000613b57565b6107e39084613b6e565b6002549093506001600160a01b03166108fc61083f7f00000000000000000000000000000000000000000000000000000000000000007f0000000000000000000000000000000000000000000000000000000000000000613b57565b6040518115909202915f818181858888f19350505050158015610864573d5f803e3d5ffd5b50610a86565b600654600160a81b900460ff16156109d3576108c67f00000000000000000000000000000000000000000000000000000000000000007f0000000000000000000000000000000000000000000000000000000000000000613b57565b34146109235760405162461bcd60e51b815260206004820152602660248201527f696e636f7272656374204554482073656e7420666f7220756e636c61696d656460448201526520737461746560d01b6064820152608401610575565b61096d7f00000000000000000000000000000000000000000000000000000000000000007f0000000000000000000000000000000000000000000000000000000000000000613b57565b6109779084613b6e565b6002549093506001600160a01b03166108fc61083f7f00000000000000000000000000000000000000000000000000000000000000007f0000000000000000000000000000000000000000000000000000000000000000613b57565b60075415610a5b5760405162461bcd60e51b815260206004820152604960248201527f72656769737465726564556e636c61696d4964206d757374206265207a65726f60448201527f206966206e6f20756e636c61696d65642066756e642f737461746520697320726064820152681959da5cdd195c995960ba1b608482015260a401610575565b60405133903480156108fc02915f818181858888f19350505050158015610a84573d5f803e3d5ffd5b505b600754915061d6d85f815a610a9b9085613b81565b610aa59190613b6e565b9050610ab661018089013582613b57565b610ac09086613b6e565b94505f610b0d610ad46101608b018b613b94565b8080601f0160208091040260200160405190810160405280939291908181526020018383808284375f92019190915250612d5e92505050565b90505f670de0b6b3a7640000610b238389613b57565b610b2d9190613bdd565b90508015610c36575f6001600160a01b037f00000000000000000000000000000000000000000000000000000000000000001663c4091236610b736101608e018e613b94565b6040518363ffffffff1660e01b8152600401610b90929190613c24565b602060405180830381865afa158015610bab573d5f803e3d5ffd5b505050506040513d601f19601f82011682018060405250810190610bcf9190613b1d565b6005549091505f908190610bee906001600160a01b0316338587612f5a565b915091508181604051602001610c049190613c37565b60405160208183030381529060405290610c315760405162461bcd60e51b81526004016105759190613c7b565b505050505b600580546001600160a01b03191690555f6008819055600680546001600160b01b03191690556007819055610c6d90600990613418565b8960c00135868a15157fb5144465dc165f0fdb939cd27dbf83aac1199241a737482d2fc25624328c7a188d5f01358e604001358f6080016020810190610cb39190613c8d565b8e604051610cc49493929190613ca8565b60405180910390a450505050509193509193565b6006546001600160a01b03163314610d025760405162461bcd60e51b815260040161057590613cde565b6001600160a01b0383163014801590610d2957506002546001600160a01b03848116911614155b8015610d4357506001546001600160a01b03848116911614155b8015610d5c57505f546001600160a01b03848116911614155b8015610d7657506003546001600160a01b03848116911614155b610dcc5760405162461bcd60e51b815260206004820152602160248201527f7461726765742063616e6e6f7420626520636f7265206f722068616e646c65726044820152607360f81b6064820152608401610575565b6001600160a01b0383163b610e235760405162461bcd60e51b815260206004820152601860248201527f746172676574206973206e6f74206120636f6e747261637400000000000000006044820152606401610575565b6005546001600160a01b0390811690841603610e815760405162461bcd60e51b815260206004820152601760248201527f7461726765742063616e6e6f742062652077616c6c65740000000000000000006044820152606401610575565b6040516359ccef2760e11b81526001600160a01b0384811660048301527f0000000000000000000000000000000000000000000000000000000000000000169063b399de4e906024015f60405180830381865afa158015610ee4573d5f803e3d5ffd5b505050506040513d5f823e601f3d908101601f19168201604052610f0b9190810190613d75565b5115610f595760405162461bcd60e51b815260206004820152601860248201527f7461726765742063616e6e6f74206265206120746f6b656e00000000000000006044820152606401610575565b600554604051635b0e93fb60e11b81526001600160a01b039091169063b61d27f690610f8f9086905f9087908790600401613da6565b5f604051808303815f87803b158015610fa6575f80fd5b505af1158015610fb8573d5f803e3d5ffd5b50505050505050565b6006546001600160a01b03163314610feb5760405162461bcd60e51b815260040161057590613cde565b5f5b60095481101561115157826001600160a01b03166005600401828154811061101757611017613dcd565b5f9182526020909120600290910201546001600160a01b03160361114957816005600401828154811061104c5761104c613dcd565b905f5260205f2090600202016001015410156110a35760405162461bcd60e51b8152602060048201526016602482015275696e73756666696369656e7420616c6c6f77616e636560501b6044820152606401610575565b81600560040182815481106110ba576110ba613dcd565b905f5260205f2090600202016001015f8282546110d79190613b81565b90915550506005546006545f9182916110fe916001600160a01b0390811691168787612f5a565b9150915081816040516020016111149190613de1565b604051602081830303815290604052906111415760405162461bcd60e51b81526004016105759190613c7b565b505050505050565b600101610fed565b5060405162461bcd60e51b815260206004820181905260248201527f6e6f20616c6c6f77616e636520666f722072657175657374656420746f6b656e6044820152606401610575565b5050565b60035460405163f884630b60e01b81526001600160a01b039091169063f884630b906111d09085908590600401613e1e565b5f604051808303815f87803b1580156111e7575f80fd5b505af1158015611141573d5f803e3d5ffd5b6006546001600160a01b031633146112235760405162461bcd60e51b815260040161057590613cde565b60055461119a906001600160a01b0384811691339116846131ad565b6001548151604051635d2c8d1b60e11b815260048101919091525f916001600160a01b031690636b0f047d90829063ba591a3690602401602060405180830381865afa158015611291573d5f803e3d5ffd5b505050506040513d601f19601f820116820180604052508101906112b59190613eb5565b6040518263ffffffff1660e01b81526004016112d391815260200190565b606060405180830381865afa1580156112ee573d5f803e3d5ffd5b505050506040513d601f19601f820116820180604052508101906113129190613ecc565b80519091506001600160a01b031633146113605760405162461bcd60e51b815260206004820152600f60248201526e34b73b30b634b2103932b630bcb2b960891b6044820152606401610575565b80602001516113b15760405162461bcd60e51b815260206004820152601760248201527f6163636f756e74206e6f7420696e697469616c697a65640000000000000000006044820152606401610575565b60408101516113f85760405162461bcd60e51b81526020600482015260136024820152721dd85b1b195d081cd85b1d081b9bdd081cd95d606a1b6044820152606401610575565b427f000000000000000000000000000000000000000000000000000000000000000083610120015161142a9190613b6e565b116114675760405162461bcd60e51b815260206004820152600d60248201526c195b585a5b08195e1c1a5c9959609a1b6044820152606401610575565b5f8054604051630fd5856960e21b81523360048201526001600160a01b0390911690633f5615a490602401602060405180830381865afa1580156114ad573d5f803e3d5ffd5b505050506040513d601f19601f820116820180604052508101906114d19190613eb5565b036115175760405162461bcd60e51b81526020600482015260166024820152751c995b185e595c881b9bdd081c9959da5cdd195c995960521b6044820152606401610575565b8160a00151515f0361156b5760405162461bcd60e51b815260206004820152601760248201527f636f6d6d616e642063616e6e6f7420626520656d7074790000000000000000006044820152606401610575565b611579826101600151612d5e565b5f036115bf5760405162461bcd60e51b81526020600482015260156024820152743ab739bab83837b93a32b2103332b2903a37b5b2b760591b6044820152606401610575565b7f0000000000000000000000000000000000000000000000000000000000000000826101800151111561162b5760405162461bcd60e51b81526020600482015260146024820152730cccaca40e0cae440cec2e640e8dede40d0d2ced60631b6044820152606401610575565b60c08201515f9081526004602052604090205460ff16156116805760405162461bcd60e51b815260206004820152600f60248201526e195b585a5b081b9d5b1b1a599a5959608a1b6044820152606401610575565b60015460c08301516040516317ace6b560e01b81526001600160a01b03909216916317ace6b5916116b79160040190815260200190565b602060405180830381865afa1580156116d2573d5f803e3d5ffd5b505050506040513d601f19601f820116820180604052508101906116f69190613f34565b156117355760405162461bcd60e51b815260206004820152600f60248201526e195b585a5b081b9d5b1b1a599a5959608a1b6044820152606401610575565b60015460408083015160e08501516101008601519251636c21242760e11b81526001600160a01b039094169363d842484e93611775939291600401613f4f565b602060405180830381865afa158015611790573d5f803e3d5ffd5b505050506040513d601f19601f820116820180604052508101906117b49190613f34565b6118005760405162461bcd60e51b815260206004820152601760248201527f696e76616c696420444b494d207075626c6963206b65790000000000000000006044820152606401610575565b8160200151156118c65760808201516001600160a01b0316156118655760405162461bcd60e51b815260206004820181905260248201527f63616e6e6f74206861766520626f746820726563697069656e742074797065736044820152606401610575565b60408201516118c15760405162461bcd60e51b815260206004820152602260248201527f726563697069656e74456d61696c41646472436f6d6d6974206e6f7420666f756044820152611b9960f21b6064820152608401610575565b611924565b6040820151156119245760405162461bcd60e51b8152602060048201526024808201527f726563697069656e74456d61696c41646472436f6d6d6974206e6f7420616c6c6044820152631bddd95960e21b6064820152608401610575565b6001546040808301519051632b3263c760e11b81525f9273__$848b0362efcc94c0fdbe341ea0e47fe640$__926330a2cc129287926001600160a01b031691635664c78e9161197a919060040190815260200190565b602060405180830381865afa158015611995573d5f803e3d5ffd5b505050506040513d601f19601f820116820180604052508101906119b99190613b1d565b306040518463ffffffff1660e01b81526004016119d893929190614012565b5f60405180830381865af41580156119f2573d5f803e3d5ffd5b505050506040513d5f823e601f3d908101601f19168201604052611a199190810190614218565b509050611a2b8184610140015161320d565b81604051602001611a3c9190614266565b60405160208183030381529060405290611a695760405162461bcd60e51b81526004016105759190613c7b565b5060e083015161010084015161012085015161014086015160c08701515f54604051630fd5856960e21b81523360048201526001600160a01b037f000000000000000000000000000000000000000000000000000000000000000081169763b4fe57929790969095909490939092911690633f5615a490602401602060405180830381865afa158015611afe573d5f803e3d5ffd5b505050506040513d601f19601f82011682018060405250810190611b229190613eb5565b8a5160208c01516040808e01516102608f015191516001600160e01b031960e08d901b168152611b5d9a999897969594939290600401614298565b602060405180830381865afa158015611b78573d5f803e3d5ffd5b505050506040513d601f19601f82011682018060405250810190611b9c9190613f34565b611bde5760405162461bcd60e51b815260206004820152601360248201527234b73b30b634b21032b6b0b4b610383937b7b360691b6044820152606401610575565b505050565b600354604051630bc75f7760e21b81526001600160a01b03858116600483015290911690632f1d7ddc90602401602060405180830381865afa158015611c2b573d5f803e3d5ffd5b505050506040513d601f19601f82011682018060405250810190611c4f9190613eb5565b5f03611c915760405162461bcd60e51b815260206004820152601160248201527034b73b30b634b21032bc3a32b739b4b7b760791b6044820152606401610575565b6006546001600160a01b03163314611ce25760405162461bcd60e51b815260206004820152601460248201527331b0b63632b9103737ba1032bc3a32b739b4b7b760611b6044820152606401610575565b600654600160a81b900460ff1615611d355760405162461bcd60e51b8152602060048201526016602482015275756e636c61696d65642073746174652065786973747360501b6044820152606401610575565b60068054600160a81b60ff60a81b1982161790915560025460055460085460405163def27db760e01b81526001600160a01b039384169463def27db794611d92948a949082169390928a928a929181169087161490600401614312565b6020604051808303815f875af1158015611dae573d5f803e3d5ffd5b505050506040513d601f19601f82011682018060405250810190611dd29190613eb5565b600755505050565b5f6060611e078360a001516040518060400160405280600481526020016314d95b9960e21b81525061320d565b156121a2576102208301518051604051636204891b60e11b81525f916001600160a01b037f0000000000000000000000000000000000000000000000000000000000000000169163c409123691611e6091600401613c7b565b602060405180830381865afa158015611e7b573d5f803e3d5ffd5b505050506040513d601f19601f82011682018060405250810190611e9f9190613b1d565b9050846020015115611f88576005546002546020840151611ecf926001600160a01b039081169216908490612f5a565b909450925083611ee0575050915091565b6006805460ff60a01b1916600160a01b17905560025460055460408781015160208601519151631bae92f760e01b81526001600160a01b039384166004820152602481019190915284831660448201526064810191909152911690631bae92f7906084016020604051808303815f875af1158015611f60573d5f803e3d5ffd5b505050506040513d601f19601f82011682018060405250810190611f849190613eb5565b6007555b846020015161219b57611fbe8561022001515f01516040518060400160405280600381526020016208aa8960eb1b81525061320d565b15612172576005546020838101516040805160248082019390935281518082039093018352604401815291810180516001600160e01b0316632e1a7d4d60e01b1790529051635b0e93fb60e11b81526001600160a01b0390921691829163b61d27f691612052917f0000000000000000000000000000000000000000000000000000000000000000915f919060040161435a565b5f604051808303815f87803b158015612069575f80fd5b505af192505050801561207a575060015b6120f157612086614389565b806308c379a0036120af575061209a6143a2565b806120a557506120b1565b5f9550935061216c565b505b5f94506040518060400160405280601a81526020017f65727220636f6e76657274696e67205745544820746f20455448000000000000815250935061216c565b60808601516020840151604051635b0e93fb60e11b81526001600160a01b0392831660048201526024810191909152606060448201525f60648201529082169063b61d27f6906084015f604051808303815f87803b158015612151575f80fd5b505af1158015612163573d5f803e3d5ffd5b50505050600194505b5061219b565b60055460808601516020840151612195926001600160a01b031691908490612f5a565b90945092505b5050915091565b6121cf8360a00151604051806040016040528060078152602001664578656375746560c81b81525061320d565b156122d6575f805f856101a001518060200190518101906121f0919061442a565b600554604051635b0e93fb60e11b815293965091945092506001600160a01b03169063b61d27f69061222a9086908690869060040161435a565b5f604051808303815f87803b158015612241575f80fd5b505af1925050508015612252575060015b6122c95761225e614389565b806308c379a00361228757506122726143a2565b8061227d5750612289565b5f955093506122ce565b505b5f94506040518060400160405280602081526020017f65727220657865637574696e672063616c6c64617461206f6e2077616c6c657481525093506122ce565b600194505b505050915091565b6123038360a0015160405180604001604052806007815260200166125b9cdd185b1b60ca1b81525061320d565b1561246e576003546101c08401516040516349fc3c2160e11b81525f926001600160a01b0316916393f878429161233d9190600401613c7b565b602060405180830381865afa158015612358573d5f803e3d5ffd5b505050506040513d601f19601f8201168201806040525081019061237c9190613b1d565b6003546040516393ec497160e01b81526001600160a01b0380841660048301525f6024830181905260448301819052939450909116906393ec4971906064015f60405180830381865afa1580156123d5573d5f803e3d5ffd5b505050506040513d5f823e601f3d908101601f191682016040526123fc9190810190613d75565b60035460055460405163f1fbbba160e01b81529293506001600160a01b039182169263f1fbbba19261243692169085908790600401614492565b5f604051808303815f87803b15801561244d575f80fd5b505af115801561245f573d5f803e3d5ffd5b50505050600193505050915091565b61249d8360a0015160405180604001604052806009815260200168155b9a5b9cdd185b1b60ba1b81525061320d565b156125d0576003546101c08401516040516349fc3c2160e11b81525f926001600160a01b0316916393f87842916124d79190600401613c7b565b602060405180830381865afa1580156124f2573d5f803e3d5ffd5b505050506040513d601f19601f820116820180604052508101906125169190613b1d565b6003546040516393ec497160e01b81526001600160a01b0380841660048301525f6024830181905260448301819052939450909116906393ec4971906064015f60405180830381865afa15801561256f573d5f803e3d5ffd5b505050506040513d5f823e601f3d908101601f191682016040526125969190810190613d75565b60035460055460405163f1fbbba160e01b81529293506001600160a01b039182169263f1fbbba19261243692169085905f90600401614492565b6125fa8360a0015160405180604001604052806004815260200163115e1a5d60e21b81525061320d565b156126bc576005546101e084015160405163f2fde38b60e01b81526001600160a01b03918216600482015291169063f2fde38b906024015f604051808303815f87803b158015612648575f80fd5b505af1925050508015612659575060015b6126b357612665614389565b806308c379a00361268e57506126796143a2565b806126845750612690565b5f92509050915091565b505b5f915060405180606001604052806029815260200161472f602991399050915091565b60019150915091565b6126e68360a0015160405180604001604052806004815260200163444b494d60e01b81525061320d565b1561283d576001548351604051635d2c8d1b60e11b815260048101919091525f916001600160a01b03169063ba591a3690602401602060405180830381865afa158015612735573d5f803e3d5ffd5b505050506040513d601f19601f820116820180604052508101906127599190613eb5565b600154604051636b0f047d60e01b8152600481018390529192506001600160a01b0316906340d20041908290636b0f047d90602401606060405180830381865afa1580156127a9573d5f803e3d5ffd5b505050506040513d601f19601f820116820180604052508101906127cd9190613ecc565b604001518661020001516040518363ffffffff1660e01b81526004016128069291909182526001600160a01b0316602082015260400190565b5f604051808303815f87803b15801561281d575f80fd5b505af115801561282f573d5f803e3d5ffd5b505050506001925050915091565b60035460055460a0850151604051637043541160e11b81525f936001600160a01b039081169363e086a8229361287a9392909116916004016144c6565b602060405180830381865afa158015612895573d5f803e3d5ffd5b505050506040513d601f19601f820116820180604052508101906128b99190613b1d565b600680546001600160a01b0319166001600160a01b038381169182179092556003546040516336fdf1af60e11b815260048101929092529293505f9283921690636dfbe35e906024015f60405180830381865afa15801561291c573d5f803e3d5ffd5b505050506040513d5f823e601f3d908101601f1916820160405261294391908101906144e9565b8661024001515f015160ff168151811061295f5761295f613dcd565b602002602001015190505f5b81518160ff161015612c07575f828260ff168151811061298d5761298d613dcd565b602002602001015190506129c6816040518060400160405280600d81526020016c7b746f6b656e416d6f756e747d60981b81525061320d565b15612afb575f80896102400151602001518660ff16815181106129eb576129eb613dcd565b6020026020010151806020019051810190612a06919061461f565b6040805180820191829052636204891b60e11b9091529193509150600990806001600160a01b037f00000000000000000000000000000000000000000000000000000000000000001663c4091236612a618660448501613c7b565b602060405180830381865afa158015612a7c573d5f803e3d5ffd5b505050506040513d601f19601f82011682018060405250810190612aa09190613b1d565b6001600160a01b03908116825260209182018690528354600180820186555f95865294839020845160029092020180546001600160a01b0319169190921617815591015191015585612af181614662565b9650505050612bf4565b612b2581604051806040016040528060088152602001677b616d6f756e747d60c01b81525061320d565b80612b555750612b5581604051806040016040528060088152602001677b737472696e677d60c01b81525061320d565b80612b835750612b8381604051806040016040528060068152602001657b75696e747d60d01b81525061320d565b80612bb05750612bb081604051806040016040528060058152602001647b696e747d60d81b81525061320d565b80612be15750612be181604051806040016040528060098152602001687b616464726573737d60b81b81525061320d565b15612bf45783612bf081614662565b9450505b5080612bff81614662565b91505061296b565b50600354604051630bc75f7760e21b81526001600160a01b03858116600483018190529263e93977e892911690632f1d7ddc90602401602060405180830381865afa158015612c58573d5f803e3d5ffd5b505050506040513d601f19601f82011682018060405250810190612c7c9190613eb5565b6102408901518051602091820151600554928c015160808d015160c08e01516040516001600160e01b031960e08a901b168152612cc8966001600160a01b031693929190600401614680565b5f604051808303815f88803b158015612cdf575f80fd5b5087f193505050508015612cf1575060015b6122c957612cfd614389565b806308c379a003612d1c5750612d116143a2565b8061227d5750612d1e565b505b5f94506040518060400160405280601781526020017f65727220657865637574696e6720657874656e73696f6e00000000000000000081525093506122ce565b5f612d84826040518060400160405280600381526020016208aa8960eb1b81525061320d565b80612db05750612db082604051806040016040528060048152602001630ae8aa8960e31b81525061320d565b15612dc45750670de0b6b3a7640000919050565b5f612dea836040518060400160405280600381526020016244414960e81b81525061320d565b80612e165750612e1683604051806040016040528060048152602001635553444360e01b81525061320d565b905080612e2557505f92915050565b604051636204891b60e11b81525f906001600160a01b037f0000000000000000000000000000000000000000000000000000000000000000169063c409123690612e73908790600401613c7b565b602060405180830381865afa158015612e8e573d5f803e3d5ffd5b505050506040513d601f19601f82011682018060405250810190612eb29190613b1d565b90506001600160a01b038116612ecb57505f9392505050565b6040516230afb560e31b81526001600160a01b0382811660048301527f000000000000000000000000000000000000000000000000000000000000000016906301857da890602401602060405180830381865afa158015612f2e573d5f803e3d5ffd5b505050506040513d601f19601f82011682018060405250810190612f529190613eb5565b949350505050565b5f60606001600160a01b038416612fab5760405162461bcd60e51b8152602060048201526015602482015274696e76616c696420746f6b656e206164647265737360581b6044820152606401610575565b5f8311612feb5760405162461bcd60e51b815260206004820152600e60248201526d1a5b9d985b1a5908185b5bdd5b9d60921b6044820152606401610575565b6001600160a01b03861661303a5760405162461bcd60e51b8152602060048201526016602482015275696e76616c69642073656e646572206164647265737360501b6044820152606401610575565b6001600160a01b0385166130905760405162461bcd60e51b815260206004820152601960248201527f696e76616c696420726563697069656e742061646472657373000000000000006044820152606401610575565b604080516001600160a01b038781166024830152604480830187905283518084039091018152606490920183526020820180516001600160e01b031663a9059cbb60e01b1790529151635b0e93fb60e11b8152889283169163b61d27f6916130ff9189915f919060040161435a565b5f604051808303815f87803b158015613116575f80fd5b505af1925050508015613127575060015b61319e57613133614389565b806308c379a00361315e57506131476143a2565b806131525750613160565b5f935091506131a49050565b505b505060408051808201909152601981527f756e6b6e6f776e2077616c6c65742065786563206572726f720000000000000060208201525f91506131a4565b60019250505b94509492505050565b604080516001600160a01b0385811660248301528416604482015260648082018490528251808303909101815260849091019091526020810180516001600160e01b03166323b872dd60e01b179052613207908590613228565b50505050565b5f818051906020012083805190602001201490505b92915050565b5f61327c826040518060400160405280602081526020017f5361666545524332303a206c6f772d6c6576656c2063616c6c206661696c6564815250856001600160a01b03166132fb9092919063ffffffff16565b905080515f148061329c57508080602001905181019061329c9190613f34565b611bde5760405162461bcd60e51b815260206004820152602a60248201527f5361666545524332303a204552433230206f7065726174696f6e20646964206e6044820152691bdd081cdd58d8d9595960b21b6064820152608401610575565b6060612f5284845f85855f80866001600160a01b031685876040516133209190614713565b5f6040518083038185875af1925050503d805f811461335a576040519150601f19603f3d011682016040523d82523d5f602084013e61335f565b606091505b50915091506133708783838761337b565b979650505050505050565b606083156133e95782515f036133e2576001600160a01b0385163b6133e25760405162461bcd60e51b815260206004820152601d60248201527f416464726573733a2063616c6c20746f206e6f6e2d636f6e74726163740000006044820152606401610575565b5081612f52565b612f5283838151156133fe5781518083602001fd5b8060405162461bcd60e51b81526004016105759190613c7b565b5080545f8255600202905f5260205f20908101906134369190613439565b50565b5b8082111561345e5780546001600160a01b03191681555f600182015560020161343a565b5090565b5f60208284031215613472575f80fd5b81356001600160401b03811115613487575f80fd5b82016102808185031215613499575f80fd5b9392505050565b5f5b838110156134ba5781810151838201526020016134a2565b50505f910152565b5f81518084526134d98160208601602086016134a0565b601f01601f19169290920160200192915050565b8415158152608060208201525f61350760808301866134c2565b6040830194909452506060015292915050565b5f6020828403121561352a575f80fd5b5035919050565b6001600160a01b0381168114613436575f80fd5b803561355081613531565b919050565b5f805f60408486031215613567575f80fd5b833561357281613531565b925060208401356001600160401b038082111561358d575f80fd5b818601915086601f8301126135a0575f80fd5b8135818111156135ae575f80fd5b8760208285010111156135bf575f80fd5b6020830194508093505050509250925092565b5f80604083850312156135e3575f80fd5b82356135ee81613531565b946020939093013593505050565b5f806020838503121561360d575f80fd5b82356001600160401b0380821115613623575f80fd5b818501915085601f830112613636575f80fd5b813581811115613644575f80fd5b8660208260051b8501011115613658575f80fd5b60209290920196919550909350505050565b634e487b7160e01b5f52604160045260245ffd5b604081018181106001600160401b038211171561369d5761369d61366a565b60405250565b601f8201601f191681016001600160401b03811182821017156136c8576136c861366a565b6040525050565b60405161028081016001600160401b03811182821017156136f2576136f261366a565b60405290565b8015158114613436575f80fd5b8035613550816136f8565b5f6001600160401b038211156137285761372861366a565b50601f01601f191660200190565b5f82601f830112613745575f80fd5b813561375081613710565b60405161375d82826136a3565b828152856020848701011115613771575f80fd5b826020860160208301375f92810160200192909252509392505050565b5f6040828403121561379e575f80fd5b6040516137aa8161367e565b80915082356001600160401b038111156137c2575f80fd5b6137ce85828601613736565b825250602083013560208201525092915050565b5f6001600160401b038211156137fa576137fa61366a565b5060051b60200190565b5f60408284031215613814575f80fd5b6040516138208161367e565b809150823560ff81168114613833575f80fd5b81526020838101356001600160401b038082111561384f575f80fd5b818601915086601f830112613862575f80fd5b813561386d816137e2565b60405161387a82826136a3565b82815260059290921b8401850191858101915089831115613899575f80fd5b8585015b838110156138cf578035858111156138b3575f80fd5b6138c18c89838a0101613736565b84525091860191860161389d565b5080868801525050505050505092915050565b5f61028082840312156138f3575f80fd5b6138fb6136cf565b90508135815261390d60208301613705565b6020820152604082013560408201526060820135606082015261393260808301613545565b608082015260a08201356001600160401b0380821115613950575f80fd5b61395c85838601613736565b60a084015260c084013560c084015260e084013591508082111561397e575f80fd5b61398a85838601613736565b60e084015261010084810135908401526101208085013590840152610140915081840135818111156139ba575f80fd5b6139c686828701613736565b8385015250610160915081840135818111156139e0575f80fd5b6139ec86828701613736565b8385015250610180915081840135828401526101a091508184013581811115613a13575f80fd5b613a1f86828701613736565b83850152506101c091508184013581811115613a39575f80fd5b613a4586828701613736565b83850152506101e09150613a5a828501613545565b828401526102009150613a6e828501613545565b8284015261022091508184013581811115613a87575f80fd5b613a938682870161378e565b838501525061024091508184013581811115613aad575f80fd5b613ab986828701613804565b838501525061026091508184013581811115613ad3575f80fd5b613adf86828701613736565b8385015250505092915050565b5f60208284031215613afc575f80fd5b81356001600160401b03811115613b11575f80fd5b612f52848285016138e2565b5f60208284031215613b2d575f80fd5b815161349981613531565b5f61322236836138e2565b634e487b7160e01b5f52601160045260245ffd5b808202811582820484141761322257613222613b43565b8082018082111561322257613222613b43565b8181038181111561322257613222613b43565b5f808335601e19843603018112613ba9575f80fd5b8301803591506001600160401b03821115613bc2575f80fd5b602001915036819003821315613bd6575f80fd5b9250929050565b5f82613bf757634e487b7160e01b5f52601260045260245ffd5b500490565b81835281816020850137505f828201602090810191909152601f909101601f19169091010190565b602081525f612f52602083018486613bfc565b7f666565207265696d62757273656d656e74206661696c65643a2000000000000081525f8251613c6e81601a8501602087016134a0565b91909101601a0192915050565b602081525f61349960208301846134c2565b5f60208284031215613c9d575f80fd5b813561349981613531565b84815283602082015260018060a01b0383166040820152608060608201525f613cd460808301846134c2565b9695505050505050565b6020808252601f908201527f63616c6c6572206e6f7420657874656e73696f6e20696e20636f6e7465787400604082015260600190565b5f613d1f83613710565b604051613d2c82826136a3565b809250848152858585011115613d40575f80fd5b613d4e8560208301866134a0565b50509392505050565b5f82601f830112613d66575f80fd5b61349983835160208501613d15565b5f60208284031215613d85575f80fd5b81516001600160401b03811115613d9a575f80fd5b612f5284828501613d57565b60018060a01b0385168152836020820152606060408201525f613cd4606083018486613bfc565b634e487b7160e01b5f52603260045260245ffd5b7503932b8bab2b9ba103a37b5b2b7103330b4b632b21d160551b81525f8251613e118160168501602087016134a0565b9190910160160192915050565b60208082528181018390525f906040600585901b8401810190840186845b87811015613ea857868403603f190183528135368a9003601e19018112613e61575f80fd5b890185810190356001600160401b03811115613e7b575f80fd5b803603821315613e89575f80fd5b613e94868284613bfc565b955050509184019190840190600101613e3c565b5091979650505050505050565b5f60208284031215613ec5575f80fd5b5051919050565b5f60608284031215613edc575f80fd5b604051606081018181106001600160401b0382111715613efe57613efe61366a565b6040528251613f0c81613531565b81526020830151613f1c816136f8565b60208201526040928301519281019290925250919050565b5f60208284031215613f44575f80fd5b8151613499816136f8565b838152606060208201525f613f6760608301856134c2565b9050826040830152949350505050565b5f815160408452613f8b60408501826134c2565b602093840151949093019390935250919050565b5f6040830160ff83511684526020808401516040602087015282815180855260608801915060608160051b89010194506020830192505f5b8181101561400557605f19898703018352613ff38685516134c2565b95509284019291840191600101613fd7565b5093979650505050505050565b60608152835160608201525f6020850151614031608084018215159052565b50604085015160a0830152606085015160c083015260808501516001600160a01b03811660e08401525060a085015161028061010081818601526140796102e08601846134c2565b925060c0880151610120818188015260e08a01519150605f196101408189880301818a01526140a887856134c2565b9650848c01519450610160935084848a0152828c01519450610180925084838a0152808c01519450506101a08189880301818a01526140e787866134c2565b9650838c015194506101c093508189880301848a015261410787866134c2565b9650828c015194506101e0925084838a0152808c01519450506102008189880301818a015261413687866134c2565b9650838c0151945061022093508189880301848a015261415687866134c2565b9650828c015194506102409250614177838a01866001600160a01b03169052565b8b01519350610260614193898201866001600160a01b03169052565b838c015194508189880301868a01526141ac8786613f77565b9650828c0151955081898803016102a08a01526141c98787613f9f565b9650808c015195505080888703016102c0890152505050506141eb82826134c2565b9250505061420460208301856001600160a01b03169052565b6001600160a01b0383166040830152612f52565b5f8060408385031215614229575f80fd5b82516001600160401b0381111561423e575f80fd5b61424a85828601613d57565b925050602083015161425b816136f8565b809150509250929050565b6a039bab13532b1ba10109e960ad1b81525f825161428b81600b8501602087016134a0565b91909101600b0192915050565b5f6101408083526142ab8184018e6134c2565b90508b60208401528a604084015282810360608401526142cb818b6134c2565b90508860808401528760a08401528660c084015285151560e08401528461010084015282810361012084015261430181856134c2565b9d9c50505050505050505050505050565b6001600160a01b038781168252861660208201526040810185905260a0606082018190525f906143459083018587613bfc565b90508215156080830152979650505050505050565b60018060a01b0384168152826020820152606060408201525f61438060608301846134c2565b95945050505050565b5f60033d111561439f5760045f803e505f5160e01c5b90565b5f60443d10156143af5790565b6040516003193d81016004833e81513d6001600160401b0381602484011181841117156143de57505050505090565b82850191508151818111156143f65750505050505090565b843d87010160208285010111156144105750505050505090565b61441f602082860101876136a3565b509095945050505050565b5f805f6060848603121561443c575f80fd5b835161444781613531565b6020850151604086015191945092506001600160401b03811115614469575f80fd5b8401601f81018613614479575f80fd5b61448886825160208401613d15565b9150509250925092565b5f60018060a01b038086168352606060208401526144b360608401866134c2565b9150808416604084015250949350505050565b6001600160a01b03831681526040602082018190525f90612f52908301846134c2565b5f602082840312156144f9575f80fd5b81516001600160401b038082111561450f575f80fd5b818401915084601f830112614522575f80fd5b815161452d816137e2565b60405161453a82826136a3565b80915082815260208101915060208360051b86010192508783111561455d575f80fd5b602085015b8381101561461357805185811115614578575f80fd5b8601603f81018a13614588575f80fd5b6020810151614596816137e2565b6040516145a382826136a3565b82815260059290921b8301604001916020810191508c8311156145c4575f80fd5b604084015b838110156145fd5780518a8111156145df575f80fd5b6145ee8f604083890101613d57565b845250602092830192016145c9565b5086525050602093840193919091019050614562565b50979650505050505050565b5f8060408385031215614630575f80fd5b8251915060208301516001600160401b0381111561464c575f80fd5b61465885828601613d57565b9150509250929050565b5f60ff821660ff810361467757614677613b43565b60010192915050565b5f60c0820160ff89168352602060c0602085015281895180845260e08601915060e08160051b870101935060208b015f5b828110156146df5760df198887030184526146cd8683516134c2565b955092840192908401906001016146b1565b505050506001600160a01b0397881660408501525094151560608301525091909316608082015260a0019190915292915050565b5f82516147248184602087016134a0565b919091019291505056fe65727220657865637574696e67207472616e736665724f776e657273686970206f6e2077616c6c6574a2646970667358221220f173f857f013292fc5835452d3ede5bdf5a9e11de0e6f6d786e30f1f0add16d564736f6c63430008160033",
			"opcodes": "PUSH2 0x180 PUSH1 0x40 MSTORE CALLVALUE DUP1 ISZERO PUSH3 0x11 JUMPI PUSH0 DUP1 REVERT JUMPDEST POP PUSH1 0x40 MLOAD PUSH3 0x4A22 CODESIZE SUB DUP1 PUSH3 0x4A22 DUP4 CODECOPY DUP2 ADD PUSH1 0x40 DUP2 SWAP1 MSTORE PUSH3 0x34 SWAP2 PUSH3 0xD5 JUMP JUMPDEST PUSH0 DUP1 SLOAD PUSH1 0x1 PUSH1 0x1 PUSH1 0xA0 SHL SUB NOT SWAP1 DUP2 AND PUSH1 0x1 PUSH1 0x1 PUSH1 0xA0 SHL SUB SWAP15 DUP16 AND OR SWAP1 SWAP2 SSTORE PUSH1 0x1 DUP1 SLOAD DUP3 AND SWAP13 DUP15 AND SWAP13 SWAP1 SWAP13 OR SWAP1 SWAP12 SSTORE PUSH1 0x2 DUP1 SLOAD DUP13 AND SWAP11 DUP14 AND SWAP11 SWAP1 SWAP11 OR SWAP1 SWAP10 SSTORE PUSH1 0x3 DUP1 SLOAD SWAP1 SWAP11 AND SWAP8 DUP12 AND SWAP8 SWAP1 SWAP8 OR SWAP1 SWAP9 SSTORE SWAP4 DUP9 AND PUSH1 0x80 MSTORE SWAP2 DUP8 AND PUSH1 0xA0 MSTORE DUP7 AND PUSH1 0xC0 MSTORE SWAP1 SWAP5 AND PUSH1 0xE0 MSTORE PUSH2 0x100 SWAP4 SWAP1 SWAP4 MSTORE PUSH2 0x120 SWAP2 SWAP1 SWAP2 MSTORE PUSH2 0x140 SWAP2 SWAP1 SWAP2 MSTORE PUSH2 0x160 MSTORE PUSH3 0x19F JUMP JUMPDEST DUP1 MLOAD PUSH1 0x1 PUSH1 0x1 PUSH1 0xA0 SHL SUB DUP2 AND DUP2 EQ PUSH3 0xD0 JUMPI PUSH0 DUP1 REVERT JUMPDEST SWAP2 SWAP1 POP JUMP JUMPDEST PUSH0 DUP1 PUSH0 DUP1 PUSH0 DUP1 PUSH0 DUP1 PUSH0 DUP1 PUSH0 DUP1 PUSH2 0x180 DUP14 DUP16 SUB SLT ISZERO PUSH3 0xF2 JUMPI PUSH0 DUP1 REVERT JUMPDEST PUSH3 0xFD DUP14 PUSH3 0xB9 JUMP JUMPDEST SWAP12 POP PUSH3 0x10D PUSH1 0x20 DUP15 ADD PUSH3 0xB9 JUMP JUMPDEST SWAP11 POP PUSH3 0x11D PUSH1 0x40 DUP15 ADD PUSH3 0xB9 JUMP JUMPDEST SWAP10 POP PUSH3 0x12D PUSH1 0x60 DUP15 ADD PUSH3 0xB9 JUMP JUMPDEST SWAP9 POP PUSH3 0x13D PUSH1 0x80 DUP15 ADD PUSH3 0xB9 JUMP JUMPDEST SWAP8 POP PUSH3 0x14D PUSH1 0xA0 DUP15 ADD PUSH3 0xB9 JUMP JUMPDEST SWAP7 POP PUSH3 0x15D PUSH1 0xC0 DUP15 ADD PUSH3 0xB9 JUMP JUMPDEST SWAP6 POP PUSH3 0x16D PUSH1 0xE0 DUP15 ADD PUSH3 0xB9 JUMP JUMPDEST SWAP5 POP PUSH2 0x100 DUP14 ADD MLOAD SWAP4 POP PUSH2 0x120 DUP14 ADD MLOAD SWAP3 POP PUSH2 0x140 DUP14 ADD MLOAD SWAP2 POP PUSH2 0x160 DUP14 ADD MLOAD SWAP1 POP SWAP3 SWAP6 SWAP9 SWAP12 POP SWAP3 SWAP6 SWAP9 SWAP12 POP SWAP3 SWAP6 SWAP9 SWAP12 JUMP JUMPDEST PUSH1 0x80 MLOAD PUSH1 0xA0 MLOAD PUSH1 0xC0 MLOAD PUSH1 0xE0 MLOAD PUSH2 0x100 MLOAD PUSH2 0x120 MLOAD PUSH2 0x140 MLOAD PUSH2 0x160 MLOAD PUSH2 0x478D PUSH3 0x295 PUSH0 CODECOPY PUSH0 DUP2 DUP2 PUSH2 0x3FF ADD MSTORE DUP2 DUP2 PUSH2 0x8A2 ADD MSTORE DUP2 DUP2 PUSH2 0x949 ADD MSTORE PUSH2 0x9AF ADD MSTORE PUSH0 DUP2 DUP2 PUSH2 0x31D ADD MSTORE DUP2 DUP2 PUSH2 0x70F ADD MSTORE DUP2 DUP2 PUSH2 0x7B5 ADD MSTORE PUSH2 0x81B ADD MSTORE PUSH0 DUP2 DUP2 PUSH2 0x432 ADD MSTORE PUSH2 0x13FB ADD MSTORE PUSH0 DUP2 DUP2 PUSH2 0x21A ADD MSTORE DUP2 DUP2 PUSH2 0x6EE ADD MSTORE DUP2 DUP2 PUSH2 0x794 ADD MSTORE DUP2 DUP2 PUSH2 0x7FA ADD MSTORE DUP2 DUP2 PUSH2 0x881 ADD MSTORE DUP2 DUP2 PUSH2 0x928 ADD MSTORE DUP2 DUP2 PUSH2 0x98E ADD MSTORE PUSH2 0x15C1 ADD MSTORE PUSH0 DUP2 DUP2 PUSH2 0x2AD ADD MSTORE PUSH2 0x2027 ADD MSTORE PUSH0 DUP2 DUP2 PUSH2 0x1CF ADD MSTORE PUSH2 0x2EE9 ADD MSTORE PUSH0 DUP2 DUP2 PUSH2 0x38E ADD MSTORE DUP2 DUP2 PUSH2 0xB40 ADD MSTORE DUP2 DUP2 PUSH2 0xEA0 ADD MSTORE DUP2 DUP2 PUSH2 0x1E2D ADD MSTORE DUP2 DUP2 PUSH2 0x2A2F ADD MSTORE PUSH2 0x2E3E ADD MSTORE PUSH0 DUP2 DUP2 PUSH2 0x25B ADD MSTORE PUSH2 0x1AA5 ADD MSTORE PUSH2 0x478D PUSH0 RETURN INVALID PUSH1 0x80 PUSH1 0x40 MSTORE PUSH1 0x4 CALLDATASIZE LT PUSH2 0x122 JUMPI PUSH0 CALLDATALOAD PUSH1 0xE0 SHR DUP1 PUSH4 0x66221734 GT PUSH2 0x9F JUMPI DUP1 PUSH4 0xA3964475 GT PUSH2 0x63 JUMPI DUP1 PUSH4 0xA3964475 EQ PUSH2 0x3CF JUMPI DUP1 PUSH4 0xA87FEDAE EQ PUSH2 0x3EE JUMPI DUP1 PUSH4 0xB90D36F9 EQ PUSH2 0x421 JUMPI DUP1 PUSH4 0xC9AF3F1C EQ PUSH2 0x454 JUMPI DUP1 PUSH4 0xD5E5C1C8 EQ PUSH2 0x473 JUMPI PUSH2 0x12B JUMP JUMPDEST DUP1 PUSH4 0x66221734 EQ PUSH2 0x30C JUMPI DUP1 PUSH4 0x6F2DE70E EQ PUSH2 0x33F JUMPI DUP1 PUSH4 0x75AF3217 EQ PUSH2 0x35E JUMPI DUP1 PUSH4 0x9D23C4C7 EQ PUSH2 0x37D JUMPI DUP1 PUSH4 0x9F6D1D83 EQ PUSH2 0x3B0 JUMPI PUSH2 0x12B JUMP JUMPDEST DUP1 PUSH4 0x2B7AC3F3 GT PUSH2 0xE6 JUMPI DUP1 PUSH4 0x2B7AC3F3 EQ PUSH2 0x24A JUMPI DUP1 PUSH4 0x33DDFB9A EQ PUSH2 0x27D JUMPI DUP1 PUSH4 0x4780EAC1 EQ PUSH2 0x29C JUMPI DUP1 PUSH4 0x5E5F2610 EQ PUSH2 0x2CF JUMPI DUP1 PUSH4 0x65A345AC EQ PUSH2 0x2ED JUMPI PUSH2 0x12B JUMP JUMPDEST DUP1 PUSH4 0x1377DF44 EQ PUSH2 0x135 JUMPI DUP1 PUSH4 0x17ACE6B5 EQ PUSH2 0x161 JUMPI DUP1 PUSH4 0x21D71C8F EQ PUSH2 0x19F JUMPI DUP1 PUSH4 0x2630C12F EQ PUSH2 0x1BE JUMPI DUP1 PUSH4 0x2728BF2C EQ PUSH2 0x209 JUMPI PUSH2 0x12B JUMP JUMPDEST CALLDATASIZE PUSH2 0x12B JUMPI PUSH0 DUP1 REVERT JUMPDEST PUSH2 0x133 PUSH2 0x492 JUMP JUMPDEST STOP JUMPDEST PUSH2 0x148 PUSH2 0x143 CALLDATASIZE PUSH1 0x4 PUSH2 0x3462 JUMP JUMPDEST PUSH2 0x521 JUMP JUMPDEST PUSH1 0x40 MLOAD PUSH2 0x158 SWAP5 SWAP4 SWAP3 SWAP2 SWAP1 PUSH2 0x34ED JUMP JUMPDEST PUSH1 0x40 MLOAD DUP1 SWAP2 SUB SWAP1 RETURN JUMPDEST CALLVALUE DUP1 ISZERO PUSH2 0x16C JUMPI PUSH0 DUP1 REVERT JUMPDEST POP PUSH2 0x18F PUSH2 0x17B CALLDATASIZE PUSH1 0x4 PUSH2 0x351A JUMP JUMPDEST PUSH1 0x4 PUSH1 0x20 MSTORE PUSH0 SWAP1 DUP2 MSTORE PUSH1 0x40 SWAP1 KECCAK256 SLOAD PUSH1 0xFF AND DUP2 JUMP JUMPDEST PUSH1 0x40 MLOAD SWAP1 ISZERO ISZERO DUP2 MSTORE PUSH1 0x20 ADD PUSH2 0x158 JUMP JUMPDEST CALLVALUE DUP1 ISZERO PUSH2 0x1AA JUMPI PUSH0 DUP1 REVERT JUMPDEST POP PUSH2 0x133 PUSH2 0x1B9 CALLDATASIZE PUSH1 0x4 PUSH2 0x3555 JUMP JUMPDEST PUSH2 0xCD8 JUMP JUMPDEST CALLVALUE DUP1 ISZERO PUSH2 0x1C9 JUMPI PUSH0 DUP1 REVERT JUMPDEST POP PUSH2 0x1F1 PUSH32 0x0 DUP2 JUMP JUMPDEST PUSH1 0x40 MLOAD PUSH1 0x1 PUSH1 0x1 PUSH1 0xA0 SHL SUB SWAP1 SWAP2 AND DUP2 MSTORE PUSH1 0x20 ADD PUSH2 0x158 JUMP JUMPDEST CALLVALUE DUP1 ISZERO PUSH2 0x214 JUMPI PUSH0 DUP1 REVERT JUMPDEST POP PUSH2 0x23C PUSH32 0x0 DUP2 JUMP JUMPDEST PUSH1 0x40 MLOAD SWAP1 DUP2 MSTORE PUSH1 0x20 ADD PUSH2 0x158 JUMP JUMPDEST CALLVALUE DUP1 ISZERO PUSH2 0x255 JUMPI PUSH0 DUP1 REVERT JUMPDEST POP PUSH2 0x1F1 PUSH32 0x0 DUP2 JUMP JUMPDEST CALLVALUE DUP1 ISZERO PUSH2 0x288 JUMPI PUSH0 DUP1 REVERT JUMPDEST POP PUSH1 0x1 SLOAD PUSH2 0x1F1 SWAP1 PUSH1 0x1 PUSH1 0x1 PUSH1 0xA0 SHL SUB AND DUP2 JUMP JUMPDEST CALLVALUE DUP1 ISZERO PUSH2 0x2A7 JUMPI PUSH0 DUP1 REVERT JUMPDEST POP PUSH2 0x1F1 PUSH32 0x0 DUP2 JUMP JUMPDEST CALLVALUE DUP1 ISZERO PUSH2 0x2DA JUMPI PUSH0 DUP1 REVERT JUMPDEST POP PUSH0 SLOAD PUSH2 0x1F1 SWAP1 PUSH1 0x1 PUSH1 0x1 PUSH1 0xA0 SHL SUB AND DUP2 JUMP JUMPDEST CALLVALUE DUP1 ISZERO PUSH2 0x2F8 JUMPI PUSH0 DUP1 REVERT JUMPDEST POP PUSH2 0x133 PUSH2 0x307 CALLDATASIZE PUSH1 0x4 PUSH2 0x35D2 JUMP JUMPDEST PUSH2 0xFC1 JUMP JUMPDEST CALLVALUE DUP1 ISZERO PUSH2 0x317 JUMPI PUSH0 DUP1 REVERT JUMPDEST POP PUSH2 0x23C PUSH32 0x0 DUP2 JUMP JUMPDEST CALLVALUE DUP1 ISZERO PUSH2 0x34A JUMPI PUSH0 DUP1 REVERT JUMPDEST POP PUSH2 0x133 PUSH2 0x359 CALLDATASIZE PUSH1 0x4 PUSH2 0x35FC JUMP JUMPDEST PUSH2 0x119E JUMP JUMPDEST CALLVALUE DUP1 ISZERO PUSH2 0x369 JUMPI PUSH0 DUP1 REVERT JUMPDEST POP PUSH2 0x133 PUSH2 0x378 CALLDATASIZE PUSH1 0x4 PUSH2 0x35D2 JUMP JUMPDEST PUSH2 0x11F9 JUMP JUMPDEST CALLVALUE DUP1 ISZERO PUSH2 0x388 JUMPI PUSH0 DUP1 REVERT JUMPDEST POP PUSH2 0x1F1 PUSH32 0x0 DUP2 JUMP JUMPDEST CALLVALUE DUP1 ISZERO PUSH2 0x3BB JUMPI PUSH0 DUP1 REVERT JUMPDEST POP PUSH1 0x3 SLOAD PUSH2 0x1F1 SWAP1 PUSH1 0x1 PUSH1 0x1 PUSH1 0xA0 SHL SUB AND DUP2 JUMP JUMPDEST CALLVALUE DUP1 ISZERO PUSH2 0x3DA JUMPI PUSH0 DUP1 REVERT JUMPDEST POP PUSH2 0x133 PUSH2 0x3E9 CALLDATASIZE PUSH1 0x4 PUSH2 0x3AEC JUMP JUMPDEST PUSH2 0x123F JUMP JUMPDEST CALLVALUE DUP1 ISZERO PUSH2 0x3F9 JUMPI PUSH0 DUP1 REVERT JUMPDEST POP PUSH2 0x23C PUSH32 0x0 DUP2 JUMP JUMPDEST CALLVALUE DUP1 ISZERO PUSH2 0x42C JUMPI PUSH0 DUP1 REVERT JUMPDEST POP PUSH2 0x23C PUSH32 0x0 DUP2 JUMP JUMPDEST CALLVALUE DUP1 ISZERO PUSH2 0x45F JUMPI PUSH0 DUP1 REVERT JUMPDEST POP PUSH2 0x133 PUSH2 0x46E CALLDATASIZE PUSH1 0x4 PUSH2 0x3555 JUMP JUMPDEST PUSH2 0x1BE3 JUMP JUMPDEST CALLVALUE DUP1 ISZERO PUSH2 0x47E JUMPI PUSH0 DUP1 REVERT JUMPDEST POP PUSH1 0x2 SLOAD PUSH2 0x1F1 SWAP1 PUSH1 0x1 PUSH1 0x1 PUSH1 0xA0 SHL SUB AND DUP2 JUMP JUMPDEST CALLDATASIZE PUSH2 0x49B JUMPI CALLDATASIZE CALLDATASIZE RETURN JUMPDEST PUSH0 DUP1 JUMPDEST DUP1 CALLDATASIZE DUP3 LT PUSH2 0x4AC JUMPI POP PUSH2 0x505 JUMP JUMPDEST PUSH1 0x1 DUP1 DUP4 ADD SWAP3 PUSH1 0x3 NOT DUP2 ADD SWAP1 CALLDATALOAD XOR PUSH0 BYTE SWAP1 DUP2 PUSH2 0x4F5 JUMPI PUSH0 NOT DUP6 MSTORE PUSH1 0x2 DUP4 ADD SWAP4 CALLDATALOAD PUSH1 0x2 NOT DUP5 ADD XOR PUSH0 BYTE PUSH1 0x7F DUP1 DUP3 GT PUSH2 0x4E4 JUMPI DUP3 DUP3 ADD CODESIZE DUP9 CODECOPY JUMPDEST AND SWAP5 SWAP1 SWAP5 ADD SWAP1 SWAP4 ADD SWAP3 POP PUSH2 0x49E SWAP1 POP JUMP JUMPDEST DUP2 DUP6 MSTORE8 DUP1 DUP6 ADD SWAP5 POP POP POP POP PUSH2 0x49E JUMP JUMPDEST POP PUSH0 DUP1 DUP3 PUSH0 ADDRESS GAS DELEGATECALL SWAP1 POP RETURNDATASIZE PUSH0 DUP1 RETURNDATACOPY DUP1 PUSH2 0x51C JUMPI RETURNDATASIZE PUSH0 REVERT JUMPDEST POP RETURNDATASIZE PUSH0 RETURN JUMPDEST PUSH1 0x5 SLOAD PUSH0 SWAP1 PUSH1 0x60 SWAP1 DUP3 SWAP1 DUP2 SWAP1 PUSH1 0x1 PUSH1 0x1 PUSH1 0xA0 SHL SUB AND ISZERO PUSH2 0x57E JUMPI PUSH1 0x40 MLOAD PUSH3 0x461BCD PUSH1 0xE5 SHL DUP2 MSTORE PUSH1 0x20 PUSH1 0x4 DUP3 ADD MSTORE PUSH1 0x13 PUSH1 0x24 DUP3 ADD MSTORE PUSH19 0x18DBDB9D195E1D08185B1C9958591E481CD95D PUSH1 0x6A SHL PUSH1 0x44 DUP3 ADD MSTORE PUSH1 0x64 ADD JUMPDEST PUSH1 0x40 MLOAD DUP1 SWAP2 SUB SWAP1 REVERT JUMPDEST PUSH0 GAS PUSH1 0x40 DUP8 DUP2 ADD CALLDATALOAD PUSH1 0x8 SSTORE PUSH1 0x1 SLOAD SWAP1 MLOAD PUSH3 0x9316E9 PUSH1 0xE1 SHL DUP2 MSTORE DUP9 CALLDATALOAD PUSH1 0x4 DUP3 ADD MSTORE SWAP2 SWAP3 POP PUSH1 0x1 PUSH1 0x1 PUSH1 0xA0 SHL SUB AND SWAP1 PUSH4 0x1262DD2 SWAP1 PUSH1 0x24 ADD PUSH1 0x20 PUSH1 0x40 MLOAD DUP1 DUP4 SUB DUP2 DUP7 GAS STATICCALL ISZERO DUP1 ISZERO PUSH2 0x5CF JUMPI RETURNDATASIZE PUSH0 DUP1 RETURNDATACOPY RETURNDATASIZE PUSH0 REVERT JUMPDEST POP POP POP POP PUSH1 0x40 MLOAD RETURNDATASIZE PUSH1 0x1F NOT PUSH1 0x1F DUP3 ADD AND DUP3 ADD DUP1 PUSH1 0x40 MSTORE POP DUP2 ADD SWAP1 PUSH2 0x5F3 SWAP2 SWAP1 PUSH2 0x3B1D JUMP JUMPDEST PUSH1 0x5 DUP1 SLOAD PUSH1 0x1 PUSH1 0x1 PUSH1 0xA0 SHL SUB NOT AND PUSH1 0x1 PUSH1 0x1 PUSH1 0xA0 SHL SUB SWAP3 SWAP1 SWAP3 AND SWAP2 SWAP1 SWAP2 OR SWAP1 SSTORE PUSH2 0x61F PUSH2 0x3E9 DUP8 PUSH2 0x3B38 JUMP JUMPDEST PUSH1 0xC0 DUP7 ADD CALLDATALOAD PUSH0 SWAP1 DUP2 MSTORE PUSH1 0x4 PUSH1 0x20 MSTORE PUSH1 0x40 SWAP1 KECCAK256 DUP1 SLOAD PUSH1 0xFF NOT AND PUSH1 0x1 OR SWAP1 SSTORE PUSH2 0x64D PUSH2 0x648 DUP8 PUSH2 0x3B38 JUMP JUMPDEST PUSH2 0x1DDA JUMP JUMPDEST PUSH1 0x6 SLOAD SWAP2 SWAP7 POP SWAP5 POP PUSH1 0x1 PUSH1 0xA0 SHL SWAP1 DIV PUSH1 0xFF AND DUP1 ISZERO PUSH2 0x674 JUMPI POP PUSH1 0x6 SLOAD PUSH1 0x1 PUSH1 0xA8 SHL SWAP1 DIV PUSH1 0xFF AND JUMPDEST ISZERO PUSH2 0x6D7 JUMPI PUSH1 0x40 MLOAD PUSH3 0x461BCD PUSH1 0xE5 SHL DUP2 MSTORE PUSH1 0x20 PUSH1 0x4 DUP3 ADD MSTORE PUSH1 0x2D PUSH1 0x24 DUP3 ADD MSTORE PUSH32 0x63616E6E6F7420726567697374657220626F746820756E636C61696D65642066 PUSH1 0x44 DUP3 ADD MSTORE PUSH13 0x756E6420616E64207374617465 PUSH1 0x98 SHL PUSH1 0x64 DUP3 ADD MSTORE PUSH1 0x84 ADD PUSH2 0x575 JUMP JUMPDEST PUSH1 0x6 SLOAD PUSH1 0x1 PUSH1 0xA0 SHL SWAP1 DIV PUSH1 0xFF AND ISZERO PUSH2 0x86A JUMPI PUSH2 0x733 PUSH32 0x0 PUSH32 0x0 PUSH2 0x3B57 JUMP JUMPDEST CALLVALUE EQ PUSH2 0x78F JUMPI PUSH1 0x40 MLOAD PUSH3 0x461BCD PUSH1 0xE5 SHL DUP2 MSTORE PUSH1 0x20 PUSH1 0x4 DUP3 ADD MSTORE PUSH1 0x25 PUSH1 0x24 DUP3 ADD MSTORE PUSH32 0x696E636F7272656374204554482073656E7420666F7220756E636C61696D6564 PUSH1 0x44 DUP3 ADD MSTORE PUSH5 0x8199D5B99 PUSH1 0xDA SHL PUSH1 0x64 DUP3 ADD MSTORE PUSH1 0x84 ADD PUSH2 0x575 JUMP JUMPDEST PUSH2 0x7D9 PUSH32 0x0 PUSH32 0x0 PUSH2 0x3B57 JUMP JUMPDEST PUSH2 0x7E3 SWAP1 DUP5 PUSH2 0x3B6E JUMP JUMPDEST PUSH1 0x2 SLOAD SWAP1 SWAP4 POP PUSH1 0x1 PUSH1 0x1 PUSH1 0xA0 SHL SUB AND PUSH2 0x8FC PUSH2 0x83F PUSH32 0x0 PUSH32 0x0 PUSH2 0x3B57 JUMP JUMPDEST PUSH1 0x40 MLOAD DUP2 ISZERO SWAP1 SWAP3 MUL SWAP2 PUSH0 DUP2 DUP2 DUP2 DUP6 DUP9 DUP9 CALL SWAP4 POP POP POP POP ISZERO DUP1 ISZERO PUSH2 0x864 JUMPI RETURNDATASIZE PUSH0 DUP1 RETURNDATACOPY RETURNDATASIZE PUSH0 REVERT JUMPDEST POP PUSH2 0xA86 JUMP JUMPDEST PUSH1 0x6 SLOAD PUSH1 0x1 PUSH1 0xA8 SHL SWAP1 DIV PUSH1 0xFF AND ISZERO PUSH2 0x9D3 JUMPI PUSH2 0x8C6 PUSH32 0x0 PUSH32 0x0 PUSH2 0x3B57 JUMP JUMPDEST CALLVALUE EQ PUSH2 0x923 JUMPI PUSH1 0x40 MLOAD PUSH3 0x461BCD PUSH1 0xE5 SHL DUP2 MSTORE PUSH1 0x20 PUSH1 0x4 DUP3 ADD MSTORE PUSH1 0x26 PUSH1 0x24 DUP3 ADD MSTORE PUSH32 0x696E636F7272656374204554482073656E7420666F7220756E636C61696D6564 PUSH1 0x44 DUP3 ADD MSTORE PUSH6 0x207374617465 PUSH1 0xD0 SHL PUSH1 0x64 DUP3 ADD MSTORE PUSH1 0x84 ADD PUSH2 0x575 JUMP JUMPDEST PUSH2 0x96D PUSH32 0x0 PUSH32 0x0 PUSH2 0x3B57 JUMP JUMPDEST PUSH2 0x977 SWAP1 DUP5 PUSH2 0x3B6E JUMP JUMPDEST PUSH1 0x2 SLOAD SWAP1 SWAP4 POP PUSH1 0x1 PUSH1 0x1 PUSH1 0xA0 SHL SUB AND PUSH2 0x8FC PUSH2 0x83F PUSH32 0x0 PUSH32 0x0 PUSH2 0x3B57 JUMP JUMPDEST PUSH1 0x7 SLOAD ISZERO PUSH2 0xA5B JUMPI PUSH1 0x40 MLOAD PUSH3 0x461BCD PUSH1 0xE5 SHL DUP2 MSTORE PUSH1 0x20 PUSH1 0x4 DUP3 ADD MSTORE PUSH1 0x49 PUSH1 0x24 DUP3 ADD MSTORE PUSH32 0x72656769737465726564556E636C61696D4964206D757374206265207A65726F PUSH1 0x44 DUP3 ADD MSTORE PUSH32 0x206966206E6F20756E636C61696D65642066756E642F73746174652069732072 PUSH1 0x64 DUP3 ADD MSTORE PUSH9 0x1959DA5CDD195C9959 PUSH1 0xBA SHL PUSH1 0x84 DUP3 ADD MSTORE PUSH1 0xA4 ADD PUSH2 0x575 JUMP JUMPDEST PUSH1 0x40 MLOAD CALLER SWAP1 CALLVALUE DUP1 ISZERO PUSH2 0x8FC MUL SWAP2 PUSH0 DUP2 DUP2 DUP2 DUP6 DUP9 DUP9 CALL SWAP4 POP POP POP POP ISZERO DUP1 ISZERO PUSH2 0xA84 JUMPI RETURNDATASIZE PUSH0 DUP1 RETURNDATACOPY RETURNDATASIZE PUSH0 REVERT JUMPDEST POP JUMPDEST PUSH1 0x7 SLOAD SWAP2 POP PUSH2 0xD6D8 PUSH0 DUP2 GAS PUSH2 0xA9B SWAP1 DUP6 PUSH2 0x3B81 JUMP JUMPDEST PUSH2 0xAA5 SWAP2 SWAP1 PUSH2 0x3B6E JUMP JUMPDEST SWAP1 POP PUSH2 0xAB6 PUSH2 0x180 DUP10 ADD CALLDATALOAD DUP3 PUSH2 0x3B57 JUMP JUMPDEST PUSH2 0xAC0 SWAP1 DUP7 PUSH2 0x3B6E JUMP JUMPDEST SWAP5 POP PUSH0 PUSH2 0xB0D PUSH2 0xAD4 PUSH2 0x160 DUP12 ADD DUP12 PUSH2 0x3B94 JUMP JUMPDEST DUP1 DUP1 PUSH1 0x1F ADD PUSH1 0x20 DUP1 SWAP2 DIV MUL PUSH1 0x20 ADD PUSH1 0x40 MLOAD SWAP1 DUP2 ADD PUSH1 0x40 MSTORE DUP1 SWAP4 SWAP3 SWAP2 SWAP1 DUP2 DUP2 MSTORE PUSH1 0x20 ADD DUP4 DUP4 DUP1 DUP3 DUP5 CALLDATACOPY PUSH0 SWAP3 ADD SWAP2 SWAP1 SWAP2 MSTORE POP PUSH2 0x2D5E SWAP3 POP POP POP JUMP JUMPDEST SWAP1 POP PUSH0 PUSH8 0xDE0B6B3A7640000 PUSH2 0xB23 DUP4 DUP10 PUSH2 0x3B57 JUMP JUMPDEST PUSH2 0xB2D SWAP2 SWAP1 PUSH2 0x3BDD JUMP JUMPDEST SWAP1 POP DUP1 ISZERO PUSH2 0xC36 JUMPI PUSH0 PUSH1 0x1 PUSH1 0x1 PUSH1 0xA0 SHL SUB PUSH32 0x0 AND PUSH4 0xC4091236 PUSH2 0xB73 PUSH2 0x160 DUP15 ADD DUP15 PUSH2 0x3B94 JUMP JUMPDEST PUSH1 0x40 MLOAD DUP4 PUSH4 0xFFFFFFFF AND PUSH1 0xE0 SHL DUP2 MSTORE PUSH1 0x4 ADD PUSH2 0xB90 SWAP3 SWAP2 SWAP1 PUSH2 0x3C24 JUMP JUMPDEST PUSH1 0x20 PUSH1 0x40 MLOAD DUP1 DUP4 SUB DUP2 DUP7 GAS STATICCALL ISZERO DUP1 ISZERO PUSH2 0xBAB JUMPI RETURNDATASIZE PUSH0 DUP1 RETURNDATACOPY RETURNDATASIZE PUSH0 REVERT JUMPDEST POP POP POP POP PUSH1 0x40 MLOAD RETURNDATASIZE PUSH1 0x1F NOT PUSH1 0x1F DUP3 ADD AND DUP3 ADD DUP1 PUSH1 0x40 MSTORE POP DUP2 ADD SWAP1 PUSH2 0xBCF SWAP2 SWAP1 PUSH2 0x3B1D JUMP JUMPDEST PUSH1 0x5 SLOAD SWAP1 SWAP2 POP PUSH0 SWAP1 DUP2 SWAP1 PUSH2 0xBEE SWAP1 PUSH1 0x1 PUSH1 0x1 PUSH1 0xA0 SHL SUB AND CALLER DUP6 DUP8 PUSH2 0x2F5A JUMP JUMPDEST SWAP2 POP SWAP2 POP DUP2 DUP2 PUSH1 0x40 MLOAD PUSH1 0x20 ADD PUSH2 0xC04 SWAP2 SWAP1 PUSH2 0x3C37 JUMP JUMPDEST PUSH1 0x40 MLOAD PUSH1 0x20 DUP2 DUP4 SUB SUB DUP2 MSTORE SWAP1 PUSH1 0x40 MSTORE SWAP1 PUSH2 0xC31 JUMPI PUSH1 0x40 MLOAD PUSH3 0x461BCD PUSH1 0xE5 SHL DUP2 MSTORE PUSH1 0x4 ADD PUSH2 0x575 SWAP2 SWAP1 PUSH2 0x3C7B JUMP JUMPDEST POP POP POP POP JUMPDEST PUSH1 0x5 DUP1 SLOAD PUSH1 0x1 PUSH1 0x1 PUSH1 0xA0 SHL SUB NOT AND SWAP1 SSTORE PUSH0 PUSH1 0x8 DUP2 SWAP1 SSTORE PUSH1 0x6 DUP1 SLOAD PUSH1 0x1 PUSH1 0x1 PUSH1 0xB0 SHL SUB NOT AND SWAP1 SSTORE PUSH1 0x7 DUP2 SWAP1 SSTORE PUSH2 0xC6D SWAP1 PUSH1 0x9 SWAP1 PUSH2 0x3418 JUMP JUMPDEST DUP10 PUSH1 0xC0 ADD CALLDATALOAD DUP7 DUP11 ISZERO ISZERO PUSH32 0xB5144465DC165F0FDB939CD27DBF83AAC1199241A737482D2FC25624328C7A18 DUP14 PUSH0 ADD CALLDATALOAD DUP15 PUSH1 0x40 ADD CALLDATALOAD DUP16 PUSH1 0x80 ADD PUSH1 0x20 DUP2 ADD SWAP1 PUSH2 0xCB3 SWAP2 SWAP1 PUSH2 0x3C8D JUMP JUMPDEST DUP15 PUSH1 0x40 MLOAD PUSH2 0xCC4 SWAP5 SWAP4 SWAP3 SWAP2 SWAP1 PUSH2 0x3CA8 JUMP JUMPDEST PUSH1 0x40 MLOAD DUP1 SWAP2 SUB SWAP1 LOG4 POP POP POP POP POP SWAP2 SWAP4 POP SWAP2 SWAP4 JUMP JUMPDEST PUSH1 0x6 SLOAD PUSH1 0x1 PUSH1 0x1 PUSH1 0xA0 SHL SUB AND CALLER EQ PUSH2 0xD02 JUMPI PUSH1 0x40 MLOAD PUSH3 0x461BCD PUSH1 0xE5 SHL DUP2 MSTORE PUSH1 0x4 ADD PUSH2 0x575 SWAP1 PUSH2 0x3CDE JUMP JUMPDEST PUSH1 0x1 PUSH1 0x1 PUSH1 0xA0 SHL SUB DUP4 AND ADDRESS EQ DUP1 ISZERO SWAP1 PUSH2 0xD29 JUMPI POP PUSH1 0x2 SLOAD PUSH1 0x1 PUSH1 0x1 PUSH1 0xA0 SHL SUB DUP5 DUP2 AND SWAP2 AND EQ ISZERO JUMPDEST DUP1 ISZERO PUSH2 0xD43 JUMPI POP PUSH1 0x1 SLOAD PUSH1 0x1 PUSH1 0x1 PUSH1 0xA0 SHL SUB DUP5 DUP2 AND SWAP2 AND EQ ISZERO JUMPDEST DUP1 ISZERO PUSH2 0xD5C JUMPI POP PUSH0 SLOAD PUSH1 0x1 PUSH1 0x1 PUSH1 0xA0 SHL SUB DUP5 DUP2 AND SWAP2 AND EQ ISZERO JUMPDEST DUP1 ISZERO PUSH2 0xD76 JUMPI POP PUSH1 0x3 SLOAD PUSH1 0x1 PUSH1 0x1 PUSH1 0xA0 SHL SUB DUP5 DUP2 AND SWAP2 AND EQ ISZERO JUMPDEST PUSH2 0xDCC JUMPI PUSH1 0x40 MLOAD PUSH3 0x461BCD PUSH1 0xE5 SHL DUP2 MSTORE PUSH1 0x20 PUSH1 0x4 DUP3 ADD MSTORE PUSH1 0x21 PUSH1 0x24 DUP3 ADD MSTORE PUSH32 0x7461726765742063616E6E6F7420626520636F7265206F722068616E646C6572 PUSH1 0x44 DUP3 ADD MSTORE PUSH1 0x73 PUSH1 0xF8 SHL PUSH1 0x64 DUP3 ADD MSTORE PUSH1 0x84 ADD PUSH2 0x575 JUMP JUMPDEST PUSH1 0x1 PUSH1 0x1 PUSH1 0xA0 SHL SUB DUP4 AND EXTCODESIZE PUSH2 0xE23 JUMPI PUSH1 0x40 MLOAD PUSH3 0x461BCD PUSH1 0xE5 SHL DUP2 MSTORE PUSH1 0x20 PUSH1 0x4 DUP3 ADD MSTORE PUSH1 0x18 PUSH1 0x24 DUP3 ADD MSTORE PUSH32 0x746172676574206973206E6F74206120636F6E74726163740000000000000000 PUSH1 0x44 DUP3 ADD MSTORE PUSH1 0x64 ADD PUSH2 0x575 JUMP JUMPDEST PUSH1 0x5 SLOAD PUSH1 0x1 PUSH1 0x1 PUSH1 0xA0 SHL SUB SWAP1 DUP2 AND SWAP1 DUP5 AND SUB PUSH2 0xE81 JUMPI PUSH1 0x40 MLOAD PUSH3 0x461BCD PUSH1 0xE5 SHL DUP2 MSTORE PUSH1 0x20 PUSH1 0x4 DUP3 ADD MSTORE PUSH1 0x17 PUSH1 0x24 DUP3 ADD MSTORE PUSH32 0x7461726765742063616E6E6F742062652077616C6C6574000000000000000000 PUSH1 0x44 DUP3 ADD MSTORE PUSH1 0x64 ADD PUSH2 0x575 JUMP JUMPDEST PUSH1 0x40 MLOAD PUSH4 0x59CCEF27 PUSH1 0xE1 SHL DUP2 MSTORE PUSH1 0x1 PUSH1 0x1 PUSH1 0xA0 SHL SUB DUP5 DUP2 AND PUSH1 0x4 DUP4 ADD MSTORE PUSH32 0x0 AND SWAP1 PUSH4 0xB399DE4E SWAP1 PUSH1 0x24 ADD PUSH0 PUSH1 0x40 MLOAD DUP1 DUP4 SUB DUP2 DUP7 GAS STATICCALL ISZERO DUP1 ISZERO PUSH2 0xEE4 JUMPI RETURNDATASIZE PUSH0 DUP1 RETURNDATACOPY RETURNDATASIZE PUSH0 REVERT JUMPDEST POP POP POP POP PUSH1 0x40 MLOAD RETURNDATASIZE PUSH0 DUP3 RETURNDATACOPY PUSH1 0x1F RETURNDATASIZE SWAP1 DUP2 ADD PUSH1 0x1F NOT AND DUP3 ADD PUSH1 0x40 MSTORE PUSH2 0xF0B SWAP2 SWAP1 DUP2 ADD SWAP1 PUSH2 0x3D75 JUMP JUMPDEST MLOAD ISZERO PUSH2 0xF59 JUMPI PUSH1 0x40 MLOAD PUSH3 0x461BCD PUSH1 0xE5 SHL DUP2 MSTORE PUSH1 0x20 PUSH1 0x4 DUP3 ADD MSTORE PUSH1 0x18 PUSH1 0x24 DUP3 ADD MSTORE PUSH32 0x7461726765742063616E6E6F74206265206120746F6B656E0000000000000000 PUSH1 0x44 DUP3 ADD MSTORE PUSH1 0x64 ADD PUSH2 0x575 JUMP JUMPDEST PUSH1 0x5 SLOAD PUSH1 0x40 MLOAD PUSH4 0x5B0E93FB PUSH1 0xE1 SHL DUP2 MSTORE PUSH1 0x1 PUSH1 0x1 PUSH1 0xA0 SHL SUB SWAP1 SWAP2 AND SWAP1 PUSH4 0xB61D27F6 SWAP1 PUSH2 0xF8F SWAP1 DUP7 SWAP1 PUSH0 SWAP1 DUP8 SWAP1 DUP8 SWAP1 PUSH1 0x4 ADD PUSH2 0x3DA6 JUMP JUMPDEST PUSH0 PUSH1 0x40 MLOAD DUP1 DUP4 SUB DUP2 PUSH0 DUP8 DUP1 EXTCODESIZE ISZERO DUP1 ISZERO PUSH2 0xFA6 JUMPI PUSH0 DUP1 REVERT JUMPDEST POP GAS CALL ISZERO DUP1 ISZERO PUSH2 0xFB8 JUMPI RETURNDATASIZE PUSH0 DUP1 RETURNDATACOPY RETURNDATASIZE PUSH0 REVERT JUMPDEST POP POP POP POP POP POP POP JUMP JUMPDEST PUSH1 0x6 SLOAD PUSH1 0x1 PUSH1 0x1 PUSH1 0xA0 SHL SUB AND CALLER EQ PUSH2 0xFEB JUMPI PUSH1 0x40 MLOAD PUSH3 0x461BCD PUSH1 0xE5 SHL DUP2 MSTORE PUSH1 0x4 ADD PUSH2 0x575 SWAP1 PUSH2 0x3CDE JUMP JUMPDEST PUSH0 JUMPDEST PUSH1 0x9 SLOAD DUP2 LT ISZERO PUSH2 0x1151 JUMPI DUP3 PUSH1 0x1 PUSH1 0x1 PUSH1 0xA0 SHL SUB AND PUSH1 0x5 PUSH1 0x4 ADD DUP3 DUP2 SLOAD DUP2 LT PUSH2 0x1017 JUMPI PUSH2 0x1017 PUSH2 0x3DCD JUMP JUMPDEST PUSH0 SWAP2 DUP3 MSTORE PUSH1 0x20 SWAP1 SWAP2 KECCAK256 PUSH1 0x2 SWAP1 SWAP2 MUL ADD SLOAD PUSH1 0x1 PUSH1 0x1 PUSH1 0xA0 SHL SUB AND SUB PUSH2 0x1149 JUMPI DUP2 PUSH1 0x5 PUSH1 0x4 ADD DUP3 DUP2 SLOAD DUP2 LT PUSH2 0x104C JUMPI PUSH2 0x104C PUSH2 0x3DCD JUMP JUMPDEST SWAP1 PUSH0 MSTORE PUSH1 0x20 PUSH0 KECCAK256 SWAP1 PUSH1 0x2 MUL ADD PUSH1 0x1 ADD SLOAD LT ISZERO PUSH2 0x10A3 JUMPI PUSH1 0x40 MLOAD PUSH3 0x461BCD PUSH1 0xE5 SHL DUP2 MSTORE PUSH1 0x20 PUSH1 0x4 DUP3 ADD MSTORE PUSH1 0x16 PUSH1 0x24 DUP3 ADD MSTORE PUSH22 0x696E73756666696369656E7420616C6C6F77616E6365 PUSH1 0x50 SHL PUSH1 0x44 DUP3 ADD MSTORE PUSH1 0x64 ADD PUSH2 0x575 JUMP JUMPDEST DUP2 PUSH1 0x5 PUSH1 0x4 ADD DUP3 DUP2 SLOAD DUP2 LT PUSH2 0x10BA JUMPI PUSH2 0x10BA PUSH2 0x3DCD JUMP JUMPDEST SWAP1 PUSH0 MSTORE PUSH1 0x20 PUSH0 KECCAK256 SWAP1 PUSH1 0x2 MUL ADD PUSH1 0x1 ADD PUSH0 DUP3 DUP3 SLOAD PUSH2 0x10D7 SWAP2 SWAP1 PUSH2 0x3B81 JUMP JUMPDEST SWAP1 SWAP2 SSTORE POP POP PUSH1 0x5 SLOAD PUSH1 0x6 SLOAD PUSH0 SWAP2 DUP3 SWAP2 PUSH2 0x10FE SWAP2 PUSH1 0x1 PUSH1 0x1 PUSH1 0xA0 SHL SUB SWAP1 DUP2 AND SWAP2 AND DUP8 DUP8 PUSH2 0x2F5A JUMP JUMPDEST SWAP2 POP SWAP2 POP DUP2 DUP2 PUSH1 0x40 MLOAD PUSH1 0x20 ADD PUSH2 0x1114 SWAP2 SWAP1 PUSH2 0x3DE1 JUMP JUMPDEST PUSH1 0x40 MLOAD PUSH1 0x20 DUP2 DUP4 SUB SUB DUP2 MSTORE SWAP1 PUSH1 0x40 MSTORE SWAP1 PUSH2 0x1141 JUMPI PUSH1 0x40 MLOAD PUSH3 0x461BCD PUSH1 0xE5 SHL DUP2 MSTORE PUSH1 0x4 ADD PUSH2 0x575 SWAP2 SWAP1 PUSH2 0x3C7B JUMP JUMPDEST POP POP POP POP POP POP JUMP JUMPDEST PUSH1 0x1 ADD PUSH2 0xFED JUMP JUMPDEST POP PUSH1 0x40 MLOAD PUSH3 0x461BCD PUSH1 0xE5 SHL DUP2 MSTORE PUSH1 0x20 PUSH1 0x4 DUP3 ADD DUP2 SWAP1 MSTORE PUSH1 0x24 DUP3 ADD MSTORE PUSH32 0x6E6F20616C6C6F77616E636520666F722072657175657374656420746F6B656E PUSH1 0x44 DUP3 ADD MSTORE PUSH1 0x64 ADD PUSH2 0x575 JUMP JUMPDEST POP POP JUMP JUMPDEST PUSH1 0x3 SLOAD PUSH1 0x40 MLOAD PUSH4 0xF884630B PUSH1 0xE0 SHL DUP2 MSTORE PUSH1 0x1 PUSH1 0x1 PUSH1 0xA0 SHL SUB SWAP1 SWAP2 AND SWAP1 PUSH4 0xF884630B SWAP1 PUSH2 0x11D0 SWAP1 DUP6 SWAP1 DUP6 SWAP1 PUSH1 0x4 ADD PUSH2 0x3E1E JUMP JUMPDEST PUSH0 PUSH1 0x40 MLOAD DUP1 DUP4 SUB DUP2 PUSH0 DUP8 DUP1 EXTCODESIZE ISZERO DUP1 ISZERO PUSH2 0x11E7 JUMPI PUSH0 DUP1 REVERT JUMPDEST POP GAS CALL ISZERO DUP1 ISZERO PUSH2 0x1141 JUMPI RETURNDATASIZE PUSH0 DUP1 RETURNDATACOPY RETURNDATASIZE PUSH0 REVERT JUMPDEST PUSH1 0x6 SLOAD PUSH1 0x1 PUSH1 0x1 PUSH1 0xA0 SHL SUB AND CALLER EQ PUSH2 0x1223 JUMPI PUSH1 0x40 MLOAD PUSH3 0x461BCD PUSH1 0xE5 SHL DUP2 MSTORE PUSH1 0x4 ADD PUSH2 0x575 SWAP1 PUSH2 0x3CDE JUMP JUMPDEST PUSH1 0x5 SLOAD PUSH2 0x119A SWAP1 PUSH1 0x1 PUSH1 0x1 PUSH1 0xA0 SHL SUB DUP5 DUP2 AND SWAP2 CALLER SWAP2 AND DUP5 PUSH2 0x31AD JUMP JUMPDEST PUSH1 0x1 SLOAD DUP2 MLOAD PUSH1 0x40 MLOAD PUSH4 0x5D2C8D1B PUSH1 0xE1 SHL DUP2 MSTORE PUSH1 0x4 DUP2 ADD SWAP2 SWAP1 SWAP2 MSTORE PUSH0 SWAP2 PUSH1 0x1 PUSH1 0x1 PUSH1 0xA0 SHL SUB AND SWAP1 PUSH4 0x6B0F047D SWAP1 DUP3 SWAP1 PUSH4 0xBA591A36 SWAP1 PUSH1 0x24 ADD PUSH1 0x20 PUSH1 0x40 MLOAD DUP1 DUP4 SUB DUP2 DUP7 GAS STATICCALL ISZERO DUP1 ISZERO PUSH2 0x1291 JUMPI RETURNDATASIZE PUSH0 DUP1 RETURNDATACOPY RETURNDATASIZE PUSH0 REVERT JUMPDEST POP POP POP POP PUSH1 0x40 MLOAD RETURNDATASIZE PUSH1 0x1F NOT PUSH1 0x1F DUP3 ADD AND DUP3 ADD DUP1 PUSH1 0x40 MSTORE POP DUP2 ADD SWAP1 PUSH2 0x12B5 SWAP2 SWAP1 PUSH2 0x3EB5 JUMP JUMPDEST PUSH1 0x40 MLOAD DUP3 PUSH4 0xFFFFFFFF AND PUSH1 0xE0 SHL DUP2 MSTORE PUSH1 0x4 ADD PUSH2 0x12D3 SWAP2 DUP2 MSTORE PUSH1 0x20 ADD SWAP1 JUMP JUMPDEST PUSH1 0x60 PUSH1 0x40 MLOAD DUP1 DUP4 SUB DUP2 DUP7 GAS STATICCALL ISZERO DUP1 ISZERO PUSH2 0x12EE JUMPI RETURNDATASIZE PUSH0 DUP1 RETURNDATACOPY RETURNDATASIZE PUSH0 REVERT JUMPDEST POP POP POP POP PUSH1 0x40 MLOAD RETURNDATASIZE PUSH1 0x1F NOT PUSH1 0x1F DUP3 ADD AND DUP3 ADD DUP1 PUSH1 0x40 MSTORE POP DUP2 ADD SWAP1 PUSH2 0x1312 SWAP2 SWAP1 PUSH2 0x3ECC JUMP JUMPDEST DUP1 MLOAD SWAP1 SWAP2 POP PUSH1 0x1 PUSH1 0x1 PUSH1 0xA0 SHL SUB AND CALLER EQ PUSH2 0x1360 JUMPI PUSH1 0x40 MLOAD PUSH3 0x461BCD PUSH1 0xE5 SHL DUP2 MSTORE PUSH1 0x20 PUSH1 0x4 DUP3 ADD MSTORE PUSH1 0xF PUSH1 0x24 DUP3 ADD MSTORE PUSH15 0x34B73B30B634B2103932B630BCB2B9 PUSH1 0x89 SHL PUSH1 0x44 DUP3 ADD MSTORE PUSH1 0x64 ADD PUSH2 0x575 JUMP JUMPDEST DUP1 PUSH1 0x20 ADD MLOAD PUSH2 0x13B1 JUMPI PUSH1 0x40 MLOAD PUSH3 0x461BCD PUSH1 0xE5 SHL DUP2 MSTORE PUSH1 0x20 PUSH1 0x4 DUP3 ADD MSTORE PUSH1 0x17 PUSH1 0x24 DUP3 ADD MSTORE PUSH32 0x6163636F756E74206E6F7420696E697469616C697A6564000000000000000000 PUSH1 0x44 DUP3 ADD MSTORE PUSH1 0x64 ADD PUSH2 0x575 JUMP JUMPDEST PUSH1 0x40 DUP2 ADD MLOAD PUSH2 0x13F8 JUMPI PUSH1 0x40 MLOAD PUSH3 0x461BCD PUSH1 0xE5 SHL DUP2 MSTORE PUSH1 0x20 PUSH1 0x4 DUP3 ADD MSTORE PUSH1 0x13 PUSH1 0x24 DUP3 ADD MSTORE PUSH19 0x1DD85B1B195D081CD85B1D081B9BDD081CD95D PUSH1 0x6A SHL PUSH1 0x44 DUP3 ADD MSTORE PUSH1 0x64 ADD PUSH2 0x575 JUMP JUMPDEST TIMESTAMP PUSH32 0x0 DUP4 PUSH2 0x120 ADD MLOAD PUSH2 0x142A SWAP2 SWAP1 PUSH2 0x3B6E JUMP JUMPDEST GT PUSH2 0x1467 JUMPI PUSH1 0x40 MLOAD PUSH3 0x461BCD PUSH1 0xE5 SHL DUP2 MSTORE PUSH1 0x20 PUSH1 0x4 DUP3 ADD MSTORE PUSH1 0xD PUSH1 0x24 DUP3 ADD MSTORE PUSH13 0x195B585A5B08195E1C1A5C9959 PUSH1 0x9A SHL PUSH1 0x44 DUP3 ADD MSTORE PUSH1 0x64 ADD PUSH2 0x575 JUMP JUMPDEST PUSH0 DUP1 SLOAD PUSH1 0x40 MLOAD PUSH4 0xFD58569 PUSH1 0xE2 SHL DUP2 MSTORE CALLER PUSH1 0x4 DUP3 ADD MSTORE PUSH1 0x1 PUSH1 0x1 PUSH1 0xA0 SHL SUB SWAP1 SWAP2 AND SWAP1 PUSH4 0x3F5615A4 SWAP1 PUSH1 0x24 ADD PUSH1 0x20 PUSH1 0x40 MLOAD DUP1 DUP4 SUB DUP2 DUP7 GAS STATICCALL ISZERO DUP1 ISZERO PUSH2 0x14AD JUMPI RETURNDATASIZE PUSH0 DUP1 RETURNDATACOPY RETURNDATASIZE PUSH0 REVERT JUMPDEST POP POP POP POP PUSH1 0x40 MLOAD RETURNDATASIZE PUSH1 0x1F NOT PUSH1 0x1F DUP3 ADD AND DUP3 ADD DUP1 PUSH1 0x40 MSTORE POP DUP2 ADD SWAP1 PUSH2 0x14D1 SWAP2 SWAP1 PUSH2 0x3EB5 JUMP JUMPDEST SUB PUSH2 0x1517 JUMPI PUSH1 0x40 MLOAD PUSH3 0x461BCD PUSH1 0xE5 SHL DUP2 MSTORE PUSH1 0x20 PUSH1 0x4 DUP3 ADD MSTORE PUSH1 0x16 PUSH1 0x24 DUP3 ADD MSTORE PUSH22 0x1C995B185E595C881B9BDD081C9959DA5CDD195C9959 PUSH1 0x52 SHL PUSH1 0x44 DUP3 ADD MSTORE PUSH1 0x64 ADD PUSH2 0x575 JUMP JUMPDEST DUP2 PUSH1 0xA0 ADD MLOAD MLOAD PUSH0 SUB PUSH2 0x156B JUMPI PUSH1 0x40 MLOAD PUSH3 0x461BCD PUSH1 0xE5 SHL DUP2 MSTORE PUSH1 0x20 PUSH1 0x4 DUP3 ADD MSTORE PUSH1 0x17 PUSH1 0x24 DUP3 ADD MSTORE PUSH32 0x636F6D6D616E642063616E6E6F7420626520656D707479000000000000000000 PUSH1 0x44 DUP3 ADD MSTORE PUSH1 0x64 ADD PUSH2 0x575 JUMP JUMPDEST PUSH2 0x1579 DUP3 PUSH2 0x160 ADD MLOAD PUSH2 0x2D5E JUMP JUMPDEST PUSH0 SUB PUSH2 0x15BF JUMPI PUSH1 0x40 MLOAD PUSH3 0x461BCD PUSH1 0xE5 SHL DUP2 MSTORE PUSH1 0x20 PUSH1 0x4 DUP3 ADD MSTORE PUSH1 0x15 PUSH1 0x24 DUP3 ADD MSTORE PUSH21 0x3AB739BAB83837B93A32B2103332B2903A37B5B2B7 PUSH1 0x59 SHL PUSH1 0x44 DUP3 ADD MSTORE PUSH1 0x64 ADD PUSH2 0x575 JUMP JUMPDEST PUSH32 0x0 DUP3 PUSH2 0x180 ADD MLOAD GT ISZERO PUSH2 0x162B JUMPI PUSH1 0x40 MLOAD PUSH3 0x461BCD PUSH1 0xE5 SHL DUP2 MSTORE PUSH1 0x20 PUSH1 0x4 DUP3 ADD MSTORE PUSH1 0x14 PUSH1 0x24 DUP3 ADD MSTORE PUSH20 0xCCCACA40E0CAE440CEC2E640E8DEDE40D0D2CED PUSH1 0x63 SHL PUSH1 0x44 DUP3 ADD MSTORE PUSH1 0x64 ADD PUSH2 0x575 JUMP JUMPDEST PUSH1 0xC0 DUP3 ADD MLOAD PUSH0 SWAP1 DUP2 MSTORE PUSH1 0x4 PUSH1 0x20 MSTORE PUSH1 0x40 SWAP1 KECCAK256 SLOAD PUSH1 0xFF AND ISZERO PUSH2 0x1680 JUMPI PUSH1 0x40 MLOAD PUSH3 0x461BCD PUSH1 0xE5 SHL DUP2 MSTORE PUSH1 0x20 PUSH1 0x4 DUP3 ADD MSTORE PUSH1 0xF PUSH1 0x24 DUP3 ADD MSTORE PUSH15 0x195B585A5B081B9D5B1B1A599A5959 PUSH1 0x8A SHL PUSH1 0x44 DUP3 ADD MSTORE PUSH1 0x64 ADD PUSH2 0x575 JUMP JUMPDEST PUSH1 0x1 SLOAD PUSH1 0xC0 DUP4 ADD MLOAD PUSH1 0x40 MLOAD PUSH4 0x17ACE6B5 PUSH1 0xE0 SHL DUP2 MSTORE PUSH1 0x1 PUSH1 0x1 PUSH1 0xA0 SHL SUB SWAP1 SWAP3 AND SWAP2 PUSH4 0x17ACE6B5 SWAP2 PUSH2 0x16B7 SWAP2 PUSH1 0x4 ADD SWAP1 DUP2 MSTORE PUSH1 0x20 ADD SWAP1 JUMP JUMPDEST PUSH1 0x20 PUSH1 0x40 MLOAD DUP1 DUP4 SUB DUP2 DUP7 GAS STATICCALL ISZERO DUP1 ISZERO PUSH2 0x16D2 JUMPI RETURNDATASIZE PUSH0 DUP1 RETURNDATACOPY RETURNDATASIZE PUSH0 REVERT JUMPDEST POP POP POP POP PUSH1 0x40 MLOAD RETURNDATASIZE PUSH1 0x1F NOT PUSH1 0x1F DUP3 ADD AND DUP3 ADD DUP1 PUSH1 0x40 MSTORE POP DUP2 ADD SWAP1 PUSH2 0x16F6 SWAP2 SWAP1 PUSH2 0x3F34 JUMP JUMPDEST ISZERO PUSH2 0x1735 JUMPI PUSH1 0x40 MLOAD PUSH3 0x461BCD PUSH1 0xE5 SHL DUP2 MSTORE PUSH1 0x20 PUSH1 0x4 DUP3 ADD MSTORE PUSH1 0xF PUSH1 0x24 DUP3 ADD MSTORE PUSH15 0x195B585A5B081B9D5B1B1A599A5959 PUSH1 0x8A SHL PUSH1 0x44 DUP3 ADD MSTORE PUSH1 0x64 ADD PUSH2 0x575 JUMP JUMPDEST PUSH1 0x1 SLOAD PUSH1 0x40 DUP1 DUP4 ADD MLOAD PUSH1 0xE0 DUP6 ADD MLOAD PUSH2 0x100 DUP7 ADD MLOAD SWAP3 MLOAD PUSH4 0x6C212427 PUSH1 0xE1 SHL DUP2 MSTORE PUSH1 0x1 PUSH1 0x1 PUSH1 0xA0 SHL SUB SWAP1 SWAP5 AND SWAP4 PUSH4 0xD842484E SWAP4 PUSH2 0x1775 SWAP4 SWAP3 SWAP2 PUSH1 0x4 ADD PUSH2 0x3F4F JUMP JUMPDEST PUSH1 0x20 PUSH1 0x40 MLOAD DUP1 DUP4 SUB DUP2 DUP7 GAS STATICCALL ISZERO DUP1 ISZERO PUSH2 0x1790 JUMPI RETURNDATASIZE PUSH0 DUP1 RETURNDATACOPY RETURNDATASIZE PUSH0 REVERT JUMPDEST POP POP POP POP PUSH1 0x40 MLOAD RETURNDATASIZE PUSH1 0x1F NOT PUSH1 0x1F DUP3 ADD AND DUP3 ADD DUP1 PUSH1 0x40 MSTORE POP DUP2 ADD SWAP1 PUSH2 0x17B4 SWAP2 SWAP1 PUSH2 0x3F34 JUMP JUMPDEST PUSH2 0x1800 JUMPI PUSH1 0x40 MLOAD PUSH3 0x461BCD PUSH1 0xE5 SHL DUP2 MSTORE PUSH1 0x20 PUSH1 0x4 DUP3 ADD MSTORE PUSH1 0x17 PUSH1 0x24 DUP3 ADD MSTORE PUSH32 0x696E76616C696420444B494D207075626C6963206B6579000000000000000000 PUSH1 0x44 DUP3 ADD MSTORE PUSH1 0x64 ADD PUSH2 0x575 JUMP JUMPDEST DUP2 PUSH1 0x20 ADD MLOAD ISZERO PUSH2 0x18C6 JUMPI PUSH1 0x80 DUP3 ADD MLOAD PUSH1 0x1 PUSH1 0x1 PUSH1 0xA0 SHL SUB AND ISZERO PUSH2 0x1865 JUMPI PUSH1 0x40 MLOAD PUSH3 0x461BCD PUSH1 0xE5 SHL DUP2 MSTORE PUSH1 0x20 PUSH1 0x4 DUP3 ADD DUP2 SWAP1 MSTORE PUSH1 0x24 DUP3 ADD MSTORE PUSH32 0x63616E6E6F74206861766520626F746820726563697069656E74207479706573 PUSH1 0x44 DUP3 ADD MSTORE PUSH1 0x64 ADD PUSH2 0x575 JUMP JUMPDEST PUSH1 0x40 DUP3 ADD MLOAD PUSH2 0x18C1 JUMPI PUSH1 0x40 MLOAD PUSH3 0x461BCD PUSH1 0xE5 SHL DUP2 MSTORE PUSH1 0x20 PUSH1 0x4 DUP3 ADD MSTORE PUSH1 0x22 PUSH1 0x24 DUP3 ADD MSTORE PUSH32 0x726563697069656E74456D61696C41646472436F6D6D6974206E6F7420666F75 PUSH1 0x44 DUP3 ADD MSTORE PUSH2 0x1B99 PUSH1 0xF2 SHL PUSH1 0x64 DUP3 ADD MSTORE PUSH1 0x84 ADD PUSH2 0x575 JUMP JUMPDEST PUSH2 0x1924 JUMP JUMPDEST PUSH1 0x40 DUP3 ADD MLOAD ISZERO PUSH2 0x1924 JUMPI PUSH1 0x40 MLOAD PUSH3 0x461BCD PUSH1 0xE5 SHL DUP2 MSTORE PUSH1 0x20 PUSH1 0x4 DUP3 ADD MSTORE PUSH1 0x24 DUP1 DUP3 ADD MSTORE PUSH32 0x726563697069656E74456D61696C41646472436F6D6D6974206E6F7420616C6C PUSH1 0x44 DUP3 ADD MSTORE PUSH4 0x1BDDD959 PUSH1 0xE2 SHL PUSH1 0x64 DUP3 ADD MSTORE PUSH1 0x84 ADD PUSH2 0x575 JUMP JUMPDEST PUSH1 0x1 SLOAD PUSH1 0x40 DUP1 DUP4 ADD MLOAD SWAP1 MLOAD PUSH4 0x2B3263C7 PUSH1 0xE1 SHL DUP2 MSTORE PUSH0 SWAP3 PUSH20 0x0 SWAP3 PUSH4 0x30A2CC12 SWAP3 DUP8 SWAP3 PUSH1 0x1 PUSH1 0x1 PUSH1 0xA0 SHL SUB AND SWAP2 PUSH4 0x5664C78E SWAP2 PUSH2 0x197A SWAP2 SWAP1 PUSH1 0x4 ADD SWAP1 DUP2 MSTORE PUSH1 0x20 ADD SWAP1 JUMP JUMPDEST PUSH1 0x20 PUSH1 0x40 MLOAD DUP1 DUP4 SUB DUP2 DUP7 GAS STATICCALL ISZERO DUP1 ISZERO PUSH2 0x1995 JUMPI RETURNDATASIZE PUSH0 DUP1 RETURNDATACOPY RETURNDATASIZE PUSH0 REVERT JUMPDEST POP POP POP POP PUSH1 0x40 MLOAD RETURNDATASIZE PUSH1 0x1F NOT PUSH1 0x1F DUP3 ADD AND DUP3 ADD DUP1 PUSH1 0x40 MSTORE POP DUP2 ADD SWAP1 PUSH2 0x19B9 SWAP2 SWAP1 PUSH2 0x3B1D JUMP JUMPDEST ADDRESS PUSH1 0x40 MLOAD DUP5 PUSH4 0xFFFFFFFF AND PUSH1 0xE0 SHL DUP2 MSTORE PUSH1 0x4 ADD PUSH2 0x19D8 SWAP4 SWAP3 SWAP2 SWAP1 PUSH2 0x4012 JUMP JUMPDEST PUSH0 PUSH1 0x40 MLOAD DUP1 DUP4 SUB DUP2 DUP7 GAS DELEGATECALL ISZERO DUP1 ISZERO PUSH2 0x19F2 JUMPI RETURNDATASIZE PUSH0 DUP1 RETURNDATACOPY RETURNDATASIZE PUSH0 REVERT JUMPDEST POP POP POP POP PUSH1 0x40 MLOAD RETURNDATASIZE PUSH0 DUP3 RETURNDATACOPY PUSH1 0x1F RETURNDATASIZE SWAP1 DUP2 ADD PUSH1 0x1F NOT AND DUP3 ADD PUSH1 0x40 MSTORE PUSH2 0x1A19 SWAP2 SWAP1 DUP2 ADD SWAP1 PUSH2 0x4218 JUMP JUMPDEST POP SWAP1 POP PUSH2 0x1A2B DUP2 DUP5 PUSH2 0x140 ADD MLOAD PUSH2 0x320D JUMP JUMPDEST DUP2 PUSH1 0x40 MLOAD PUSH1 0x20 ADD PUSH2 0x1A3C SWAP2 SWAP1 PUSH2 0x4266 JUMP JUMPDEST PUSH1 0x40 MLOAD PUSH1 0x20 DUP2 DUP4 SUB SUB DUP2 MSTORE SWAP1 PUSH1 0x40 MSTORE SWAP1 PUSH2 0x1A69 JUMPI PUSH1 0x40 MLOAD PUSH3 0x461BCD PUSH1 0xE5 SHL DUP2 MSTORE PUSH1 0x4 ADD PUSH2 0x575 SWAP2 SWAP1 PUSH2 0x3C7B JUMP JUMPDEST POP PUSH1 0xE0 DUP4 ADD MLOAD PUSH2 0x100 DUP5 ADD MLOAD PUSH2 0x120 DUP6 ADD MLOAD PUSH2 0x140 DUP7 ADD MLOAD PUSH1 0xC0 DUP8 ADD MLOAD PUSH0 SLOAD PUSH1 0x40 MLOAD PUSH4 0xFD58569 PUSH1 0xE2 SHL DUP2 MSTORE CALLER PUSH1 0x4 DUP3 ADD MSTORE PUSH1 0x1 PUSH1 0x1 PUSH1 0xA0 SHL SUB PUSH32 0x0 DUP2 AND SWAP8 PUSH4 0xB4FE5792 SWAP8 SWAP1 SWAP7 SWAP1 SWAP6 SWAP1 SWAP5 SWAP1 SWAP4 SWAP1 SWAP3 SWAP2 AND SWAP1 PUSH4 0x3F5615A4 SWAP1 PUSH1 0x24 ADD PUSH1 0x20 PUSH1 0x40 MLOAD DUP1 DUP4 SUB DUP2 DUP7 GAS STATICCALL ISZERO DUP1 ISZERO PUSH2 0x1AFE JUMPI RETURNDATASIZE PUSH0 DUP1 RETURNDATACOPY RETURNDATASIZE PUSH0 REVERT JUMPDEST POP POP POP POP PUSH1 0x40 MLOAD RETURNDATASIZE PUSH1 0x1F NOT PUSH1 0x1F DUP3 ADD AND DUP3 ADD DUP1 PUSH1 0x40 MSTORE POP DUP2 ADD SWAP1 PUSH2 0x1B22 SWAP2 SWAP1 PUSH2 0x3EB5 JUMP JUMPDEST DUP11 MLOAD PUSH1 0x20 DUP13 ADD MLOAD PUSH1 0x40 DUP1 DUP15 ADD MLOAD PUSH2 0x260 DUP16 ADD MLOAD SWAP2 MLOAD PUSH1 0x1 PUSH1 0x1 PUSH1 0xE0 SHL SUB NOT PUSH1 0xE0 DUP14 SWAP1 SHL AND DUP2 MSTORE PUSH2 0x1B5D SWAP11 SWAP10 SWAP9 SWAP8 SWAP7 SWAP6 SWAP5 SWAP4 SWAP3 SWAP1 PUSH1 0x4 ADD PUSH2 0x4298 JUMP JUMPDEST PUSH1 0x20 PUSH1 0x40 MLOAD DUP1 DUP4 SUB DUP2 DUP7 GAS STATICCALL ISZERO DUP1 ISZERO PUSH2 0x1B78 JUMPI RETURNDATASIZE PUSH0 DUP1 RETURNDATACOPY RETURNDATASIZE PUSH0 REVERT JUMPDEST POP POP POP POP PUSH1 0x40 MLOAD RETURNDATASIZE PUSH1 0x1F NOT PUSH1 0x1F DUP3 ADD AND DUP3 ADD DUP1 PUSH1 0x40 MSTORE POP DUP2 ADD SWAP1 PUSH2 0x1B9C SWAP2 SWAP1 PUSH2 0x3F34 JUMP JUMPDEST PUSH2 0x1BDE JUMPI PUSH1 0x40 MLOAD PUSH3 0x461BCD PUSH1 0xE5 SHL DUP2 MSTORE PUSH1 0x20 PUSH1 0x4 DUP3 ADD MSTORE PUSH1 0x13 PUSH1 0x24 DUP3 ADD MSTORE PUSH19 0x34B73B30B634B21032B6B0B4B610383937B7B3 PUSH1 0x69 SHL PUSH1 0x44 DUP3 ADD MSTORE PUSH1 0x64 ADD PUSH2 0x575 JUMP JUMPDEST POP POP POP JUMP JUMPDEST PUSH1 0x3 SLOAD PUSH1 0x40 MLOAD PUSH4 0xBC75F77 PUSH1 0xE2 SHL DUP2 MSTORE PUSH1 0x1 PUSH1 0x1 PUSH1 0xA0 SHL SUB DUP6 DUP2 AND PUSH1 0x4 DUP4 ADD MSTORE SWAP1 SWAP2 AND SWAP1 PUSH4 0x2F1D7DDC SWAP1 PUSH1 0x24 ADD PUSH1 0x20 PUSH1 0x40 MLOAD DUP1 DUP4 SUB DUP2 DUP7 GAS STATICCALL ISZERO DUP1 ISZERO PUSH2 0x1C2B JUMPI RETURNDATASIZE PUSH0 DUP1 RETURNDATACOPY RETURNDATASIZE PUSH0 REVERT JUMPDEST POP POP POP POP PUSH1 0x40 MLOAD RETURNDATASIZE PUSH1 0x1F NOT PUSH1 0x1F DUP3 ADD AND DUP3 ADD DUP1 PUSH1 0x40 MSTORE POP DUP2 ADD SWAP1 PUSH2 0x1C4F SWAP2 SWAP1 PUSH2 0x3EB5 JUMP JUMPDEST PUSH0 SUB PUSH2 0x1C91 JUMPI PUSH1 0x40 MLOAD PUSH3 0x461BCD PUSH1 0xE5 SHL DUP2 MSTORE PUSH1 0x20 PUSH1 0x4 DUP3 ADD MSTORE PUSH1 0x11 PUSH1 0x24 DUP3 ADD MSTORE PUSH17 0x34B73B30B634B21032BC3A32B739B4B7B7 PUSH1 0x79 SHL PUSH1 0x44 DUP3 ADD MSTORE PUSH1 0x64 ADD PUSH2 0x575 JUMP JUMPDEST PUSH1 0x6 SLOAD PUSH1 0x1 PUSH1 0x1 PUSH1 0xA0 SHL SUB AND CALLER EQ PUSH2 0x1CE2 JUMPI PUSH1 0x40 MLOAD PUSH3 0x461BCD PUSH1 0xE5 SHL DUP2 MSTORE PUSH1 0x20 PUSH1 0x4 DUP3 ADD MSTORE PUSH1 0x14 PUSH1 0x24 DUP3 ADD MSTORE PUSH20 0x31B0B63632B9103737BA1032BC3A32B739B4B7B7 PUSH1 0x61 SHL PUSH1 0x44 DUP3 ADD MSTORE PUSH1 0x64 ADD PUSH2 0x575 JUMP JUMPDEST PUSH1 0x6 SLOAD PUSH1 0x1 PUSH1 0xA8 SHL SWAP1 DIV PUSH1 0xFF AND ISZERO PUSH2 0x1D35 JUMPI PUSH1 0x40 MLOAD PUSH3 0x461BCD PUSH1 0xE5 SHL DUP2 MSTORE PUSH1 0x20 PUSH1 0x4 DUP3 ADD MSTORE PUSH1 0x16 PUSH1 0x24 DUP3 ADD MSTORE PUSH22 0x756E636C61696D656420737461746520657869737473 PUSH1 0x50 SHL PUSH1 0x44 DUP3 ADD MSTORE PUSH1 0x64 ADD PUSH2 0x575 JUMP JUMPDEST PUSH1 0x6 DUP1 SLOAD PUSH1 0x1 PUSH1 0xA8 SHL PUSH1 0xFF PUSH1 0xA8 SHL NOT DUP3 AND OR SWAP1 SWAP2 SSTORE PUSH1 0x2 SLOAD PUSH1 0x5 SLOAD PUSH1 0x8 SLOAD PUSH1 0x40 MLOAD PUSH4 0xDEF27DB7 PUSH1 0xE0 SHL DUP2 MSTORE PUSH1 0x1 PUSH1 0x1 PUSH1 0xA0 SHL SUB SWAP4 DUP5 AND SWAP5 PUSH4 0xDEF27DB7 SWAP5 PUSH2 0x1D92 SWAP5 DUP11 SWAP5 SWAP1 DUP3 AND SWAP4 SWAP1 SWAP3 DUP11 SWAP3 DUP11 SWAP3 SWAP2 DUP2 AND SWAP1 DUP8 AND EQ SWAP1 PUSH1 0x4 ADD PUSH2 0x4312 JUMP JUMPDEST PUSH1 0x20 PUSH1 0x40 MLOAD DUP1 DUP4 SUB DUP2 PUSH0 DUP8 GAS CALL ISZERO DUP1 ISZERO PUSH2 0x1DAE JUMPI RETURNDATASIZE PUSH0 DUP1 RETURNDATACOPY RETURNDATASIZE PUSH0 REVERT JUMPDEST POP POP POP POP PUSH1 0x40 MLOAD RETURNDATASIZE PUSH1 0x1F NOT PUSH1 0x1F DUP3 ADD AND DUP3 ADD DUP1 PUSH1 0x40 MSTORE POP DUP2 ADD SWAP1 PUSH2 0x1DD2 SWAP2 SWAP1 PUSH2 0x3EB5 JUMP JUMPDEST PUSH1 0x7 SSTORE POP POP POP JUMP JUMPDEST PUSH0 PUSH1 0x60 PUSH2 0x1E07 DUP4 PUSH1 0xA0 ADD MLOAD PUSH1 0x40 MLOAD DUP1 PUSH1 0x40 ADD PUSH1 0x40 MSTORE DUP1 PUSH1 0x4 DUP2 MSTORE PUSH1 0x20 ADD PUSH4 0x14D95B99 PUSH1 0xE2 SHL DUP2 MSTORE POP PUSH2 0x320D JUMP JUMPDEST ISZERO PUSH2 0x21A2 JUMPI PUSH2 0x220 DUP4 ADD MLOAD DUP1 MLOAD PUSH1 0x40 MLOAD PUSH4 0x6204891B PUSH1 0xE1 SHL DUP2 MSTORE PUSH0 SWAP2 PUSH1 0x1 PUSH1 0x1 PUSH1 0xA0 SHL SUB PUSH32 0x0 AND SWAP2 PUSH4 0xC4091236 SWAP2 PUSH2 0x1E60 SWAP2 PUSH1 0x4 ADD PUSH2 0x3C7B JUMP JUMPDEST PUSH1 0x20 PUSH1 0x40 MLOAD DUP1 DUP4 SUB DUP2 DUP7 GAS STATICCALL ISZERO DUP1 ISZERO PUSH2 0x1E7B JUMPI RETURNDATASIZE PUSH0 DUP1 RETURNDATACOPY RETURNDATASIZE PUSH0 REVERT JUMPDEST POP POP POP POP PUSH1 0x40 MLOAD RETURNDATASIZE PUSH1 0x1F NOT PUSH1 0x1F DUP3 ADD AND DUP3 ADD DUP1 PUSH1 0x40 MSTORE POP DUP2 ADD SWAP1 PUSH2 0x1E9F SWAP2 SWAP1 PUSH2 0x3B1D JUMP JUMPDEST SWAP1 POP DUP5 PUSH1 0x20 ADD MLOAD ISZERO PUSH2 0x1F88 JUMPI PUSH1 0x5 SLOAD PUSH1 0x2 SLOAD PUSH1 0x20 DUP5 ADD MLOAD PUSH2 0x1ECF SWAP3 PUSH1 0x1 PUSH1 0x1 PUSH1 0xA0 SHL SUB SWAP1 DUP2 AND SWAP3 AND SWAP1 DUP5 SWAP1 PUSH2 0x2F5A JUMP JUMPDEST SWAP1 SWAP5 POP SWAP3 POP DUP4 PUSH2 0x1EE0 JUMPI POP POP SWAP2 POP SWAP2 JUMP JUMPDEST PUSH1 0x6 DUP1 SLOAD PUSH1 0xFF PUSH1 0xA0 SHL NOT AND PUSH1 0x1 PUSH1 0xA0 SHL OR SWAP1 SSTORE PUSH1 0x2 SLOAD PUSH1 0x5 SLOAD PUSH1 0x40 DUP8 DUP2 ADD MLOAD PUSH1 0x20 DUP7 ADD MLOAD SWAP2 MLOAD PUSH4 0x1BAE92F7 PUSH1 0xE0 SHL DUP2 MSTORE PUSH1 0x1 PUSH1 0x1 PUSH1 0xA0 SHL SUB SWAP4 DUP5 AND PUSH1 0x4 DUP3 ADD MSTORE PUSH1 0x24 DUP2 ADD SWAP2 SWAP1 SWAP2 MSTORE DUP5 DUP4 AND PUSH1 0x44 DUP3 ADD MSTORE PUSH1 0x64 DUP2 ADD SWAP2 SWAP1 SWAP2 MSTORE SWAP2 AND SWAP1 PUSH4 0x1BAE92F7 SWAP1 PUSH1 0x84 ADD PUSH1 0x20 PUSH1 0x40 MLOAD DUP1 DUP4 SUB DUP2 PUSH0 DUP8 GAS CALL ISZERO DUP1 ISZERO PUSH2 0x1F60 JUMPI RETURNDATASIZE PUSH0 DUP1 RETURNDATACOPY RETURNDATASIZE PUSH0 REVERT JUMPDEST POP POP POP POP PUSH1 0x40 MLOAD RETURNDATASIZE PUSH1 0x1F NOT PUSH1 0x1F DUP3 ADD AND DUP3 ADD DUP1 PUSH1 0x40 MSTORE POP DUP2 ADD SWAP1 PUSH2 0x1F84 SWAP2 SWAP1 PUSH2 0x3EB5 JUMP JUMPDEST PUSH1 0x7 SSTORE JUMPDEST DUP5 PUSH1 0x20 ADD MLOAD PUSH2 0x219B JUMPI PUSH2 0x1FBE DUP6 PUSH2 0x220 ADD MLOAD PUSH0 ADD MLOAD PUSH1 0x40 MLOAD DUP1 PUSH1 0x40 ADD PUSH1 0x40 MSTORE DUP1 PUSH1 0x3 DUP2 MSTORE PUSH1 0x20 ADD PUSH3 0x8AA89 PUSH1 0xEB SHL DUP2 MSTORE POP PUSH2 0x320D JUMP JUMPDEST ISZERO PUSH2 0x2172 JUMPI PUSH1 0x5 SLOAD PUSH1 0x20 DUP4 DUP2 ADD MLOAD PUSH1 0x40 DUP1 MLOAD PUSH1 0x24 DUP1 DUP3 ADD SWAP4 SWAP1 SWAP4 MSTORE DUP2 MLOAD DUP1 DUP3 SUB SWAP1 SWAP4 ADD DUP4 MSTORE PUSH1 0x44 ADD DUP2 MSTORE SWAP2 DUP2 ADD DUP1 MLOAD PUSH1 0x1 PUSH1 0x1 PUSH1 0xE0 SHL SUB AND PUSH4 0x2E1A7D4D PUSH1 0xE0 SHL OR SWAP1 MSTORE SWAP1 MLOAD PUSH4 0x5B0E93FB PUSH1 0xE1 SHL DUP2 MSTORE PUSH1 0x1 PUSH1 0x1 PUSH1 0xA0 SHL SUB SWAP1 SWAP3 AND SWAP2 DUP3 SWAP2 PUSH4 0xB61D27F6 SWAP2 PUSH2 0x2052 SWAP2 PUSH32 0x0 SWAP2 PUSH0 SWAP2 SWAP1 PUSH1 0x4 ADD PUSH2 0x435A JUMP JUMPDEST PUSH0 PUSH1 0x40 MLOAD DUP1 DUP4 SUB DUP2 PUSH0 DUP8 DUP1 EXTCODESIZE ISZERO DUP1 ISZERO PUSH2 0x2069 JUMPI PUSH0 DUP1 REVERT JUMPDEST POP GAS CALL SWAP3 POP POP POP DUP1 ISZERO PUSH2 0x207A JUMPI POP PUSH1 0x1 JUMPDEST PUSH2 0x20F1 JUMPI PUSH2 0x2086 PUSH2 0x4389 JUMP JUMPDEST DUP1 PUSH4 0x8C379A0 SUB PUSH2 0x20AF JUMPI POP PUSH2 0x209A PUSH2 0x43A2 JUMP JUMPDEST DUP1 PUSH2 0x20A5 JUMPI POP PUSH2 0x20B1 JUMP JUMPDEST PUSH0 SWAP6 POP SWAP4 POP PUSH2 0x216C JUMP JUMPDEST POP JUMPDEST PUSH0 SWAP5 POP PUSH1 0x40 MLOAD DUP1 PUSH1 0x40 ADD PUSH1 0x40 MSTORE DUP1 PUSH1 0x1A DUP2 MSTORE PUSH1 0x20 ADD PUSH32 0x65727220636F6E76657274696E67205745544820746F20455448000000000000 DUP2 MSTORE POP SWAP4 POP PUSH2 0x216C JUMP JUMPDEST PUSH1 0x80 DUP7 ADD MLOAD PUSH1 0x20 DUP5 ADD MLOAD PUSH1 0x40 MLOAD PUSH4 0x5B0E93FB PUSH1 0xE1 SHL DUP2 MSTORE PUSH1 0x1 PUSH1 0x1 PUSH1 0xA0 SHL SUB SWAP3 DUP4 AND PUSH1 0x4 DUP3 ADD MSTORE PUSH1 0x24 DUP2 ADD SWAP2 SWAP1 SWAP2 MSTORE PUSH1 0x60 PUSH1 0x44 DUP3 ADD MSTORE PUSH0 PUSH1 0x64 DUP3 ADD MSTORE SWAP1 DUP3 AND SWAP1 PUSH4 0xB61D27F6 SWAP1 PUSH1 0x84 ADD PUSH0 PUSH1 0x40 MLOAD DUP1 DUP4 SUB DUP2 PUSH0 DUP8 DUP1 EXTCODESIZE ISZERO DUP1 ISZERO PUSH2 0x2151 JUMPI PUSH0 DUP1 REVERT JUMPDEST POP GAS CALL ISZERO DUP1 ISZERO PUSH2 0x2163 JUMPI RETURNDATASIZE PUSH0 DUP1 RETURNDATACOPY RETURNDATASIZE PUSH0 REVERT JUMPDEST POP POP POP POP PUSH1 0x1 SWAP5 POP JUMPDEST POP PUSH2 0x219B JUMP JUMPDEST PUSH1 0x5 SLOAD PUSH1 0x80 DUP7 ADD MLOAD PUSH1 0x20 DUP5 ADD MLOAD PUSH2 0x2195 SWAP3 PUSH1 0x1 PUSH1 0x1 PUSH1 0xA0 SHL SUB AND SWAP2 SWAP1 DUP5 SWAP1 PUSH2 0x2F5A JUMP JUMPDEST SWAP1 SWAP5 POP SWAP3 POP JUMPDEST POP POP SWAP2 POP SWAP2 JUMP JUMPDEST PUSH2 0x21CF DUP4 PUSH1 0xA0 ADD MLOAD PUSH1 0x40 MLOAD DUP1 PUSH1 0x40 ADD PUSH1 0x40 MSTORE DUP1 PUSH1 0x7 DUP2 MSTORE PUSH1 0x20 ADD PUSH7 0x45786563757465 PUSH1 0xC8 SHL DUP2 MSTORE POP PUSH2 0x320D JUMP JUMPDEST ISZERO PUSH2 0x22D6 JUMPI PUSH0 DUP1 PUSH0 DUP6 PUSH2 0x1A0 ADD MLOAD DUP1 PUSH1 0x20 ADD SWAP1 MLOAD DUP2 ADD SWAP1 PUSH2 0x21F0 SWAP2 SWAP1 PUSH2 0x442A JUMP JUMPDEST PUSH1 0x5 SLOAD PUSH1 0x40 MLOAD PUSH4 0x5B0E93FB PUSH1 0xE1 SHL DUP2 MSTORE SWAP4 SWAP7 POP SWAP2 SWAP5 POP SWAP3 POP PUSH1 0x1 PUSH1 0x1 PUSH1 0xA0 SHL SUB AND SWAP1 PUSH4 0xB61D27F6 SWAP1 PUSH2 0x222A SWAP1 DUP7 SWAP1 DUP7 SWAP1 DUP7 SWAP1 PUSH1 0x4 ADD PUSH2 0x435A JUMP JUMPDEST PUSH0 PUSH1 0x40 MLOAD DUP1 DUP4 SUB DUP2 PUSH0 DUP8 DUP1 EXTCODESIZE ISZERO DUP1 ISZERO PUSH2 0x2241 JUMPI PUSH0 DUP1 REVERT JUMPDEST POP GAS CALL SWAP3 POP POP POP DUP1 ISZERO PUSH2 0x2252 JUMPI POP PUSH1 0x1 JUMPDEST PUSH2 0x22C9 JUMPI PUSH2 0x225E PUSH2 0x4389 JUMP JUMPDEST DUP1 PUSH4 0x8C379A0 SUB PUSH2 0x2287 JUMPI POP PUSH2 0x2272 PUSH2 0x43A2 JUMP JUMPDEST DUP1 PUSH2 0x227D JUMPI POP PUSH2 0x2289 JUMP JUMPDEST PUSH0 SWAP6 POP SWAP4 POP PUSH2 0x22CE JUMP JUMPDEST POP JUMPDEST PUSH0 SWAP5 POP PUSH1 0x40 MLOAD DUP1 PUSH1 0x40 ADD PUSH1 0x40 MSTORE DUP1 PUSH1 0x20 DUP2 MSTORE PUSH1 0x20 ADD PUSH32 0x65727220657865637574696E672063616C6C64617461206F6E2077616C6C6574 DUP2 MSTORE POP SWAP4 POP PUSH2 0x22CE JUMP JUMPDEST PUSH1 0x1 SWAP5 POP JUMPDEST POP POP POP SWAP2 POP SWAP2 JUMP JUMPDEST PUSH2 0x2303 DUP4 PUSH1 0xA0 ADD MLOAD PUSH1 0x40 MLOAD DUP1 PUSH1 0x40 ADD PUSH1 0x40 MSTORE DUP1 PUSH1 0x7 DUP2 MSTORE PUSH1 0x20 ADD PUSH7 0x125B9CDD185B1B PUSH1 0xCA SHL DUP2 MSTORE POP PUSH2 0x320D JUMP JUMPDEST ISZERO PUSH2 0x246E JUMPI PUSH1 0x3 SLOAD PUSH2 0x1C0 DUP5 ADD MLOAD PUSH1 0x40 MLOAD PUSH4 0x49FC3C21 PUSH1 0xE1 SHL DUP2 MSTORE PUSH0 SWAP3 PUSH1 0x1 PUSH1 0x1 PUSH1 0xA0 SHL SUB AND SWAP2 PUSH4 0x93F87842 SWAP2 PUSH2 0x233D SWAP2 SWAP1 PUSH1 0x4 ADD PUSH2 0x3C7B JUMP JUMPDEST PUSH1 0x20 PUSH1 0x40 MLOAD DUP1 DUP4 SUB DUP2 DUP7 GAS STATICCALL ISZERO DUP1 ISZERO PUSH2 0x2358 JUMPI RETURNDATASIZE PUSH0 DUP1 RETURNDATACOPY RETURNDATASIZE PUSH0 REVERT JUMPDEST POP POP POP POP PUSH1 0x40 MLOAD RETURNDATASIZE PUSH1 0x1F NOT PUSH1 0x1F DUP3 ADD AND DUP3 ADD DUP1 PUSH1 0x40 MSTORE POP DUP2 ADD SWAP1 PUSH2 0x237C SWAP2 SWAP1 PUSH2 0x3B1D JUMP JUMPDEST PUSH1 0x3 SLOAD PUSH1 0x40 MLOAD PUSH4 0x93EC4971 PUSH1 0xE0 SHL DUP2 MSTORE PUSH1 0x1 PUSH1 0x1 PUSH1 0xA0 SHL SUB DUP1 DUP5 AND PUSH1 0x4 DUP4 ADD MSTORE PUSH0 PUSH1 0x24 DUP4 ADD DUP2 SWAP1 MSTORE PUSH1 0x44 DUP4 ADD DUP2 SWAP1 MSTORE SWAP4 SWAP5 POP SWAP1 SWAP2 AND SWAP1 PUSH4 0x93EC4971 SWAP1 PUSH1 0x64 ADD PUSH0 PUSH1 0x40 MLOAD DUP1 DUP4 SUB DUP2 DUP7 GAS STATICCALL ISZERO DUP1 ISZERO PUSH2 0x23D5 JUMPI RETURNDATASIZE PUSH0 DUP1 RETURNDATACOPY RETURNDATASIZE PUSH0 REVERT JUMPDEST POP POP POP POP PUSH1 0x40 MLOAD RETURNDATASIZE PUSH0 DUP3 RETURNDATACOPY PUSH1 0x1F RETURNDATASIZE SWAP1 DUP2 ADD PUSH1 0x1F NOT AND DUP3 ADD PUSH1 0x40 MSTORE PUSH2 0x23FC SWAP2 SWAP1 DUP2 ADD SWAP1 PUSH2 0x3D75 JUMP JUMPDEST PUSH1 0x3 SLOAD PUSH1 0x5 SLOAD PUSH1 0x40 MLOAD PUSH4 0xF1FBBBA1 PUSH1 0xE0 SHL DUP2 MSTORE SWAP3 SWAP4 POP PUSH1 0x1 PUSH1 0x1 PUSH1 0xA0 SHL SUB SWAP2 DUP3 AND SWAP3 PUSH4 0xF1FBBBA1 SWAP3 PUSH2 0x2436 SWAP3 AND SWAP1 DUP6 SWAP1 DUP8 SWAP1 PUSH1 0x4 ADD PUSH2 0x4492 JUMP JUMPDEST PUSH0 PUSH1 0x40 MLOAD DUP1 DUP4 SUB DUP2 PUSH0 DUP8 DUP1 EXTCODESIZE ISZERO DUP1 ISZERO PUSH2 0x244D JUMPI PUSH0 DUP1 REVERT JUMPDEST POP GAS CALL ISZERO DUP1 ISZERO PUSH2 0x245F JUMPI RETURNDATASIZE PUSH0 DUP1 RETURNDATACOPY RETURNDATASIZE PUSH0 REVERT JUMPDEST POP POP POP POP PUSH1 0x1 SWAP4 POP POP POP SWAP2 POP SWAP2 JUMP JUMPDEST PUSH2 0x249D DUP4 PUSH1 0xA0 ADD MLOAD PUSH1 0x40 MLOAD DUP1 PUSH1 0x40 ADD PUSH1 0x40 MSTORE DUP1 PUSH1 0x9 DUP2 MSTORE PUSH1 0x20 ADD PUSH9 0x155B9A5B9CDD185B1B PUSH1 0xBA SHL DUP2 MSTORE POP PUSH2 0x320D JUMP JUMPDEST ISZERO PUSH2 0x25D0 JUMPI PUSH1 0x3 SLOAD PUSH2 0x1C0 DUP5 ADD MLOAD PUSH1 0x40 MLOAD PUSH4 0x49FC3C21 PUSH1 0xE1 SHL DUP2 MSTORE PUSH0 SWAP3 PUSH1 0x1 PUSH1 0x1 PUSH1 0xA0 SHL SUB AND SWAP2 PUSH4 0x93F87842 SWAP2 PUSH2 0x24D7 SWAP2 SWAP1 PUSH1 0x4 ADD PUSH2 0x3C7B JUMP JUMPDEST PUSH1 0x20 PUSH1 0x40 MLOAD DUP1 DUP4 SUB DUP2 DUP7 GAS STATICCALL ISZERO DUP1 ISZERO PUSH2 0x24F2 JUMPI RETURNDATASIZE PUSH0 DUP1 RETURNDATACOPY RETURNDATASIZE PUSH0 REVERT JUMPDEST POP POP POP POP PUSH1 0x40 MLOAD RETURNDATASIZE PUSH1 0x1F NOT PUSH1 0x1F DUP3 ADD AND DUP3 ADD DUP1 PUSH1 0x40 MSTORE POP DUP2 ADD SWAP1 PUSH2 0x2516 SWAP2 SWAP1 PUSH2 0x3B1D JUMP JUMPDEST PUSH1 0x3 SLOAD PUSH1 0x40 MLOAD PUSH4 0x93EC4971 PUSH1 0xE0 SHL DUP2 MSTORE PUSH1 0x1 PUSH1 0x1 PUSH1 0xA0 SHL SUB DUP1 DUP5 AND PUSH1 0x4 DUP4 ADD MSTORE PUSH0 PUSH1 0x24 DUP4 ADD DUP2 SWAP1 MSTORE PUSH1 0x44 DUP4 ADD DUP2 SWAP1 MSTORE SWAP4 SWAP5 POP SWAP1 SWAP2 AND SWAP1 PUSH4 0x93EC4971 SWAP1 PUSH1 0x64 ADD PUSH0 PUSH1 0x40 MLOAD DUP1 DUP4 SUB DUP2 DUP7 GAS STATICCALL ISZERO DUP1 ISZERO PUSH2 0x256F JUMPI RETURNDATASIZE PUSH0 DUP1 RETURNDATACOPY RETURNDATASIZE PUSH0 REVERT JUMPDEST POP POP POP POP PUSH1 0x40 MLOAD RETURNDATASIZE PUSH0 DUP3 RETURNDATACOPY PUSH1 0x1F RETURNDATASIZE SWAP1 DUP2 ADD PUSH1 0x1F NOT AND DUP3 ADD PUSH1 0x40 MSTORE PUSH2 0x2596 SWAP2 SWAP1 DUP2 ADD SWAP1 PUSH2 0x3D75 JUMP JUMPDEST PUSH1 0x3 SLOAD PUSH1 0x5 SLOAD PUSH1 0x40 MLOAD PUSH4 0xF1FBBBA1 PUSH1 0xE0 SHL DUP2 MSTORE SWAP3 SWAP4 POP PUSH1 0x1 PUSH1 0x1 PUSH1 0xA0 SHL SUB SWAP2 DUP3 AND SWAP3 PUSH4 0xF1FBBBA1 SWAP3 PUSH2 0x2436 SWAP3 AND SWAP1 DUP6 SWAP1 PUSH0 SWAP1 PUSH1 0x4 ADD PUSH2 0x4492 JUMP JUMPDEST PUSH2 0x25FA DUP4 PUSH1 0xA0 ADD MLOAD PUSH1 0x40 MLOAD DUP1 PUSH1 0x40 ADD PUSH1 0x40 MSTORE DUP1 PUSH1 0x4 DUP2 MSTORE PUSH1 0x20 ADD PUSH4 0x115E1A5D PUSH1 0xE2 SHL DUP2 MSTORE POP PUSH2 0x320D JUMP JUMPDEST ISZERO PUSH2 0x26BC JUMPI PUSH1 0x5 SLOAD PUSH2 0x1E0 DUP5 ADD MLOAD PUSH1 0x40 MLOAD PUSH4 0xF2FDE38B PUSH1 0xE0 SHL DUP2 MSTORE PUSH1 0x1 PUSH1 0x1 PUSH1 0xA0 SHL SUB SWAP2 DUP3 AND PUSH1 0x4 DUP3 ADD MSTORE SWAP2 AND SWAP1 PUSH4 0xF2FDE38B SWAP1 PUSH1 0x24 ADD PUSH0 PUSH1 0x40 MLOAD DUP1 DUP4 SUB DUP2 PUSH0 DUP8 DUP1 EXTCODESIZE ISZERO DUP1 ISZERO PUSH2 0x2648 JUMPI PUSH0 DUP1 REVERT JUMPDEST POP GAS CALL SWAP3 POP POP POP DUP1 ISZERO PUSH2 0x2659 JUMPI POP PUSH1 0x1 JUMPDEST PUSH2 0x26B3 JUMPI PUSH2 0x2665 PUSH2 0x4389 JUMP JUMPDEST DUP1 PUSH4 0x8C379A0 SUB PUSH2 0x268E JUMPI POP PUSH2 0x2679 PUSH2 0x43A2 JUMP JUMPDEST DUP1 PUSH2 0x2684 JUMPI POP PUSH2 0x2690 JUMP JUMPDEST PUSH0 SWAP3 POP SWAP1 POP SWAP2 POP SWAP2 JUMP JUMPDEST POP JUMPDEST PUSH0 SWAP2 POP PUSH1 0x40 MLOAD DUP1 PUSH1 0x60 ADD PUSH1 0x40 MSTORE DUP1 PUSH1 0x29 DUP2 MSTORE PUSH1 0x20 ADD PUSH2 0x472F PUSH1 0x29 SWAP2 CODECOPY SWAP1 POP SWAP2 POP SWAP2 JUMP JUMPDEST PUSH1 0x1 SWAP2 POP SWAP2 POP SWAP2 JUMP JUMPDEST PUSH2 0x26E6 DUP4 PUSH1 0xA0 ADD MLOAD PUSH1 0x40 MLOAD DUP1 PUSH1 0x40 ADD PUSH1 0x40 MSTORE DUP1 PUSH1 0x4 DUP2 MSTORE PUSH1 0x20 ADD PUSH4 0x444B494D PUSH1 0xE0 SHL DUP2 MSTORE POP PUSH2 0x320D JUMP JUMPDEST ISZERO PUSH2 0x283D JUMPI PUSH1 0x1 SLOAD DUP4 MLOAD PUSH1 0x40 MLOAD PUSH4 0x5D2C8D1B PUSH1 0xE1 SHL DUP2 MSTORE PUSH1 0x4 DUP2 ADD SWAP2 SWAP1 SWAP2 MSTORE PUSH0 SWAP2 PUSH1 0x1 PUSH1 0x1 PUSH1 0xA0 SHL SUB AND SWAP1 PUSH4 0xBA591A36 SWAP1 PUSH1 0x24 ADD PUSH1 0x20 PUSH1 0x40 MLOAD DUP1 DUP4 SUB DUP2 DUP7 GAS STATICCALL ISZERO DUP1 ISZERO PUSH2 0x2735 JUMPI RETURNDATASIZE PUSH0 DUP1 RETURNDATACOPY RETURNDATASIZE PUSH0 REVERT JUMPDEST POP POP POP POP PUSH1 0x40 MLOAD RETURNDATASIZE PUSH1 0x1F NOT PUSH1 0x1F DUP3 ADD AND DUP3 ADD DUP1 PUSH1 0x40 MSTORE POP DUP2 ADD SWAP1 PUSH2 0x2759 SWAP2 SWAP1 PUSH2 0x3EB5 JUMP JUMPDEST PUSH1 0x1 SLOAD PUSH1 0x40 MLOAD PUSH4 0x6B0F047D PUSH1 0xE0 SHL DUP2 MSTORE PUSH1 0x4 DUP2 ADD DUP4 SWAP1 MSTORE SWAP2 SWAP3 POP PUSH1 0x1 PUSH1 0x1 PUSH1 0xA0 SHL SUB AND SWAP1 PUSH4 0x40D20041 SWAP1 DUP3 SWAP1 PUSH4 0x6B0F047D SWAP1 PUSH1 0x24 ADD PUSH1 0x60 PUSH1 0x40 MLOAD DUP1 DUP4 SUB DUP2 DUP7 GAS STATICCALL ISZERO DUP1 ISZERO PUSH2 0x27A9 JUMPI RETURNDATASIZE PUSH0 DUP1 RETURNDATACOPY RETURNDATASIZE PUSH0 REVERT JUMPDEST POP POP POP POP PUSH1 0x40 MLOAD RETURNDATASIZE PUSH1 0x1F NOT PUSH1 0x1F DUP3 ADD AND DUP3 ADD DUP1 PUSH1 0x40 MSTORE POP DUP2 ADD SWAP1 PUSH2 0x27CD SWAP2 SWAP1 PUSH2 0x3ECC JUMP JUMPDEST PUSH1 0x40 ADD MLOAD DUP7 PUSH2 0x200 ADD MLOAD PUSH1 0x40 MLOAD DUP4 PUSH4 0xFFFFFFFF AND PUSH1 0xE0 SHL DUP2 MSTORE PUSH1 0x4 ADD PUSH2 0x2806 SWAP3 SWAP2 SWAP1 SWAP2 DUP3 MSTORE PUSH1 0x1 PUSH1 0x1 PUSH1 0xA0 SHL SUB AND PUSH1 0x20 DUP3 ADD MSTORE PUSH1 0x40 ADD SWAP1 JUMP JUMPDEST PUSH0 PUSH1 0x40 MLOAD DUP1 DUP4 SUB DUP2 PUSH0 DUP8 DUP1 EXTCODESIZE ISZERO DUP1 ISZERO PUSH2 0x281D JUMPI PUSH0 DUP1 REVERT JUMPDEST POP GAS CALL ISZERO DUP1 ISZERO PUSH2 0x282F JUMPI RETURNDATASIZE PUSH0 DUP1 RETURNDATACOPY RETURNDATASIZE PUSH0 REVERT JUMPDEST POP POP POP POP PUSH1 0x1 SWAP3 POP POP SWAP2 POP SWAP2 JUMP JUMPDEST PUSH1 0x3 SLOAD PUSH1 0x5 SLOAD PUSH1 0xA0 DUP6 ADD MLOAD PUSH1 0x40 MLOAD PUSH4 0x70435411 PUSH1 0xE1 SHL DUP2 MSTORE PUSH0 SWAP4 PUSH1 0x1 PUSH1 0x1 PUSH1 0xA0 SHL SUB SWAP1 DUP2 AND SWAP4 PUSH4 0xE086A822 SWAP4 PUSH2 0x287A SWAP4 SWAP3 SWAP1 SWAP2 AND SWAP2 PUSH1 0x4 ADD PUSH2 0x44C6 JUMP JUMPDEST PUSH1 0x20 PUSH1 0x40 MLOAD DUP1 DUP4 SUB DUP2 DUP7 GAS STATICCALL ISZERO DUP1 ISZERO PUSH2 0x2895 JUMPI RETURNDATASIZE PUSH0 DUP1 RETURNDATACOPY RETURNDATASIZE PUSH0 REVERT JUMPDEST POP POP POP POP PUSH1 0x40 MLOAD RETURNDATASIZE PUSH1 0x1F NOT PUSH1 0x1F DUP3 ADD AND DUP3 ADD DUP1 PUSH1 0x40 MSTORE POP DUP2 ADD SWAP1 PUSH2 0x28B9 SWAP2 SWAP1 PUSH2 0x3B1D JUMP JUMPDEST PUSH1 0x6 DUP1 SLOAD PUSH1 0x1 PUSH1 0x1 PUSH1 0xA0 SHL SUB NOT AND PUSH1 0x1 PUSH1 0x1 PUSH1 0xA0 SHL SUB DUP4 DUP2 AND SWAP2 DUP3 OR SWAP1 SWAP3 SSTORE PUSH1 0x3 SLOAD PUSH1 0x40 MLOAD PUSH4 0x36FDF1AF PUSH1 0xE1 SHL DUP2 MSTORE PUSH1 0x4 DUP2 ADD SWAP3 SWAP1 SWAP3 MSTORE SWAP3 SWAP4 POP PUSH0 SWAP3 DUP4 SWAP3 AND SWAP1 PUSH4 0x6DFBE35E SWAP1 PUSH1 0x24 ADD PUSH0 PUSH1 0x40 MLOAD DUP1 DUP4 SUB DUP2 DUP7 GAS STATICCALL ISZERO DUP1 ISZERO PUSH2 0x291C JUMPI RETURNDATASIZE PUSH0 DUP1 RETURNDATACOPY RETURNDATASIZE PUSH0 REVERT JUMPDEST POP POP POP POP PUSH1 0x40 MLOAD RETURNDATASIZE PUSH0 DUP3 RETURNDATACOPY PUSH1 0x1F RETURNDATASIZE SWAP1 DUP2 ADD PUSH1 0x1F NOT AND DUP3 ADD PUSH1 0x40 MSTORE PUSH2 0x2943 SWAP2 SWAP1 DUP2 ADD SWAP1 PUSH2 0x44E9 JUMP JUMPDEST DUP7 PUSH2 0x240 ADD MLOAD PUSH0 ADD MLOAD PUSH1 0xFF AND DUP2 MLOAD DUP2 LT PUSH2 0x295F JUMPI PUSH2 0x295F PUSH2 0x3DCD JUMP JUMPDEST PUSH1 0x20 MUL PUSH1 0x20 ADD ADD MLOAD SWAP1 POP PUSH0 JUMPDEST DUP2 MLOAD DUP2 PUSH1 0xFF AND LT ISZERO PUSH2 0x2C07 JUMPI PUSH0 DUP3 DUP3 PUSH1 0xFF AND DUP2 MLOAD DUP2 LT PUSH2 0x298D JUMPI PUSH2 0x298D PUSH2 0x3DCD JUMP JUMPDEST PUSH1 0x20 MUL PUSH1 0x20 ADD ADD MLOAD SWAP1 POP PUSH2 0x29C6 DUP2 PUSH1 0x40 MLOAD DUP1 PUSH1 0x40 ADD PUSH1 0x40 MSTORE DUP1 PUSH1 0xD DUP2 MSTORE PUSH1 0x20 ADD PUSH13 0x7B746F6B656E416D6F756E747D PUSH1 0x98 SHL DUP2 MSTORE POP PUSH2 0x320D JUMP JUMPDEST ISZERO PUSH2 0x2AFB JUMPI PUSH0 DUP1 DUP10 PUSH2 0x240 ADD MLOAD PUSH1 0x20 ADD MLOAD DUP7 PUSH1 0xFF AND DUP2 MLOAD DUP2 LT PUSH2 0x29EB JUMPI PUSH2 0x29EB PUSH2 0x3DCD JUMP JUMPDEST PUSH1 0x20 MUL PUSH1 0x20 ADD ADD MLOAD DUP1 PUSH1 0x20 ADD SWAP1 MLOAD DUP2 ADD SWAP1 PUSH2 0x2A06 SWAP2 SWAP1 PUSH2 0x461F JUMP JUMPDEST PUSH1 0x40 DUP1 MLOAD DUP1 DUP3 ADD SWAP2 DUP3 SWAP1 MSTORE PUSH4 0x6204891B PUSH1 0xE1 SHL SWAP1 SWAP2 MSTORE SWAP2 SWAP4 POP SWAP2 POP PUSH1 0x9 SWAP1 DUP1 PUSH1 0x1 PUSH1 0x1 PUSH1 0xA0 SHL SUB PUSH32 0x0 AND PUSH4 0xC4091236 PUSH2 0x2A61 DUP7 PUSH1 0x44 DUP6 ADD PUSH2 0x3C7B JUMP JUMPDEST PUSH1 0x20 PUSH1 0x40 MLOAD DUP1 DUP4 SUB DUP2 DUP7 GAS STATICCALL ISZERO DUP1 ISZERO PUSH2 0x2A7C JUMPI RETURNDATASIZE PUSH0 DUP1 RETURNDATACOPY RETURNDATASIZE PUSH0 REVERT JUMPDEST POP POP POP POP PUSH1 0x40 MLOAD RETURNDATASIZE PUSH1 0x1F NOT PUSH1 0x1F DUP3 ADD AND DUP3 ADD DUP1 PUSH1 0x40 MSTORE POP DUP2 ADD SWAP1 PUSH2 0x2AA0 SWAP2 SWAP1 PUSH2 0x3B1D JUMP JUMPDEST PUSH1 0x1 PUSH1 0x1 PUSH1 0xA0 SHL SUB SWAP1 DUP2 AND DUP3 MSTORE PUSH1 0x20 SWAP2 DUP3 ADD DUP7 SWAP1 MSTORE DUP4 SLOAD PUSH1 0x1 DUP1 DUP3 ADD DUP7 SSTORE PUSH0 SWAP6 DUP7 MSTORE SWAP5 DUP4 SWAP1 KECCAK256 DUP5 MLOAD PUSH1 0x2 SWAP1 SWAP3 MUL ADD DUP1 SLOAD PUSH1 0x1 PUSH1 0x1 PUSH1 0xA0 SHL SUB NOT AND SWAP2 SWAP1 SWAP3 AND OR DUP2 SSTORE SWAP2 ADD MLOAD SWAP2 ADD SSTORE DUP6 PUSH2 0x2AF1 DUP2 PUSH2 0x4662 JUMP JUMPDEST SWAP7 POP POP POP POP PUSH2 0x2BF4 JUMP JUMPDEST PUSH2 0x2B25 DUP2 PUSH1 0x40 MLOAD DUP1 PUSH1 0x40 ADD PUSH1 0x40 MSTORE DUP1 PUSH1 0x8 DUP2 MSTORE PUSH1 0x20 ADD PUSH8 0x7B616D6F756E747D PUSH1 0xC0 SHL DUP2 MSTORE POP PUSH2 0x320D JUMP JUMPDEST DUP1 PUSH2 0x2B55 JUMPI POP PUSH2 0x2B55 DUP2 PUSH1 0x40 MLOAD DUP1 PUSH1 0x40 ADD PUSH1 0x40 MSTORE DUP1 PUSH1 0x8 DUP2 MSTORE PUSH1 0x20 ADD PUSH8 0x7B737472696E677D PUSH1 0xC0 SHL DUP2 MSTORE POP PUSH2 0x320D JUMP JUMPDEST DUP1 PUSH2 0x2B83 JUMPI POP PUSH2 0x2B83 DUP2 PUSH1 0x40 MLOAD DUP1 PUSH1 0x40 ADD PUSH1 0x40 MSTORE DUP1 PUSH1 0x6 DUP2 MSTORE PUSH1 0x20 ADD PUSH6 0x7B75696E747D PUSH1 0xD0 SHL DUP2 MSTORE POP PUSH2 0x320D JUMP JUMPDEST DUP1 PUSH2 0x2BB0 JUMPI POP PUSH2 0x2BB0 DUP2 PUSH1 0x40 MLOAD DUP1 PUSH1 0x40 ADD PUSH1 0x40 MSTORE DUP1 PUSH1 0x5 DUP2 MSTORE PUSH1 0x20 ADD PUSH5 0x7B696E747D PUSH1 0xD8 SHL DUP2 MSTORE POP PUSH2 0x320D JUMP JUMPDEST DUP1 PUSH2 0x2BE1 JUMPI POP PUSH2 0x2BE1 DUP2 PUSH1 0x40 MLOAD DUP1 PUSH1 0x40 ADD PUSH1 0x40 MSTORE DUP1 PUSH1 0x9 DUP2 MSTORE PUSH1 0x20 ADD PUSH9 0x7B616464726573737D PUSH1 0xB8 SHL DUP2 MSTORE POP PUSH2 0x320D JUMP JUMPDEST ISZERO PUSH2 0x2BF4 JUMPI DUP4 PUSH2 0x2BF0 DUP2 PUSH2 0x4662 JUMP JUMPDEST SWAP5 POP POP JUMPDEST POP DUP1 PUSH2 0x2BFF DUP2 PUSH2 0x4662 JUMP JUMPDEST SWAP2 POP POP PUSH2 0x296B JUMP JUMPDEST POP PUSH1 0x3 SLOAD PUSH1 0x40 MLOAD PUSH4 0xBC75F77 PUSH1 0xE2 SHL DUP2 MSTORE PUSH1 0x1 PUSH1 0x1 PUSH1 0xA0 SHL SUB DUP6 DUP2 AND PUSH1 0x4 DUP4 ADD DUP2 SWAP1 MSTORE SWAP3 PUSH4 0xE93977E8 SWAP3 SWAP2 AND SWAP1 PUSH4 0x2F1D7DDC SWAP1 PUSH1 0x24 ADD PUSH1 0x20 PUSH1 0x40 MLOAD DUP1 DUP4 SUB DUP2 DUP7 GAS STATICCALL ISZERO DUP1 ISZERO PUSH2 0x2C58 JUMPI RETURNDATASIZE PUSH0 DUP1 RETURNDATACOPY RETURNDATASIZE PUSH0 REVERT JUMPDEST POP POP POP POP PUSH1 0x40 MLOAD RETURNDATASIZE PUSH1 0x1F NOT PUSH1 0x1F DUP3 ADD AND DUP3 ADD DUP1 PUSH1 0x40 MSTORE POP DUP2 ADD SWAP1 PUSH2 0x2C7C SWAP2 SWAP1 PUSH2 0x3EB5 JUMP JUMPDEST PUSH2 0x240 DUP10 ADD MLOAD DUP1 MLOAD PUSH1 0x20 SWAP2 DUP3 ADD MLOAD PUSH1 0x5 SLOAD SWAP3 DUP13 ADD MLOAD PUSH1 0x80 DUP14 ADD MLOAD PUSH1 0xC0 DUP15 ADD MLOAD PUSH1 0x40 MLOAD PUSH1 0x1 PUSH1 0x1 PUSH1 0xE0 SHL SUB NOT PUSH1 0xE0 DUP11 SWAP1 SHL AND DUP2 MSTORE PUSH2 0x2CC8 SWAP7 PUSH1 0x1 PUSH1 0x1 PUSH1 0xA0 SHL SUB AND SWAP4 SWAP3 SWAP2 SWAP1 PUSH1 0x4 ADD PUSH2 0x4680 JUMP JUMPDEST PUSH0 PUSH1 0x40 MLOAD DUP1 DUP4 SUB DUP2 PUSH0 DUP9 DUP1 EXTCODESIZE ISZERO DUP1 ISZERO PUSH2 0x2CDF JUMPI PUSH0 DUP1 REVERT JUMPDEST POP DUP8 CALL SWAP4 POP POP POP POP DUP1 ISZERO PUSH2 0x2CF1 JUMPI POP PUSH1 0x1 JUMPDEST PUSH2 0x22C9 JUMPI PUSH2 0x2CFD PUSH2 0x4389 JUMP JUMPDEST DUP1 PUSH4 0x8C379A0 SUB PUSH2 0x2D1C JUMPI POP PUSH2 0x2D11 PUSH2 0x43A2 JUMP JUMPDEST DUP1 PUSH2 0x227D JUMPI POP PUSH2 0x2D1E JUMP JUMPDEST POP JUMPDEST PUSH0 SWAP5 POP PUSH1 0x40 MLOAD DUP1 PUSH1 0x40 ADD PUSH1 0x40 MSTORE DUP1 PUSH1 0x17 DUP2 MSTORE PUSH1 0x20 ADD PUSH32 0x65727220657865637574696E6720657874656E73696F6E000000000000000000 DUP2 MSTORE POP SWAP4 POP PUSH2 0x22CE JUMP JUMPDEST PUSH0 PUSH2 0x2D84 DUP3 PUSH1 0x40 MLOAD DUP1 PUSH1 0x40 ADD PUSH1 0x40 MSTORE DUP1 PUSH1 0x3 DUP2 MSTORE PUSH1 0x20 ADD PUSH3 0x8AA89 PUSH1 0xEB SHL DUP2 MSTORE POP PUSH2 0x320D JUMP JUMPDEST DUP1 PUSH2 0x2DB0 JUMPI POP PUSH2 0x2DB0 DUP3 PUSH1 0x40 MLOAD DUP1 PUSH1 0x40 ADD PUSH1 0x40 MSTORE DUP1 PUSH1 0x4 DUP2 MSTORE PUSH1 0x20 ADD PUSH4 0xAE8AA89 PUSH1 0xE3 SHL DUP2 MSTORE POP PUSH2 0x320D JUMP JUMPDEST ISZERO PUSH2 0x2DC4 JUMPI POP PUSH8 0xDE0B6B3A7640000 SWAP2 SWAP1 POP JUMP JUMPDEST PUSH0 PUSH2 0x2DEA DUP4 PUSH1 0x40 MLOAD DUP1 PUSH1 0x40 ADD PUSH1 0x40 MSTORE DUP1 PUSH1 0x3 DUP2 MSTORE PUSH1 0x20 ADD PUSH3 0x444149 PUSH1 0xE8 SHL DUP2 MSTORE POP PUSH2 0x320D JUMP JUMPDEST DUP1 PUSH2 0x2E16 JUMPI POP PUSH2 0x2E16 DUP4 PUSH1 0x40 MLOAD DUP1 PUSH1 0x40 ADD PUSH1 0x40 MSTORE DUP1 PUSH1 0x4 DUP2 MSTORE PUSH1 0x20 ADD PUSH4 0x55534443 PUSH1 0xE0 SHL DUP2 MSTORE POP PUSH2 0x320D JUMP JUMPDEST SWAP1 POP DUP1 PUSH2 0x2E25 JUMPI POP PUSH0 SWAP3 SWAP2 POP POP JUMP JUMPDEST PUSH1 0x40 MLOAD PUSH4 0x6204891B PUSH1 0xE1 SHL DUP2 MSTORE PUSH0 SWAP1 PUSH1 0x1 PUSH1 0x1 PUSH1 0xA0 SHL SUB PUSH32 0x0 AND SWAP1 PUSH4 0xC4091236 SWAP1 PUSH2 0x2E73 SWAP1 DUP8 SWAP1 PUSH1 0x4 ADD PUSH2 0x3C7B JUMP JUMPDEST PUSH1 0x20 PUSH1 0x40 MLOAD DUP1 DUP4 SUB DUP2 DUP7 GAS STATICCALL ISZERO DUP1 ISZERO PUSH2 0x2E8E JUMPI RETURNDATASIZE PUSH0 DUP1 RETURNDATACOPY RETURNDATASIZE PUSH0 REVERT JUMPDEST POP POP POP POP PUSH1 0x40 MLOAD RETURNDATASIZE PUSH1 0x1F NOT PUSH1 0x1F DUP3 ADD AND DUP3 ADD DUP1 PUSH1 0x40 MSTORE POP DUP2 ADD SWAP1 PUSH2 0x2EB2 SWAP2 SWAP1 PUSH2 0x3B1D JUMP JUMPDEST SWAP1 POP PUSH1 0x1 PUSH1 0x1 PUSH1 0xA0 SHL SUB DUP2 AND PUSH2 0x2ECB JUMPI POP PUSH0 SWAP4 SWAP3 POP POP POP JUMP JUMPDEST PUSH1 0x40 MLOAD PUSH3 0x30AFB5 PUSH1 0xE3 SHL DUP2 MSTORE PUSH1 0x1 PUSH1 0x1 PUSH1 0xA0 SHL SUB DUP3 DUP2 AND PUSH1 0x4 DUP4 ADD MSTORE PUSH32 0x0 AND SWAP1 PUSH4 0x1857DA8 SWAP1 PUSH1 0x24 ADD PUSH1 0x20 PUSH1 0x40 MLOAD DUP1 DUP4 SUB DUP2 DUP7 GAS STATICCALL ISZERO DUP1 ISZERO PUSH2 0x2F2E JUMPI RETURNDATASIZE PUSH0 DUP1 RETURNDATACOPY RETURNDATASIZE PUSH0 REVERT JUMPDEST POP POP POP POP PUSH1 0x40 MLOAD RETURNDATASIZE PUSH1 0x1F NOT PUSH1 0x1F DUP3 ADD AND DUP3 ADD DUP1 PUSH1 0x40 MSTORE POP DUP2 ADD SWAP1 PUSH2 0x2F52 SWAP2 SWAP1 PUSH2 0x3EB5 JUMP JUMPDEST SWAP5 SWAP4 POP POP POP POP JUMP JUMPDEST PUSH0 PUSH1 0x60 PUSH1 0x1 PUSH1 0x1 PUSH1 0xA0 SHL SUB DUP5 AND PUSH2 0x2FAB JUMPI PUSH1 0x40 MLOAD PUSH3 0x461BCD PUSH1 0xE5 SHL DUP2 MSTORE PUSH1 0x20 PUSH1 0x4 DUP3 ADD MSTORE PUSH1 0x15 PUSH1 0x24 DUP3 ADD MSTORE PUSH21 0x696E76616C696420746F6B656E2061646472657373 PUSH1 0x58 SHL PUSH1 0x44 DUP3 ADD MSTORE PUSH1 0x64 ADD PUSH2 0x575 JUMP JUMPDEST PUSH0 DUP4 GT PUSH2 0x2FEB JUMPI PUSH1 0x40 MLOAD PUSH3 0x461BCD PUSH1 0xE5 SHL DUP2 MSTORE PUSH1 0x20 PUSH1 0x4 DUP3 ADD MSTORE PUSH1 0xE PUSH1 0x24 DUP3 ADD MSTORE PUSH14 0x1A5B9D985B1A5908185B5BDD5B9D PUSH1 0x92 SHL PUSH1 0x44 DUP3 ADD MSTORE PUSH1 0x64 ADD PUSH2 0x575 JUMP JUMPDEST PUSH1 0x1 PUSH1 0x1 PUSH1 0xA0 SHL SUB DUP7 AND PUSH2 0x303A JUMPI PUSH1 0x40 MLOAD PUSH3 0x461BCD PUSH1 0xE5 SHL DUP2 MSTORE PUSH1 0x20 PUSH1 0x4 DUP3 ADD MSTORE PUSH1 0x16 PUSH1 0x24 DUP3 ADD MSTORE PUSH22 0x696E76616C69642073656E6465722061646472657373 PUSH1 0x50 SHL PUSH1 0x44 DUP3 ADD MSTORE PUSH1 0x64 ADD PUSH2 0x575 JUMP JUMPDEST PUSH1 0x1 PUSH1 0x1 PUSH1 0xA0 SHL SUB DUP6 AND PUSH2 0x3090 JUMPI PUSH1 0x40 MLOAD PUSH3 0x461BCD PUSH1 0xE5 SHL DUP2 MSTORE PUSH1 0x20 PUSH1 0x4 DUP3 ADD MSTORE PUSH1 0x19 PUSH1 0x24 DUP3 ADD MSTORE PUSH32 0x696E76616C696420726563697069656E74206164647265737300000000000000 PUSH1 0x44 DUP3 ADD MSTORE PUSH1 0x64 ADD PUSH2 0x575 JUMP JUMPDEST PUSH1 0x40 DUP1 MLOAD PUSH1 0x1 PUSH1 0x1 PUSH1 0xA0 SHL SUB DUP8 DUP2 AND PUSH1 0x24 DUP4 ADD MSTORE PUSH1 0x44 DUP1 DUP4 ADD DUP8 SWAP1 MSTORE DUP4 MLOAD DUP1 DUP5 SUB SWAP1 SWAP2 ADD DUP2 MSTORE PUSH1 0x64 SWAP1 SWAP3 ADD DUP4 MSTORE PUSH1 0x20 DUP3 ADD DUP1 MLOAD PUSH1 0x1 PUSH1 0x1 PUSH1 0xE0 SHL SUB AND PUSH4 0xA9059CBB PUSH1 0xE0 SHL OR SWAP1 MSTORE SWAP2 MLOAD PUSH4 0x5B0E93FB PUSH1 0xE1 SHL DUP2 MSTORE DUP9 SWAP3 DUP4 AND SWAP2 PUSH4 0xB61D27F6 SWAP2 PUSH2 0x30FF SWAP2 DUP10 SWAP2 PUSH0 SWAP2 SWAP1 PUSH1 0x4 ADD PUSH2 0x435A JUMP JUMPDEST PUSH0 PUSH1 0x40 MLOAD DUP1 DUP4 SUB DUP2 PUSH0 DUP8 DUP1 EXTCODESIZE ISZERO DUP1 ISZERO PUSH2 0x3116 JUMPI PUSH0 DUP1 REVERT JUMPDEST POP GAS CALL SWAP3 POP POP POP DUP1 ISZERO PUSH2 0x3127 JUMPI POP PUSH1 0x1 JUMPDEST PUSH2 0x319E JUMPI PUSH2 0x3133 PUSH2 0x4389 JUMP JUMPDEST DUP1 PUSH4 0x8C379A0 SUB PUSH2 0x315E JUMPI POP PUSH2 0x3147 PUSH2 0x43A2 JUMP JUMPDEST DUP1 PUSH2 0x3152 JUMPI POP PUSH2 0x3160 JUMP JUMPDEST PUSH0 SWAP4 POP SWAP2 POP PUSH2 0x31A4 SWAP1 POP JUMP JUMPDEST POP JUMPDEST POP POP PUSH1 0x40 DUP1 MLOAD DUP1 DUP3 ADD SWAP1 SWAP2 MSTORE PUSH1 0x19 DUP2 MSTORE PUSH32 0x756E6B6E6F776E2077616C6C65742065786563206572726F7200000000000000 PUSH1 0x20 DUP3 ADD MSTORE PUSH0 SWAP2 POP PUSH2 0x31A4 JUMP JUMPDEST PUSH1 0x1 SWAP3 POP POP JUMPDEST SWAP5 POP SWAP5 SWAP3 POP POP POP JUMP JUMPDEST PUSH1 0x40 DUP1 MLOAD PUSH1 0x1 PUSH1 0x1 PUSH1 0xA0 SHL SUB DUP6 DUP2 AND PUSH1 0x24 DUP4 ADD MSTORE DUP5 AND PUSH1 0x44 DUP3 ADD MSTORE PUSH1 0x64 DUP1 DUP3 ADD DUP5 SWAP1 MSTORE DUP3 MLOAD DUP1 DUP4 SUB SWAP1 SWAP2 ADD DUP2 MSTORE PUSH1 0x84 SWAP1 SWAP2 ADD SWAP1 SWAP2 MSTORE PUSH1 0x20 DUP2 ADD DUP1 MLOAD PUSH1 0x1 PUSH1 0x1 PUSH1 0xE0 SHL SUB AND PUSH4 0x23B872DD PUSH1 0xE0 SHL OR SWAP1 MSTORE PUSH2 0x3207 SWAP1 DUP6 SWAP1 PUSH2 0x3228 JUMP JUMPDEST POP POP POP POP JUMP JUMPDEST PUSH0 DUP2 DUP1 MLOAD SWAP1 PUSH1 0x20 ADD KECCAK256 DUP4 DUP1 MLOAD SWAP1 PUSH1 0x20 ADD KECCAK256 EQ SWAP1 POP JUMPDEST SWAP3 SWAP2 POP POP JUMP JUMPDEST PUSH0 PUSH2 0x327C DUP3 PUSH1 0x40 MLOAD DUP1 PUSH1 0x40 ADD PUSH1 0x40 MSTORE DUP1 PUSH1 0x20 DUP2 MSTORE PUSH1 0x20 ADD PUSH32 0x5361666545524332303A206C6F772D6C6576656C2063616C6C206661696C6564 DUP2 MSTORE POP DUP6 PUSH1 0x1 PUSH1 0x1 PUSH1 0xA0 SHL SUB AND PUSH2 0x32FB SWAP1 SWAP3 SWAP2 SWAP1 PUSH4 0xFFFFFFFF AND JUMP JUMPDEST SWAP1 POP DUP1 MLOAD PUSH0 EQ DUP1 PUSH2 0x329C JUMPI POP DUP1 DUP1 PUSH1 0x20 ADD SWAP1 MLOAD DUP2 ADD SWAP1 PUSH2 0x329C SWAP2 SWAP1 PUSH2 0x3F34 JUMP JUMPDEST PUSH2 0x1BDE JUMPI PUSH1 0x40 MLOAD PUSH3 0x461BCD PUSH1 0xE5 SHL DUP2 MSTORE PUSH1 0x20 PUSH1 0x4 DUP3 ADD MSTORE PUSH1 0x2A PUSH1 0x24 DUP3 ADD MSTORE PUSH32 0x5361666545524332303A204552433230206F7065726174696F6E20646964206E PUSH1 0x44 DUP3 ADD MSTORE PUSH10 0x1BDD081CDD58D8D95959 PUSH1 0xB2 SHL PUSH1 0x64 DUP3 ADD MSTORE PUSH1 0x84 ADD PUSH2 0x575 JUMP JUMPDEST PUSH1 0x60 PUSH2 0x2F52 DUP5 DUP5 PUSH0 DUP6 DUP6 PUSH0 DUP1 DUP7 PUSH1 0x1 PUSH1 0x1 PUSH1 0xA0 SHL SUB AND DUP6 DUP8 PUSH1 0x40 MLOAD PUSH2 0x3320 SWAP2 SWAP1 PUSH2 0x4713 JUMP JUMPDEST PUSH0 PUSH1 0x40 MLOAD DUP1 DUP4 SUB DUP2 DUP6 DUP8 GAS CALL SWAP3 POP POP POP RETURNDATASIZE DUP1 PUSH0 DUP2 EQ PUSH2 0x335A JUMPI PUSH1 0x40 MLOAD SWAP2 POP PUSH1 0x1F NOT PUSH1 0x3F RETURNDATASIZE ADD AND DUP3 ADD PUSH1 0x40 MSTORE RETURNDATASIZE DUP3 MSTORE RETURNDATASIZE PUSH0 PUSH1 0x20 DUP5 ADD RETURNDATACOPY PUSH2 0x335F JUMP JUMPDEST PUSH1 0x60 SWAP2 POP JUMPDEST POP SWAP2 POP SWAP2 POP PUSH2 0x3370 DUP8 DUP4 DUP4 DUP8 PUSH2 0x337B JUMP JUMPDEST SWAP8 SWAP7 POP POP POP POP POP POP POP JUMP JUMPDEST PUSH1 0x60 DUP4 ISZERO PUSH2 0x33E9 JUMPI DUP3 MLOAD PUSH0 SUB PUSH2 0x33E2 JUMPI PUSH1 0x1 PUSH1 0x1 PUSH1 0xA0 SHL SUB DUP6 AND EXTCODESIZE PUSH2 0x33E2 JUMPI PUSH1 0x40 MLOAD PUSH3 0x461BCD PUSH1 0xE5 SHL DUP2 MSTORE PUSH1 0x20 PUSH1 0x4 DUP3 ADD MSTORE PUSH1 0x1D PUSH1 0x24 DUP3 ADD MSTORE PUSH32 0x416464726573733A2063616C6C20746F206E6F6E2D636F6E7472616374000000 PUSH1 0x44 DUP3 ADD MSTORE PUSH1 0x64 ADD PUSH2 0x575 JUMP JUMPDEST POP DUP2 PUSH2 0x2F52 JUMP JUMPDEST PUSH2 0x2F52 DUP4 DUP4 DUP2 MLOAD ISZERO PUSH2 0x33FE JUMPI DUP2 MLOAD DUP1 DUP4 PUSH1 0x20 ADD REVERT JUMPDEST DUP1 PUSH1 0x40 MLOAD PUSH3 0x461BCD PUSH1 0xE5 SHL DUP2 MSTORE PUSH1 0x4 ADD PUSH2 0x575 SWAP2 SWAP1 PUSH2 0x3C7B JUMP JUMPDEST POP DUP1 SLOAD PUSH0 DUP3 SSTORE PUSH1 0x2 MUL SWAP1 PUSH0 MSTORE PUSH1 0x20 PUSH0 KECCAK256 SWAP1 DUP2 ADD SWAP1 PUSH2 0x3436 SWAP2 SWAP1 PUSH2 0x3439 JUMP JUMPDEST POP JUMP JUMPDEST JUMPDEST DUP1 DUP3 GT ISZERO PUSH2 0x345E JUMPI DUP1 SLOAD PUSH1 0x1 PUSH1 0x1 PUSH1 0xA0 SHL SUB NOT AND DUP2 SSTORE PUSH0 PUSH1 0x1 DUP3 ADD SSTORE PUSH1 0x2 ADD PUSH2 0x343A JUMP JUMPDEST POP SWAP1 JUMP JUMPDEST PUSH0 PUSH1 0x20 DUP3 DUP5 SUB SLT ISZERO PUSH2 0x3472 JUMPI PUSH0 DUP1 REVERT JUMPDEST DUP2 CALLDATALOAD PUSH1 0x1 PUSH1 0x1 PUSH1 0x40 SHL SUB DUP2 GT ISZERO PUSH2 0x3487 JUMPI PUSH0 DUP1 REVERT JUMPDEST DUP3 ADD PUSH2 0x280 DUP2 DUP6 SUB SLT ISZERO PUSH2 0x3499 JUMPI PUSH0 DUP1 REVERT JUMPDEST SWAP4 SWAP3 POP POP POP JUMP JUMPDEST PUSH0 JUMPDEST DUP4 DUP2 LT ISZERO PUSH2 0x34BA JUMPI DUP2 DUP2 ADD MLOAD DUP4 DUP3 ADD MSTORE PUSH1 0x20 ADD PUSH2 0x34A2 JUMP JUMPDEST POP POP PUSH0 SWAP2 ADD MSTORE JUMP JUMPDEST PUSH0 DUP2 MLOAD DUP1 DUP5 MSTORE PUSH2 0x34D9 DUP2 PUSH1 0x20 DUP7 ADD PUSH1 0x20 DUP7 ADD PUSH2 0x34A0 JUMP JUMPDEST PUSH1 0x1F ADD PUSH1 0x1F NOT AND SWAP3 SWAP1 SWAP3 ADD PUSH1 0x20 ADD SWAP3 SWAP2 POP POP JUMP JUMPDEST DUP5 ISZERO ISZERO DUP2 MSTORE PUSH1 0x80 PUSH1 0x20 DUP3 ADD MSTORE PUSH0 PUSH2 0x3507 PUSH1 0x80 DUP4 ADD DUP7 PUSH2 0x34C2 JUMP JUMPDEST PUSH1 0x40 DUP4 ADD SWAP5 SWAP1 SWAP5 MSTORE POP PUSH1 0x60 ADD MSTORE SWAP3 SWAP2 POP POP JUMP JUMPDEST PUSH0 PUSH1 0x20 DUP3 DUP5 SUB SLT ISZERO PUSH2 0x352A JUMPI PUSH0 DUP1 REVERT JUMPDEST POP CALLDATALOAD SWAP2 SWAP1 POP JUMP JUMPDEST PUSH1 0x1 PUSH1 0x1 PUSH1 0xA0 SHL SUB DUP2 AND DUP2 EQ PUSH2 0x3436 JUMPI PUSH0 DUP1 REVERT JUMPDEST DUP1 CALLDATALOAD PUSH2 0x3550 DUP2 PUSH2 0x3531 JUMP JUMPDEST SWAP2 SWAP1 POP JUMP JUMPDEST PUSH0 DUP1 PUSH0 PUSH1 0x40 DUP5 DUP7 SUB SLT ISZERO PUSH2 0x3567 JUMPI PUSH0 DUP1 REVERT JUMPDEST DUP4 CALLDATALOAD PUSH2 0x3572 DUP2 PUSH2 0x3531 JUMP JUMPDEST SWAP3 POP PUSH1 0x20 DUP5 ADD CALLDATALOAD PUSH1 0x1 PUSH1 0x1 PUSH1 0x40 SHL SUB DUP1 DUP3 GT ISZERO PUSH2 0x358D JUMPI PUSH0 DUP1 REVERT JUMPDEST DUP2 DUP7 ADD SWAP2 POP DUP7 PUSH1 0x1F DUP4 ADD SLT PUSH2 0x35A0 JUMPI PUSH0 DUP1 REVERT JUMPDEST DUP2 CALLDATALOAD DUP2 DUP2 GT ISZERO PUSH2 0x35AE JUMPI PUSH0 DUP1 REVERT JUMPDEST DUP8 PUSH1 0x20 DUP3 DUP6 ADD ADD GT ISZERO PUSH2 0x35BF JUMPI PUSH0 DUP1 REVERT JUMPDEST PUSH1 0x20 DUP4 ADD SWAP5 POP DUP1 SWAP4 POP POP POP POP SWAP3 POP SWAP3 POP SWAP3 JUMP JUMPDEST PUSH0 DUP1 PUSH1 0x40 DUP4 DUP6 SUB SLT ISZERO PUSH2 0x35E3 JUMPI PUSH0 DUP1 REVERT JUMPDEST DUP3 CALLDATALOAD PUSH2 0x35EE DUP2 PUSH2 0x3531 JUMP JUMPDEST SWAP5 PUSH1 0x20 SWAP4 SWAP1 SWAP4 ADD CALLDATALOAD SWAP4 POP POP POP JUMP JUMPDEST PUSH0 DUP1 PUSH1 0x20 DUP4 DUP6 SUB SLT ISZERO PUSH2 0x360D JUMPI PUSH0 DUP1 REVERT JUMPDEST DUP3 CALLDATALOAD PUSH1 0x1 PUSH1 0x1 PUSH1 0x40 SHL SUB DUP1 DUP3 GT ISZERO PUSH2 0x3623 JUMPI PUSH0 DUP1 REVERT JUMPDEST DUP2 DUP6 ADD SWAP2 POP DUP6 PUSH1 0x1F DUP4 ADD SLT PUSH2 0x3636 JUMPI PUSH0 DUP1 REVERT JUMPDEST DUP2 CALLDATALOAD DUP2 DUP2 GT ISZERO PUSH2 0x3644 JUMPI PUSH0 DUP1 REVERT JUMPDEST DUP7 PUSH1 0x20 DUP3 PUSH1 0x5 SHL DUP6 ADD ADD GT ISZERO PUSH2 0x3658 JUMPI PUSH0 DUP1 REVERT JUMPDEST PUSH1 0x20 SWAP3 SWAP1 SWAP3 ADD SWAP7 SWAP2 SWAP6 POP SWAP1 SWAP4 POP POP POP POP JUMP JUMPDEST PUSH4 0x4E487B71 PUSH1 0xE0 SHL PUSH0 MSTORE PUSH1 0x41 PUSH1 0x4 MSTORE PUSH1 0x24 PUSH0 REVERT JUMPDEST PUSH1 0x40 DUP2 ADD DUP2 DUP2 LT PUSH1 0x1 PUSH1 0x1 PUSH1 0x40 SHL SUB DUP3 GT OR ISZERO PUSH2 0x369D JUMPI PUSH2 0x369D PUSH2 0x366A JUMP JUMPDEST PUSH1 0x40 MSTORE POP JUMP JUMPDEST PUSH1 0x1F DUP3 ADD PUSH1 0x1F NOT AND DUP2 ADD PUSH1 0x1 PUSH1 0x1 PUSH1 0x40 SHL SUB DUP2 GT DUP3 DUP3 LT OR ISZERO PUSH2 0x36C8 JUMPI PUSH2 0x36C8 PUSH2 0x366A JUMP JUMPDEST PUSH1 0x40 MSTORE POP POP JUMP JUMPDEST PUSH1 0x40 MLOAD PUSH2 0x280 DUP2 ADD PUSH1 0x1 PUSH1 0x1 PUSH1 0x40 SHL SUB DUP2 GT DUP3 DUP3 LT OR ISZERO PUSH2 0x36F2 JUMPI PUSH2 0x36F2 PUSH2 0x366A JUMP JUMPDEST PUSH1 0x40 MSTORE SWAP1 JUMP JUMPDEST DUP1 ISZERO ISZERO DUP2 EQ PUSH2 0x3436 JUMPI PUSH0 DUP1 REVERT JUMPDEST DUP1 CALLDATALOAD PUSH2 0x3550 DUP2 PUSH2 0x36F8 JUMP JUMPDEST PUSH0 PUSH1 0x1 PUSH1 0x1 PUSH1 0x40 SHL SUB DUP3 GT ISZERO PUSH2 0x3728 JUMPI PUSH2 0x3728 PUSH2 0x366A JUMP JUMPDEST POP PUSH1 0x1F ADD PUSH1 0x1F NOT AND PUSH1 0x20 ADD SWAP1 JUMP JUMPDEST PUSH0 DUP3 PUSH1 0x1F DUP4 ADD SLT PUSH2 0x3745 JUMPI PUSH0 DUP1 REVERT JUMPDEST DUP2 CALLDATALOAD PUSH2 0x3750 DUP2 PUSH2 0x3710 JUMP JUMPDEST PUSH1 0x40 MLOAD PUSH2 0x375D DUP3 DUP3 PUSH2 0x36A3 JUMP JUMPDEST DUP3 DUP2 MSTORE DUP6 PUSH1 0x20 DUP5 DUP8 ADD ADD GT ISZERO PUSH2 0x3771 JUMPI PUSH0 DUP1 REVERT JUMPDEST DUP3 PUSH1 0x20 DUP7 ADD PUSH1 0x20 DUP4 ADD CALLDATACOPY PUSH0 SWAP3 DUP2 ADD PUSH1 0x20 ADD SWAP3 SWAP1 SWAP3 MSTORE POP SWAP4 SWAP3 POP POP POP JUMP JUMPDEST PUSH0 PUSH1 0x40 DUP3 DUP5 SUB SLT ISZERO PUSH2 0x379E JUMPI PUSH0 DUP1 REVERT JUMPDEST PUSH1 0x40 MLOAD PUSH2 0x37AA DUP2 PUSH2 0x367E JUMP JUMPDEST DUP1 SWAP2 POP DUP3 CALLDATALOAD PUSH1 0x1 PUSH1 0x1 PUSH1 0x40 SHL SUB DUP2 GT ISZERO PUSH2 0x37C2 JUMPI PUSH0 DUP1 REVERT JUMPDEST PUSH2 0x37CE DUP6 DUP3 DUP7 ADD PUSH2 0x3736 JUMP JUMPDEST DUP3 MSTORE POP PUSH1 0x20 DUP4 ADD CALLDATALOAD PUSH1 0x20 DUP3 ADD MSTORE POP SWAP3 SWAP2 POP POP JUMP JUMPDEST PUSH0 PUSH1 0x1 PUSH1 0x1 PUSH1 0x40 SHL SUB DUP3 GT ISZERO PUSH2 0x37FA JUMPI PUSH2 0x37FA PUSH2 0x366A JUMP JUMPDEST POP PUSH1 0x5 SHL PUSH1 0x20 ADD SWAP1 JUMP JUMPDEST PUSH0 PUSH1 0x40 DUP3 DUP5 SUB SLT ISZERO PUSH2 0x3814 JUMPI PUSH0 DUP1 REVERT JUMPDEST PUSH1 0x40 MLOAD PUSH2 0x3820 DUP2 PUSH2 0x367E JUMP JUMPDEST DUP1 SWAP2 POP DUP3 CALLDATALOAD PUSH1 0xFF DUP2 AND DUP2 EQ PUSH2 0x3833 JUMPI PUSH0 DUP1 REVERT JUMPDEST DUP2 MSTORE PUSH1 0x20 DUP4 DUP2 ADD CALLDATALOAD PUSH1 0x1 PUSH1 0x1 PUSH1 0x40 SHL SUB DUP1 DUP3 GT ISZERO PUSH2 0x384F JUMPI PUSH0 DUP1 REVERT JUMPDEST DUP2 DUP7 ADD SWAP2 POP DUP7 PUSH1 0x1F DUP4 ADD SLT PUSH2 0x3862 JUMPI PUSH0 DUP1 REVERT JUMPDEST DUP2 CALLDATALOAD PUSH2 0x386D DUP2 PUSH2 0x37E2 JUMP JUMPDEST PUSH1 0x40 MLOAD PUSH2 0x387A DUP3 DUP3 PUSH2 0x36A3 JUMP JUMPDEST DUP3 DUP2 MSTORE PUSH1 0x5 SWAP3 SWAP1 SWAP3 SHL DUP5 ADD DUP6 ADD SWAP2 DUP6 DUP2 ADD SWAP2 POP DUP10 DUP4 GT ISZERO PUSH2 0x3899 JUMPI PUSH0 DUP1 REVERT JUMPDEST DUP6 DUP6 ADD JUMPDEST DUP4 DUP2 LT ISZERO PUSH2 0x38CF JUMPI DUP1 CALLDATALOAD DUP6 DUP2 GT ISZERO PUSH2 0x38B3 JUMPI PUSH0 DUP1 REVERT JUMPDEST PUSH2 0x38C1 DUP13 DUP10 DUP4 DUP11 ADD ADD PUSH2 0x3736 JUMP JUMPDEST DUP5 MSTORE POP SWAP2 DUP7 ADD SWAP2 DUP7 ADD PUSH2 0x389D JUMP JUMPDEST POP DUP1 DUP7 DUP9 ADD MSTORE POP POP POP POP POP POP POP SWAP3 SWAP2 POP POP JUMP JUMPDEST PUSH0 PUSH2 0x280 DUP3 DUP5 SUB SLT ISZERO PUSH2 0x38F3 JUMPI PUSH0 DUP1 REVERT JUMPDEST PUSH2 0x38FB PUSH2 0x36CF JUMP JUMPDEST SWAP1 POP DUP2 CALLDATALOAD DUP2 MSTORE PUSH2 0x390D PUSH1 0x20 DUP4 ADD PUSH2 0x3705 JUMP JUMPDEST PUSH1 0x20 DUP3 ADD MSTORE PUSH1 0x40 DUP3 ADD CALLDATALOAD PUSH1 0x40 DUP3 ADD MSTORE PUSH1 0x60 DUP3 ADD CALLDATALOAD PUSH1 0x60 DUP3 ADD MSTORE PUSH2 0x3932 PUSH1 0x80 DUP4 ADD PUSH2 0x3545 JUMP JUMPDEST PUSH1 0x80 DUP3 ADD MSTORE PUSH1 0xA0 DUP3 ADD CALLDATALOAD PUSH1 0x1 PUSH1 0x1 PUSH1 0x40 SHL SUB DUP1 DUP3 GT ISZERO PUSH2 0x3950 JUMPI PUSH0 DUP1 REVERT JUMPDEST PUSH2 0x395C DUP6 DUP4 DUP7 ADD PUSH2 0x3736 JUMP JUMPDEST PUSH1 0xA0 DUP5 ADD MSTORE PUSH1 0xC0 DUP5 ADD CALLDATALOAD PUSH1 0xC0 DUP5 ADD MSTORE PUSH1 0xE0 DUP5 ADD CALLDATALOAD SWAP2 POP DUP1 DUP3 GT ISZERO PUSH2 0x397E JUMPI PUSH0 DUP1 REVERT JUMPDEST PUSH2 0x398A DUP6 DUP4 DUP7 ADD PUSH2 0x3736 JUMP JUMPDEST PUSH1 0xE0 DUP5 ADD MSTORE PUSH2 0x100 DUP5 DUP2 ADD CALLDATALOAD SWAP1 DUP5 ADD MSTORE PUSH2 0x120 DUP1 DUP6 ADD CALLDATALOAD SWAP1 DUP5 ADD MSTORE PUSH2 0x140 SWAP2 POP DUP2 DUP5 ADD CALLDATALOAD DUP2 DUP2 GT ISZERO PUSH2 0x39BA JUMPI PUSH0 DUP1 REVERT JUMPDEST PUSH2 0x39C6 DUP7 DUP3 DUP8 ADD PUSH2 0x3736 JUMP JUMPDEST DUP4 DUP6 ADD MSTORE POP PUSH2 0x160 SWAP2 POP DUP2 DUP5 ADD CALLDATALOAD DUP2 DUP2 GT ISZERO PUSH2 0x39E0 JUMPI PUSH0 DUP1 REVERT JUMPDEST PUSH2 0x39EC DUP7 DUP3 DUP8 ADD PUSH2 0x3736 JUMP JUMPDEST DUP4 DUP6 ADD MSTORE POP PUSH2 0x180 SWAP2 POP DUP2 DUP5 ADD CALLDATALOAD DUP3 DUP5 ADD MSTORE PUSH2 0x1A0 SWAP2 POP DUP2 DUP5 ADD CALLDATALOAD DUP2 DUP2 GT ISZERO PUSH2 0x3A13 JUMPI PUSH0 DUP1 REVERT JUMPDEST PUSH2 0x3A1F DUP7 DUP3 DUP8 ADD PUSH2 0x3736 JUMP JUMPDEST DUP4 DUP6 ADD MSTORE POP PUSH2 0x1C0 SWAP2 POP DUP2 DUP5 ADD CALLDATALOAD DUP2 DUP2 GT ISZERO PUSH2 0x3A39 JUMPI PUSH0 DUP1 REVERT JUMPDEST PUSH2 0x3A45 DUP7 DUP3 DUP8 ADD PUSH2 0x3736 JUMP JUMPDEST DUP4 DUP6 ADD MSTORE POP PUSH2 0x1E0 SWAP2 POP PUSH2 0x3A5A DUP3 DUP6 ADD PUSH2 0x3545 JUMP JUMPDEST DUP3 DUP5 ADD MSTORE PUSH2 0x200 SWAP2 POP PUSH2 0x3A6E DUP3 DUP6 ADD PUSH2 0x3545 JUMP JUMPDEST DUP3 DUP5 ADD MSTORE PUSH2 0x220 SWAP2 POP DUP2 DUP5 ADD CALLDATALOAD DUP2 DUP2 GT ISZERO PUSH2 0x3A87 JUMPI PUSH0 DUP1 REVERT JUMPDEST PUSH2 0x3A93 DUP7 DUP3 DUP8 ADD PUSH2 0x378E JUMP JUMPDEST DUP4 DUP6 ADD MSTORE POP PUSH2 0x240 SWAP2 POP DUP2 DUP5 ADD CALLDATALOAD DUP2 DUP2 GT ISZERO PUSH2 0x3AAD JUMPI PUSH0 DUP1 REVERT JUMPDEST PUSH2 0x3AB9 DUP7 DUP3 DUP8 ADD PUSH2 0x3804 JUMP JUMPDEST DUP4 DUP6 ADD MSTORE POP PUSH2 0x260 SWAP2 POP DUP2 DUP5 ADD CALLDATALOAD DUP2 DUP2 GT ISZERO PUSH2 0x3AD3 JUMPI PUSH0 DUP1 REVERT JUMPDEST PUSH2 0x3ADF DUP7 DUP3 DUP8 ADD PUSH2 0x3736 JUMP JUMPDEST DUP4 DUP6 ADD MSTORE POP POP POP SWAP3 SWAP2 POP POP JUMP JUMPDEST PUSH0 PUSH1 0x20 DUP3 DUP5 SUB SLT ISZERO PUSH2 0x3AFC JUMPI PUSH0 DUP1 REVERT JUMPDEST DUP2 CALLDATALOAD PUSH1 0x1 PUSH1 0x1 PUSH1 0x40 SHL SUB DUP2 GT ISZERO PUSH2 0x3B11 JUMPI PUSH0 DUP1 REVERT JUMPDEST PUSH2 0x2F52 DUP5 DUP3 DUP6 ADD PUSH2 0x38E2 JUMP JUMPDEST PUSH0 PUSH1 0x20 DUP3 DUP5 SUB SLT ISZERO PUSH2 0x3B2D JUMPI PUSH0 DUP1 REVERT JUMPDEST DUP2 MLOAD PUSH2 0x3499 DUP2 PUSH2 0x3531 JUMP JUMPDEST PUSH0 PUSH2 0x3222 CALLDATASIZE DUP4 PUSH2 0x38E2 JUMP JUMPDEST PUSH4 0x4E487B71 PUSH1 0xE0 SHL PUSH0 MSTORE PUSH1 0x11 PUSH1 0x4 MSTORE PUSH1 0x24 PUSH0 REVERT JUMPDEST DUP1 DUP3 MUL DUP2 ISZERO DUP3 DUP3 DIV DUP5 EQ OR PUSH2 0x3222 JUMPI PUSH2 0x3222 PUSH2 0x3B43 JUMP JUMPDEST DUP1 DUP3 ADD DUP1 DUP3 GT ISZERO PUSH2 0x3222 JUMPI PUSH2 0x3222 PUSH2 0x3B43 JUMP JUMPDEST DUP2 DUP2 SUB DUP2 DUP2 GT ISZERO PUSH2 0x3222 JUMPI PUSH2 0x3222 PUSH2 0x3B43 JUMP JUMPDEST PUSH0 DUP1 DUP4 CALLDATALOAD PUSH1 0x1E NOT DUP5 CALLDATASIZE SUB ADD DUP2 SLT PUSH2 0x3BA9 JUMPI PUSH0 DUP1 REVERT JUMPDEST DUP4 ADD DUP1 CALLDATALOAD SWAP2 POP PUSH1 0x1 PUSH1 0x1 PUSH1 0x40 SHL SUB DUP3 GT ISZERO PUSH2 0x3BC2 JUMPI PUSH0 DUP1 REVERT JUMPDEST PUSH1 0x20 ADD SWAP2 POP CALLDATASIZE DUP2 SWAP1 SUB DUP3 SGT ISZERO PUSH2 0x3BD6 JUMPI PUSH0 DUP1 REVERT JUMPDEST SWAP3 POP SWAP3 SWAP1 POP JUMP JUMPDEST PUSH0 DUP3 PUSH2 0x3BF7 JUMPI PUSH4 0x4E487B71 PUSH1 0xE0 SHL PUSH0 MSTORE PUSH1 0x12 PUSH1 0x4 MSTORE PUSH1 0x24 PUSH0 REVERT JUMPDEST POP DIV SWAP1 JUMP JUMPDEST DUP2 DUP4 MSTORE DUP2 DUP2 PUSH1 0x20 DUP6 ADD CALLDATACOPY POP PUSH0 DUP3 DUP3 ADD PUSH1 0x20 SWAP1 DUP2 ADD SWAP2 SWAP1 SWAP2 MSTORE PUSH1 0x1F SWAP1 SWAP2 ADD PUSH1 0x1F NOT AND SWAP1 SWAP2 ADD ADD SWAP1 JUMP JUMPDEST PUSH1 0x20 DUP2 MSTORE PUSH0 PUSH2 0x2F52 PUSH1 0x20 DUP4 ADD DUP5 DUP7 PUSH2 0x3BFC JUMP JUMPDEST PUSH32 0x666565207265696D62757273656D656E74206661696C65643A20000000000000 DUP2 MSTORE PUSH0 DUP3 MLOAD PUSH2 0x3C6E DUP2 PUSH1 0x1A DUP6 ADD PUSH1 0x20 DUP8 ADD PUSH2 0x34A0 JUMP JUMPDEST SWAP2 SWAP1 SWAP2 ADD PUSH1 0x1A ADD SWAP3 SWAP2 POP POP JUMP JUMPDEST PUSH1 0x20 DUP2 MSTORE PUSH0 PUSH2 0x3499 PUSH1 0x20 DUP4 ADD DUP5 PUSH2 0x34C2 JUMP JUMPDEST PUSH0 PUSH1 0x20 DUP3 DUP5 SUB SLT ISZERO PUSH2 0x3C9D JUMPI PUSH0 DUP1 REVERT JUMPDEST DUP2 CALLDATALOAD PUSH2 0x3499 DUP2 PUSH2 0x3531 JUMP JUMPDEST DUP5 DUP2 MSTORE DUP4 PUSH1 0x20 DUP3 ADD MSTORE PUSH1 0x1 DUP1 PUSH1 0xA0 SHL SUB DUP4 AND PUSH1 0x40 DUP3 ADD MSTORE PUSH1 0x80 PUSH1 0x60 DUP3 ADD MSTORE PUSH0 PUSH2 0x3CD4 PUSH1 0x80 DUP4 ADD DUP5 PUSH2 0x34C2 JUMP JUMPDEST SWAP7 SWAP6 POP POP POP POP POP POP JUMP JUMPDEST PUSH1 0x20 DUP1 DUP3 MSTORE PUSH1 0x1F SWAP1 DUP3 ADD MSTORE PUSH32 0x63616C6C6572206E6F7420657874656E73696F6E20696E20636F6E7465787400 PUSH1 0x40 DUP3 ADD MSTORE PUSH1 0x60 ADD SWAP1 JUMP JUMPDEST PUSH0 PUSH2 0x3D1F DUP4 PUSH2 0x3710 JUMP JUMPDEST PUSH1 0x40 MLOAD PUSH2 0x3D2C DUP3 DUP3 PUSH2 0x36A3 JUMP JUMPDEST DUP1 SWAP3 POP DUP5 DUP2 MSTORE DUP6 DUP6 DUP6 ADD GT ISZERO PUSH2 0x3D40 JUMPI PUSH0 DUP1 REVERT JUMPDEST PUSH2 0x3D4E DUP6 PUSH1 0x20 DUP4 ADD DUP7 PUSH2 0x34A0 JUMP JUMPDEST POP POP SWAP4 SWAP3 POP POP POP JUMP JUMPDEST PUSH0 DUP3 PUSH1 0x1F DUP4 ADD SLT PUSH2 0x3D66 JUMPI PUSH0 DUP1 REVERT JUMPDEST PUSH2 0x3499 DUP4 DUP4 MLOAD PUSH1 0x20 DUP6 ADD PUSH2 0x3D15 JUMP JUMPDEST PUSH0 PUSH1 0x20 DUP3 DUP5 SUB SLT ISZERO PUSH2 0x3D85 JUMPI PUSH0 DUP1 REVERT JUMPDEST DUP2 MLOAD PUSH1 0x1 PUSH1 0x1 PUSH1 0x40 SHL SUB DUP2 GT ISZERO PUSH2 0x3D9A JUMPI PUSH0 DUP1 REVERT JUMPDEST PUSH2 0x2F52 DUP5 DUP3 DUP6 ADD PUSH2 0x3D57 JUMP JUMPDEST PUSH1 0x1 DUP1 PUSH1 0xA0 SHL SUB DUP6 AND DUP2 MSTORE DUP4 PUSH1 0x20 DUP3 ADD MSTORE PUSH1 0x60 PUSH1 0x40 DUP3 ADD MSTORE PUSH0 PUSH2 0x3CD4 PUSH1 0x60 DUP4 ADD DUP5 DUP7 PUSH2 0x3BFC JUMP JUMPDEST PUSH4 0x4E487B71 PUSH1 0xE0 SHL PUSH0 MSTORE PUSH1 0x32 PUSH1 0x4 MSTORE PUSH1 0x24 PUSH0 REVERT JUMPDEST PUSH22 0x3932B8BAB2B9BA103A37B5B2B7103330B4B632B21D1 PUSH1 0x55 SHL DUP2 MSTORE PUSH0 DUP3 MLOAD PUSH2 0x3E11 DUP2 PUSH1 0x16 DUP6 ADD PUSH1 0x20 DUP8 ADD PUSH2 0x34A0 JUMP JUMPDEST SWAP2 SWAP1 SWAP2 ADD PUSH1 0x16 ADD SWAP3 SWAP2 POP POP JUMP JUMPDEST PUSH1 0x20 DUP1 DUP3 MSTORE DUP2 DUP2 ADD DUP4 SWAP1 MSTORE PUSH0 SWAP1 PUSH1 0x40 PUSH1 0x5 DUP6 SWAP1 SHL DUP5 ADD DUP2 ADD SWAP1 DUP5 ADD DUP7 DUP5 JUMPDEST DUP8 DUP2 LT ISZERO PUSH2 0x3EA8 JUMPI DUP7 DUP5 SUB PUSH1 0x3F NOT ADD DUP4 MSTORE DUP2 CALLDATALOAD CALLDATASIZE DUP11 SWAP1 SUB PUSH1 0x1E NOT ADD DUP2 SLT PUSH2 0x3E61 JUMPI PUSH0 DUP1 REVERT JUMPDEST DUP10 ADD DUP6 DUP2 ADD SWAP1 CALLDATALOAD PUSH1 0x1 PUSH1 0x1 PUSH1 0x40 SHL SUB DUP2 GT ISZERO PUSH2 0x3E7B JUMPI PUSH0 DUP1 REVERT JUMPDEST DUP1 CALLDATASIZE SUB DUP3 SGT ISZERO PUSH2 0x3E89 JUMPI PUSH0 DUP1 REVERT JUMPDEST PUSH2 0x3E94 DUP7 DUP3 DUP5 PUSH2 0x3BFC JUMP JUMPDEST SWAP6 POP POP POP SWAP2 DUP5 ADD SWAP2 SWAP1 DUP5 ADD SWAP1 PUSH1 0x1 ADD PUSH2 0x3E3C JUMP JUMPDEST POP SWAP2 SWAP8 SWAP7 POP POP POP POP POP POP POP JUMP JUMPDEST PUSH0 PUSH1 0x20 DUP3 DUP5 SUB SLT ISZERO PUSH2 0x3EC5 JUMPI PUSH0 DUP1 REVERT JUMPDEST POP MLOAD SWAP2 SWAP1 POP JUMP JUMPDEST PUSH0 PUSH1 0x60 DUP3 DUP5 SUB SLT ISZERO PUSH2 0x3EDC JUMPI PUSH0 DUP1 REVERT JUMPDEST PUSH1 0x40 MLOAD PUSH1 0x60 DUP2 ADD DUP2 DUP2 LT PUSH1 0x1 PUSH1 0x1 PUSH1 0x40 SHL SUB DUP3 GT OR ISZERO PUSH2 0x3EFE JUMPI PUSH2 0x3EFE PUSH2 0x366A JUMP JUMPDEST PUSH1 0x40 MSTORE DUP3 MLOAD PUSH2 0x3F0C DUP2 PUSH2 0x3531 JUMP JUMPDEST DUP2 MSTORE PUSH1 0x20 DUP4 ADD MLOAD PUSH2 0x3F1C DUP2 PUSH2 0x36F8 JUMP JUMPDEST PUSH1 0x20 DUP3 ADD MSTORE PUSH1 0x40 SWAP3 DUP4 ADD MLOAD SWAP3 DUP2 ADD SWAP3 SWAP1 SWAP3 MSTORE POP SWAP2 SWAP1 POP JUMP JUMPDEST PUSH0 PUSH1 0x20 DUP3 DUP5 SUB SLT ISZERO PUSH2 0x3F44 JUMPI PUSH0 DUP1 REVERT JUMPDEST DUP2 MLOAD PUSH2 0x3499 DUP2 PUSH2 0x36F8 JUMP JUMPDEST DUP4 DUP2 MSTORE PUSH1 0x60 PUSH1 0x20 DUP3 ADD MSTORE PUSH0 PUSH2 0x3F67 PUSH1 0x60 DUP4 ADD DUP6 PUSH2 0x34C2 JUMP JUMPDEST SWAP1 POP DUP3 PUSH1 0x40 DUP4 ADD MSTORE SWAP5 SWAP4 POP POP POP POP JUMP JUMPDEST PUSH0 DUP2 MLOAD PUSH1 0x40 DUP5 MSTORE PUSH2 0x3F8B PUSH1 0x40 DUP6 ADD DUP3 PUSH2 0x34C2 JUMP JUMPDEST PUSH1 0x20 SWAP4 DUP5 ADD MLOAD SWAP5 SWAP1 SWAP4 ADD SWAP4 SWAP1 SWAP4 MSTORE POP SWAP2 SWAP1 POP JUMP JUMPDEST PUSH0 PUSH1 0x40 DUP4 ADD PUSH1 0xFF DUP4 MLOAD AND DUP5 MSTORE PUSH1 0x20 DUP1 DUP5 ADD MLOAD PUSH1 0x40 PUSH1 0x20 DUP8 ADD MSTORE DUP3 DUP2 MLOAD DUP1 DUP6 MSTORE PUSH1 0x60 DUP9 ADD SWAP2 POP PUSH1 0x60 DUP2 PUSH1 0x5 SHL DUP10 ADD ADD SWAP5 POP PUSH1 0x20 DUP4 ADD SWAP3 POP PUSH0 JUMPDEST DUP2 DUP2 LT ISZERO PUSH2 0x4005 JUMPI PUSH1 0x5F NOT DUP10 DUP8 SUB ADD DUP4 MSTORE PUSH2 0x3FF3 DUP7 DUP6 MLOAD PUSH2 0x34C2 JUMP JUMPDEST SWAP6 POP SWAP3 DUP5 ADD SWAP3 SWAP2 DUP5 ADD SWAP2 PUSH1 0x1 ADD PUSH2 0x3FD7 JUMP JUMPDEST POP SWAP4 SWAP8 SWAP7 POP POP POP POP POP POP POP JUMP JUMPDEST PUSH1 0x60 DUP2 MSTORE DUP4 MLOAD PUSH1 0x60 DUP3 ADD MSTORE PUSH0 PUSH1 0x20 DUP6 ADD MLOAD PUSH2 0x4031 PUSH1 0x80 DUP5 ADD DUP3 ISZERO ISZERO SWAP1 MSTORE JUMP JUMPDEST POP PUSH1 0x40 DUP6 ADD MLOAD PUSH1 0xA0 DUP4 ADD MSTORE PUSH1 0x60 DUP6 ADD MLOAD PUSH1 0xC0 DUP4 ADD MSTORE PUSH1 0x80 DUP6 ADD MLOAD PUSH1 0x1 PUSH1 0x1 PUSH1 0xA0 SHL SUB DUP2 AND PUSH1 0xE0 DUP5 ADD MSTORE POP PUSH1 0xA0 DUP6 ADD MLOAD PUSH2 0x280 PUSH2 0x100 DUP2 DUP2 DUP7 ADD MSTORE PUSH2 0x4079 PUSH2 0x2E0 DUP7 ADD DUP5 PUSH2 0x34C2 JUMP JUMPDEST SWAP3 POP PUSH1 0xC0 DUP9 ADD MLOAD PUSH2 0x120 DUP2 DUP2 DUP9 ADD MSTORE PUSH1 0xE0 DUP11 ADD MLOAD SWAP2 POP PUSH1 0x5F NOT PUSH2 0x140 DUP2 DUP10 DUP9 SUB ADD DUP2 DUP11 ADD MSTORE PUSH2 0x40A8 DUP8 DUP6 PUSH2 0x34C2 JUMP JUMPDEST SWAP7 POP DUP5 DUP13 ADD MLOAD SWAP5 POP PUSH2 0x160 SWAP4 POP DUP5 DUP5 DUP11 ADD MSTORE DUP3 DUP13 ADD MLOAD SWAP5 POP PUSH2 0x180 SWAP3 POP DUP5 DUP4 DUP11 ADD MSTORE DUP1 DUP13 ADD MLOAD SWAP5 POP POP PUSH2 0x1A0 DUP2 DUP10 DUP9 SUB ADD DUP2 DUP11 ADD MSTORE PUSH2 0x40E7 DUP8 DUP7 PUSH2 0x34C2 JUMP JUMPDEST SWAP7 POP DUP4 DUP13 ADD MLOAD SWAP5 POP PUSH2 0x1C0 SWAP4 POP DUP2 DUP10 DUP9 SUB ADD DUP5 DUP11 ADD MSTORE PUSH2 0x4107 DUP8 DUP7 PUSH2 0x34C2 JUMP JUMPDEST SWAP7 POP DUP3 DUP13 ADD MLOAD SWAP5 POP PUSH2 0x1E0 SWAP3 POP DUP5 DUP4 DUP11 ADD MSTORE DUP1 DUP13 ADD MLOAD SWAP5 POP POP PUSH2 0x200 DUP2 DUP10 DUP9 SUB ADD DUP2 DUP11 ADD MSTORE PUSH2 0x4136 DUP8 DUP7 PUSH2 0x34C2 JUMP JUMPDEST SWAP7 POP DUP4 DUP13 ADD MLOAD SWAP5 POP PUSH2 0x220 SWAP4 POP DUP2 DUP10 DUP9 SUB ADD DUP5 DUP11 ADD MSTORE PUSH2 0x4156 DUP8 DUP7 PUSH2 0x34C2 JUMP JUMPDEST SWAP7 POP DUP3 DUP13 ADD MLOAD SWAP5 POP PUSH2 0x240 SWAP3 POP PUSH2 0x4177 DUP4 DUP11 ADD DUP7 PUSH1 0x1 PUSH1 0x1 PUSH1 0xA0 SHL SUB AND SWAP1 MSTORE JUMP JUMPDEST DUP12 ADD MLOAD SWAP4 POP PUSH2 0x260 PUSH2 0x4193 DUP10 DUP3 ADD DUP7 PUSH1 0x1 PUSH1 0x1 PUSH1 0xA0 SHL SUB AND SWAP1 MSTORE JUMP JUMPDEST DUP4 DUP13 ADD MLOAD SWAP5 POP DUP2 DUP10 DUP9 SUB ADD DUP7 DUP11 ADD MSTORE PUSH2 0x41AC DUP8 DUP7 PUSH2 0x3F77 JUMP JUMPDEST SWAP7 POP DUP3 DUP13 ADD MLOAD SWAP6 POP DUP2 DUP10 DUP9 SUB ADD PUSH2 0x2A0 DUP11 ADD MSTORE PUSH2 0x41C9 DUP8 DUP8 PUSH2 0x3F9F JUMP JUMPDEST SWAP7 POP DUP1 DUP13 ADD MLOAD SWAP6 POP POP DUP1 DUP9 DUP8 SUB ADD PUSH2 0x2C0 DUP10 ADD MSTORE POP POP POP POP PUSH2 0x41EB DUP3 DUP3 PUSH2 0x34C2 JUMP JUMPDEST SWAP3 POP POP POP PUSH2 0x4204 PUSH1 0x20 DUP4 ADD DUP6 PUSH1 0x1 PUSH1 0x1 PUSH1 0xA0 SHL SUB AND SWAP1 MSTORE JUMP JUMPDEST PUSH1 0x1 PUSH1 0x1 PUSH1 0xA0 SHL SUB DUP4 AND PUSH1 0x40 DUP4 ADD MSTORE PUSH2 0x2F52 JUMP JUMPDEST PUSH0 DUP1 PUSH1 0x40 DUP4 DUP6 SUB SLT ISZERO PUSH2 0x4229 JUMPI PUSH0 DUP1 REVERT JUMPDEST DUP3 MLOAD PUSH1 0x1 PUSH1 0x1 PUSH1 0x40 SHL SUB DUP2 GT ISZERO PUSH2 0x423E JUMPI PUSH0 DUP1 REVERT JUMPDEST PUSH2 0x424A DUP6 DUP3 DUP7 ADD PUSH2 0x3D57 JUMP JUMPDEST SWAP3 POP POP PUSH1 0x20 DUP4 ADD MLOAD PUSH2 0x425B DUP2 PUSH2 0x36F8 JUMP JUMPDEST DUP1 SWAP2 POP POP SWAP3 POP SWAP3 SWAP1 POP JUMP JUMPDEST PUSH11 0x39BAB13532B1BA10109E9 PUSH1 0xAD SHL DUP2 MSTORE PUSH0 DUP3 MLOAD PUSH2 0x428B DUP2 PUSH1 0xB DUP6 ADD PUSH1 0x20 DUP8 ADD PUSH2 0x34A0 JUMP JUMPDEST SWAP2 SWAP1 SWAP2 ADD PUSH1 0xB ADD SWAP3 SWAP2 POP POP JUMP JUMPDEST PUSH0 PUSH2 0x140 DUP1 DUP4 MSTORE PUSH2 0x42AB DUP2 DUP5 ADD DUP15 PUSH2 0x34C2 JUMP JUMPDEST SWAP1 POP DUP12 PUSH1 0x20 DUP5 ADD MSTORE DUP11 PUSH1 0x40 DUP5 ADD MSTORE DUP3 DUP2 SUB PUSH1 0x60 DUP5 ADD MSTORE PUSH2 0x42CB DUP2 DUP12 PUSH2 0x34C2 JUMP JUMPDEST SWAP1 POP DUP9 PUSH1 0x80 DUP5 ADD MSTORE DUP8 PUSH1 0xA0 DUP5 ADD MSTORE DUP7 PUSH1 0xC0 DUP5 ADD MSTORE DUP6 ISZERO ISZERO PUSH1 0xE0 DUP5 ADD MSTORE DUP5 PUSH2 0x100 DUP5 ADD MSTORE DUP3 DUP2 SUB PUSH2 0x120 DUP5 ADD MSTORE PUSH2 0x4301 DUP2 DUP6 PUSH2 0x34C2 JUMP JUMPDEST SWAP14 SWAP13 POP POP POP POP POP POP POP POP POP POP POP POP POP JUMP JUMPDEST PUSH1 0x1 PUSH1 0x1 PUSH1 0xA0 SHL SUB DUP8 DUP2 AND DUP3 MSTORE DUP7 AND PUSH1 0x20 DUP3 ADD MSTORE PUSH1 0x40 DUP2 ADD DUP6 SWAP1 MSTORE PUSH1 0xA0 PUSH1 0x60 DUP3 ADD DUP2 SWAP1 MSTORE PUSH0 SWAP1 PUSH2 0x4345 SWAP1 DUP4 ADD DUP6 DUP8 PUSH2 0x3BFC JUMP JUMPDEST SWAP1 POP DUP3 ISZERO ISZERO PUSH1 0x80 DUP4 ADD MSTORE SWAP8 SWAP7 POP POP POP POP POP POP POP JUMP JUMPDEST PUSH1 0x1 DUP1 PUSH1 0xA0 SHL SUB DUP5 AND DUP2 MSTORE DUP3 PUSH1 0x20 DUP3 ADD MSTORE PUSH1 0x60 PUSH1 0x40 DUP3 ADD MSTORE PUSH0 PUSH2 0x4380 PUSH1 0x60 DUP4 ADD DUP5 PUSH2 0x34C2 JUMP JUMPDEST SWAP6 SWAP5 POP POP POP POP POP JUMP JUMPDEST PUSH0 PUSH1 0x3 RETURNDATASIZE GT ISZERO PUSH2 0x439F JUMPI PUSH1 0x4 PUSH0 DUP1 RETURNDATACOPY POP PUSH0 MLOAD PUSH1 0xE0 SHR JUMPDEST SWAP1 JUMP JUMPDEST PUSH0 PUSH1 0x44 RETURNDATASIZE LT ISZERO PUSH2 0x43AF JUMPI SWAP1 JUMP JUMPDEST PUSH1 0x40 MLOAD PUSH1 0x3 NOT RETURNDATASIZE DUP2 ADD PUSH1 0x4 DUP4 RETURNDATACOPY DUP2 MLOAD RETURNDATASIZE PUSH1 0x1 PUSH1 0x1 PUSH1 0x40 SHL SUB DUP2 PUSH1 0x24 DUP5 ADD GT DUP2 DUP5 GT OR ISZERO PUSH2 0x43DE JUMPI POP POP POP POP POP SWAP1 JUMP JUMPDEST DUP3 DUP6 ADD SWAP2 POP DUP2 MLOAD DUP2 DUP2 GT ISZERO PUSH2 0x43F6 JUMPI POP POP POP POP POP POP SWAP1 JUMP JUMPDEST DUP5 RETURNDATASIZE DUP8 ADD ADD PUSH1 0x20 DUP3 DUP6 ADD ADD GT ISZERO PUSH2 0x4410 JUMPI POP POP POP POP POP POP SWAP1 JUMP JUMPDEST PUSH2 0x441F PUSH1 0x20 DUP3 DUP7 ADD ADD DUP8 PUSH2 0x36A3 JUMP JUMPDEST POP SWAP1 SWAP6 SWAP5 POP POP POP POP POP JUMP JUMPDEST PUSH0 DUP1 PUSH0 PUSH1 0x60 DUP5 DUP7 SUB SLT ISZERO PUSH2 0x443C JUMPI PUSH0 DUP1 REVERT JUMPDEST DUP4 MLOAD PUSH2 0x4447 DUP2 PUSH2 0x3531 JUMP JUMPDEST PUSH1 0x20 DUP6 ADD MLOAD PUSH1 0x40 DUP7 ADD MLOAD SWAP2 SWAP5 POP SWAP3 POP PUSH1 0x1 PUSH1 0x1 PUSH1 0x40 SHL SUB DUP2 GT ISZERO PUSH2 0x4469 JUMPI PUSH0 DUP1 REVERT JUMPDEST DUP5 ADD PUSH1 0x1F DUP2 ADD DUP7 SGT PUSH2 0x4479 JUMPI PUSH0 DUP1 REVERT JUMPDEST PUSH2 0x4488 DUP7 DUP3 MLOAD PUSH1 0x20 DUP5 ADD PUSH2 0x3D15 JUMP JUMPDEST SWAP2 POP POP SWAP3 POP SWAP3 POP SWAP3 JUMP JUMPDEST PUSH0 PUSH1 0x1 DUP1 PUSH1 0xA0 SHL SUB DUP1 DUP7 AND DUP4 MSTORE PUSH1 0x60 PUSH1 0x20 DUP5 ADD MSTORE PUSH2 0x44B3 PUSH1 0x60 DUP5 ADD DUP7 PUSH2 0x34C2 JUMP JUMPDEST SWAP2 POP DUP1 DUP5 AND PUSH1 0x40 DUP5 ADD MSTORE POP SWAP5 SWAP4 POP POP POP POP JUMP JUMPDEST PUSH1 0x1 PUSH1 0x1 PUSH1 0xA0 SHL SUB DUP4 AND DUP2 MSTORE PUSH1 0x40 PUSH1 0x20 DUP3 ADD DUP2 SWAP1 MSTORE PUSH0 SWAP1 PUSH2 0x2F52 SWAP1 DUP4 ADD DUP5 PUSH2 0x34C2 JUMP JUMPDEST PUSH0 PUSH1 0x20 DUP3 DUP5 SUB SLT ISZERO PUSH2 0x44F9 JUMPI PUSH0 DUP1 REVERT JUMPDEST DUP2 MLOAD PUSH1 0x1 PUSH1 0x1 PUSH1 0x40 SHL SUB DUP1 DUP3 GT ISZERO PUSH2 0x450F JUMPI PUSH0 DUP1 REVERT JUMPDEST DUP2 DUP5 ADD SWAP2 POP DUP5 PUSH1 0x1F DUP4 ADD SLT PUSH2 0x4522 JUMPI PUSH0 DUP1 REVERT JUMPDEST DUP2 MLOAD PUSH2 0x452D DUP2 PUSH2 0x37E2 JUMP JUMPDEST PUSH1 0x40 MLOAD PUSH2 0x453A DUP3 DUP3 PUSH2 0x36A3 JUMP JUMPDEST DUP1 SWAP2 POP DUP3 DUP2 MSTORE PUSH1 0x20 DUP2 ADD SWAP2 POP PUSH1 0x20 DUP4 PUSH1 0x5 SHL DUP7 ADD ADD SWAP3 POP DUP8 DUP4 GT ISZERO PUSH2 0x455D JUMPI PUSH0 DUP1 REVERT JUMPDEST PUSH1 0x20 DUP6 ADD JUMPDEST DUP4 DUP2 LT ISZERO PUSH2 0x4613 JUMPI DUP1 MLOAD DUP6 DUP2 GT ISZERO PUSH2 0x4578 JUMPI PUSH0 DUP1 REVERT JUMPDEST DUP7 ADD PUSH1 0x3F DUP2 ADD DUP11 SGT PUSH2 0x4588 JUMPI PUSH0 DUP1 REVERT JUMPDEST PUSH1 0x20 DUP2 ADD MLOAD PUSH2 0x4596 DUP2 PUSH2 0x37E2 JUMP JUMPDEST PUSH1 0x40 MLOAD PUSH2 0x45A3 DUP3 DUP3 PUSH2 0x36A3 JUMP JUMPDEST DUP3 DUP2 MSTORE PUSH1 0x5 SWAP3 SWAP1 SWAP3 SHL DUP4 ADD PUSH1 0x40 ADD SWAP2 PUSH1 0x20 DUP2 ADD SWAP2 POP DUP13 DUP4 GT ISZERO PUSH2 0x45C4 JUMPI PUSH0 DUP1 REVERT JUMPDEST PUSH1 0x40 DUP5 ADD JUMPDEST DUP4 DUP2 LT ISZERO PUSH2 0x45FD JUMPI DUP1 MLOAD DUP11 DUP2 GT ISZERO PUSH2 0x45DF JUMPI PUSH0 DUP1 REVERT JUMPDEST PUSH2 0x45EE DUP16 PUSH1 0x40 DUP4 DUP10 ADD ADD PUSH2 0x3D57 JUMP JUMPDEST DUP5 MSTORE POP PUSH1 0x20 SWAP3 DUP4 ADD SWAP3 ADD PUSH2 0x45C9 JUMP JUMPDEST POP DUP7 MSTORE POP POP PUSH1 0x20 SWAP4 DUP5 ADD SWAP4 SWAP2 SWAP1 SWAP2 ADD SWAP1 POP PUSH2 0x4562 JUMP JUMPDEST POP SWAP8 SWAP7 POP POP POP POP POP POP POP JUMP JUMPDEST PUSH0 DUP1 PUSH1 0x40 DUP4 DUP6 SUB SLT ISZERO PUSH2 0x4630 JUMPI PUSH0 DUP1 REVERT JUMPDEST DUP3 MLOAD SWAP2 POP PUSH1 0x20 DUP4 ADD MLOAD PUSH1 0x1 PUSH1 0x1 PUSH1 0x40 SHL SUB DUP2 GT ISZERO PUSH2 0x464C JUMPI PUSH0 DUP1 REVERT JUMPDEST PUSH2 0x4658 DUP6 DUP3 DUP7 ADD PUSH2 0x3D57 JUMP JUMPDEST SWAP2 POP POP SWAP3 POP SWAP3 SWAP1 POP JUMP JUMPDEST PUSH0 PUSH1 0xFF DUP3 AND PUSH1 0xFF DUP2 SUB PUSH2 0x4677 JUMPI PUSH2 0x4677 PUSH2 0x3B43 JUMP JUMPDEST PUSH1 0x1 ADD SWAP3 SWAP2 POP POP JUMP JUMPDEST PUSH0 PUSH1 0xC0 DUP3 ADD PUSH1 0xFF DUP10 AND DUP4 MSTORE PUSH1 0x20 PUSH1 0xC0 PUSH1 0x20 DUP6 ADD MSTORE DUP2 DUP10 MLOAD DUP1 DUP5 MSTORE PUSH1 0xE0 DUP7 ADD SWAP2 POP PUSH1 0xE0 DUP2 PUSH1 0x5 SHL DUP8 ADD ADD SWAP4 POP PUSH1 0x20 DUP12 ADD PUSH0 JUMPDEST DUP3 DUP2 LT ISZERO PUSH2 0x46DF JUMPI PUSH1 0xDF NOT DUP9 DUP8 SUB ADD DUP5 MSTORE PUSH2 0x46CD DUP7 DUP4 MLOAD PUSH2 0x34C2 JUMP JUMPDEST SWAP6 POP SWAP3 DUP5 ADD SWAP3 SWAP1 DUP5 ADD SWAP1 PUSH1 0x1 ADD PUSH2 0x46B1 JUMP JUMPDEST POP POP POP POP PUSH1 0x1 PUSH1 0x1 PUSH1 0xA0 SHL SUB SWAP8 DUP9 AND PUSH1 0x40 DUP6 ADD MSTORE POP SWAP5 ISZERO ISZERO PUSH1 0x60 DUP4 ADD MSTORE POP SWAP2 SWAP1 SWAP4 AND PUSH1 0x80 DUP3 ADD MSTORE PUSH1 0xA0 ADD SWAP2 SWAP1 SWAP2 MSTORE SWAP3 SWAP2 POP POP JUMP JUMPDEST PUSH0 DUP3 MLOAD PUSH2 0x4724 DUP2 DUP5 PUSH1 0x20 DUP8 ADD PUSH2 0x34A0 JUMP JUMPDEST SWAP2 SWAP1 SWAP2 ADD SWAP3 SWAP2 POP POP JUMP INVALID PUSH6 0x727220657865 PUSH4 0x7574696E PUSH8 0x207472616E736665 PUSH19 0x4F776E657273686970206F6E2077616C6C6574 LOG2 PUSH5 0x6970667358 0x22 SLT KECCAK256 CALL PUSH20 0xF857F013292FC5835452D3EDE5BDF5A9E11DE0E6 0xF6 0xD7 DUP7 0xE3 0xF 0x1F EXP 0xDD AND 0xD5 PUSH5 0x736F6C6343 STOP ADDMOD AND STOP CALLER "
		},
		"gasEstimates": {
			"creation": {
				"codeDepositCost": "3663400",
				"executionCost": "infinite",
				"totalCost": "infinite"
			},
			"external": {
				"": "infinite",
				"accountHandler()": "2381",
				"depositTokenAsExtension(address,uint256)": "infinite",
				"emailNullifiers(bytes32)": "2493",
				"emailValidityDuration()": "infinite",
				"executeAsExtension(address,bytes)": "infinite",
				"extensionHandler()": "2447",
				"handleEmailOp((bytes32,bool,bytes32,uint256,address,string,bytes32,string,bytes32,uint256,string,string,uint256,bytes,string,address,address,(string,uint256),(uint8,bytes[]),bytes))": "infinite",
				"initialize(bytes[])": "infinite",
				"maxFeePerGas()": "infinite",
				"priceOracle()": "infinite",
				"registerUnclaimedStateAsExtension(address,bytes)": "infinite",
				"relayerHandler()": "2424",
				"requestTokenAsExtension(address,uint256)": "infinite",
				"tokenRegistry()": "infinite",
				"unclaimedFundClaimGas()": "infinite",
				"unclaimedStateClaimGas()": "infinite",
				"unclaimsHandler()": "2446",
				"validateEmailOp((bytes32,bool,bytes32,uint256,address,string,bytes32,string,bytes32,uint256,string,string,uint256,bytes,string,address,address,(string,uint256),(uint8,bytes[]),bytes))": "infinite",
				"verifier()": "infinite",
				"wethContract()": "infinite"
			},
			"internal": {
				"_executeEmailOp(struct EmailOp memory)": "infinite",
				"_getFeeConversionRate(string memory)": "infinite",
				"_transferERC20FromUserWallet(address,address,address,uint256)": "infinite"
			}
		},
		"methodIdentifiers": {
			"accountHandler()": "33ddfb9a",
			"depositTokenAsExtension(address,uint256)": "75af3217",
			"emailNullifiers(bytes32)": "17ace6b5",
			"emailValidityDuration()": "b90d36f9",
			"executeAsExtension(address,bytes)": "21d71c8f",
			"extensionHandler()": "9f6d1d83",
			"handleEmailOp((bytes32,bool,bytes32,uint256,address,string,bytes32,string,bytes32,uint256,string,string,uint256,bytes,string,address,address,(string,uint256),(uint8,bytes[]),bytes))": "1377df44",
			"initialize(bytes[])": "6f2de70e",
			"maxFeePerGas()": "2728bf2c",
			"priceOracle()": "2630c12f",
			"registerUnclaimedStateAsExtension(address,bytes)": "c9af3f1c",
			"relayerHandler()": "5e5f2610",
			"requestTokenAsExtension(address,uint256)": "65a345ac",
			"tokenRegistry()": "9d23c4c7",
			"unclaimedFundClaimGas()": "66221734",
			"unclaimedStateClaimGas()": "a87fedae",
			"unclaimsHandler()": "d5e5c1c8",
			"validateEmailOp((bytes32,bool,bytes32,uint256,address,string,bytes32,string,bytes32,uint256,string,string,uint256,bytes,string,address,address,(string,uint256),(uint8,bytes[]),bytes))": "a3964475",
			"verifier()": "2b7ac3f3",
			"wethContract()": "4780eac1"
		}
	},
	"abi": [
		{
			"inputs": [
				{
					"internalType": "address",
					"name": "_relayerHandler",
					"type": "address"
				},
				{
					"internalType": "address",
					"name": "_accountHandler",
					"type": "address"
				},
				{
					"internalType": "address",
					"name": "_unclaimsHandler",
					"type": "address"
				},
				{
					"internalType": "address",
					"name": "_extensionHandler",
					"type": "address"
				},
				{
					"internalType": "address",
					"name": "_verifier",
					"type": "address"
				},
				{
					"internalType": "address",
					"name": "_tokenRegistry",
					"type": "address"
				},
				{
					"internalType": "address",
					"name": "_priceOracle",
					"type": "address"
				},
				{
					"internalType": "address",
					"name": "_wethContract",
					"type": "address"
				},
				{
					"internalType": "uint256",
					"name": "_maxFeePerGas",
					"type": "uint256"
				},
				{
					"internalType": "uint256",
					"name": "_emailValidityDuration",
					"type": "uint256"
				},
				{
					"internalType": "uint256",
					"name": "_unclaimedFundClaimGas",
					"type": "uint256"
				},
				{
					"internalType": "uint256",
					"name": "_unclaimedStateClaimGas",
					"type": "uint256"
				}
			],
			"stateMutability": "nonpayable",
			"type": "constructor"
		},
		{
			"anonymous": false,
			"inputs": [
				{
					"indexed": true,
					"internalType": "bool",
					"name": "success",
					"type": "bool"
				},
				{
					"indexed": true,
					"internalType": "uint256",
					"name": "registeredUnclaimId",
					"type": "uint256"
				},
				{
					"indexed": true,
					"internalType": "bytes32",
					"name": "emailNullifier",
					"type": "bytes32"
				},
				{
					"indexed": false,
					"internalType": "bytes32",
					"name": "emailAddrPointer",
					"type": "bytes32"
				},
				{
					"indexed": false,
					"internalType": "bytes32",
					"name": "recipientEmailAddrCommit",
					"type": "bytes32"
				},
				{
					"indexed": false,
					"internalType": "address",
					"name": "recipientETHAddr",
					"type": "address"
				},
				{
					"indexed": false,
					"internalType": "bytes",
					"name": "err",
					"type": "bytes"
				}
			],
			"name": "EmailOpHandled",
			"type": "event"
		},
		{
			"stateMutability": "payable",
			"type": "fallback"
		},
		{
			"inputs": [],
			"name": "accountHandler",
			"outputs": [
				{
					"internalType": "contract AccountHandler",
					"name": "",
					"type": "address"
				}
			],
			"stateMutability": "view",
			"type": "function"
		},
		{
			"inputs": [
				{
					"internalType": "address",
					"name": "tokenAddr",
					"type": "address"
				},
				{
					"internalType": "uint256",
					"name": "amount",
					"type": "uint256"
				}
			],
			"name": "depositTokenAsExtension",
			"outputs": [],
			"stateMutability": "nonpayable",
			"type": "function"
		},
		{
			"inputs": [
				{
					"internalType": "bytes32",
					"name": "",
					"type": "bytes32"
				}
			],
			"name": "emailNullifiers",
			"outputs": [
				{
					"internalType": "bool",
					"name": "",
					"type": "bool"
				}
			],
			"stateMutability": "view",
			"type": "function"
		},
		{
			"inputs": [],
			"name": "emailValidityDuration",
			"outputs": [
				{
					"internalType": "uint256",
					"name": "",
					"type": "uint256"
				}
			],
			"stateMutability": "view",
			"type": "function"
		},
		{
			"inputs": [
				{
					"internalType": "address",
					"name": "target",
					"type": "address"
				},
				{
					"internalType": "bytes",
					"name": "data",
					"type": "bytes"
				}
			],
			"name": "executeAsExtension",
			"outputs": [],
			"stateMutability": "nonpayable",
			"type": "function"
		},
		{
			"inputs": [],
			"name": "extensionHandler",
			"outputs": [
				{
					"internalType": "contract ExtensionHandler",
					"name": "",
					"type": "address"
				}
			],
			"stateMutability": "view",
			"type": "function"
		},
		{
			"inputs": [
				{
					"components": [
						{
							"internalType": "bytes32",
							"name": "emailAddrPointer",
							"type": "bytes32"
						},
						{
							"internalType": "bool",
							"name": "hasEmailRecipient",
							"type": "bool"
						},
						{
							"internalType": "bytes32",
							"name": "recipientEmailAddrCommit",
							"type": "bytes32"
						},
						{
							"internalType": "uint256",
							"name": "numRecipientEmailAddrBytes",
							"type": "uint256"
						},
						{
							"internalType": "address",
							"name": "recipientETHAddr",
							"type": "address"
						},
						{
							"internalType": "string",
							"name": "command",
							"type": "string"
						},
						{
							"internalType": "bytes32",
							"name": "emailNullifier",
							"type": "bytes32"
						},
						{
							"internalType": "string",
							"name": "emailDomain",
							"type": "string"
						},
						{
							"internalType": "bytes32",
							"name": "dkimPublicKeyHash",
							"type": "bytes32"
						},
						{
							"internalType": "uint256",
							"name": "timestamp",
							"type": "uint256"
						},
						{
							"internalType": "string",
							"name": "maskedSubject",
							"type": "string"
						},
						{
							"internalType": "string",
							"name": "feeTokenName",
							"type": "string"
						},
						{
							"internalType": "uint256",
							"name": "feePerGas",
							"type": "uint256"
						},
						{
							"internalType": "bytes",
							"name": "executeCallData",
							"type": "bytes"
						},
						{
							"internalType": "string",
							"name": "extensionName",
							"type": "string"
						},
						{
							"internalType": "address",
							"name": "newWalletOwner",
							"type": "address"
						},
						{
							"internalType": "address",
							"name": "newDkimRegistry",
							"type": "address"
						},
						{
							"components": [
								{
									"internalType": "string",
									"name": "tokenName",
									"type": "string"
								},
								{
									"internalType": "uint256",
									"name": "amount",
									"type": "uint256"
								}
							],
							"internalType": "struct WalletParams",
							"name": "walletParams",
							"type": "tuple"
						},
						{
							"components": [
								{
									"internalType": "uint8",
									"name": "subjectTemplateIndex",
									"type": "uint8"
								},
								{
									"internalType": "bytes[]",
									"name": "subjectParams",
									"type": "bytes[]"
								}
							],
							"internalType": "struct ExtensionParams",
							"name": "extensionParams",
							"type": "tuple"
						},
						{
							"internalType": "bytes",
							"name": "emailProof",
							"type": "bytes"
						}
					],
					"internalType": "struct EmailOp",
					"name": "emailOp",
					"type": "tuple"
				}
			],
			"name": "handleEmailOp",
			"outputs": [
				{
					"internalType": "bool",
					"name": "success",
					"type": "bool"
				},
				{
					"internalType": "bytes",
					"name": "err",
					"type": "bytes"
				},
				{
					"internalType": "uint256",
					"name": "totalFeeInETH",
					"type": "uint256"
				},
				{
					"internalType": "uint256",
					"name": "registeredUnclaimId",
					"type": "uint256"
				}
			],
			"stateMutability": "payable",
			"type": "function"
		},
		{
			"inputs": [
				{
					"internalType": "bytes[]",
					"name": "defaultExtensions",
					"type": "bytes[]"
				}
			],
			"name": "initialize",
			"outputs": [],
			"stateMutability": "nonpayable",
			"type": "function"
		},
		{
			"inputs": [],
			"name": "maxFeePerGas",
			"outputs": [
				{
					"internalType": "uint256",
					"name": "",
					"type": "uint256"
				}
			],
			"stateMutability": "view",
			"type": "function"
		},
		{
			"inputs": [],
			"name": "priceOracle",
			"outputs": [
				{
					"internalType": "contract IPriceOracle",
					"name": "",
					"type": "address"
				}
			],
			"stateMutability": "view",
			"type": "function"
		},
		{
			"inputs": [
				{
					"internalType": "address",
					"name": "extensionAddr",
					"type": "address"
				},
				{
					"internalType": "bytes",
					"name": "state",
					"type": "bytes"
				}
			],
			"name": "registerUnclaimedStateAsExtension",
			"outputs": [],
			"stateMutability": "nonpayable",
			"type": "function"
		},
		{
			"inputs": [],
			"name": "relayerHandler",
			"outputs": [
				{
					"internalType": "contract RelayerHandler",
					"name": "",
					"type": "address"
				}
			],
			"stateMutability": "view",
			"type": "function"
		},
		{
			"inputs": [
				{
					"internalType": "address",
					"name": "tokenAddr",
					"type": "address"
				},
				{
					"internalType": "uint256",
					"name": "amount",
					"type": "uint256"
				}
			],
			"name": "requestTokenAsExtension",
			"outputs": [],
			"stateMutability": "nonpayable",
			"type": "function"
		},
		{
			"inputs": [],
			"name": "tokenRegistry",
			"outputs": [
				{
					"internalType": "contract TokenRegistry",
					"name": "",
					"type": "address"
				}
			],
			"stateMutability": "view",
			"type": "function"
		},
		{
			"inputs": [],
			"name": "unclaimedFundClaimGas",
			"outputs": [
				{
					"internalType": "uint256",
					"name": "",
					"type": "uint256"
				}
			],
			"stateMutability": "view",
			"type": "function"
		},
		{
			"inputs": [],
			"name": "unclaimedStateClaimGas",
			"outputs": [
				{
					"internalType": "uint256",
					"name": "",
					"type": "uint256"
				}
			],
			"stateMutability": "view",
			"type": "function"
		},
		{
			"inputs": [],
			"name": "unclaimsHandler",
			"outputs": [
				{
					"internalType": "contract UnclaimsHandler",
					"name": "",
					"type": "address"
				}
			],
			"stateMutability": "view",
			"type": "function"
		},
		{
			"inputs": [
				{
					"components": [
						{
							"internalType": "bytes32",
							"name": "emailAddrPointer",
							"type": "bytes32"
						},
						{
							"internalType": "bool",
							"name": "hasEmailRecipient",
							"type": "bool"
						},
						{
							"internalType": "bytes32",
							"name": "recipientEmailAddrCommit",
							"type": "bytes32"
						},
						{
							"internalType": "uint256",
							"name": "numRecipientEmailAddrBytes",
							"type": "uint256"
						},
						{
							"internalType": "address",
							"name": "recipientETHAddr",
							"type": "address"
						},
						{
							"internalType": "string",
							"name": "command",
							"type": "string"
						},
						{
							"internalType": "bytes32",
							"name": "emailNullifier",
							"type": "bytes32"
						},
						{
							"internalType": "string",
							"name": "emailDomain",
							"type": "string"
						},
						{
							"internalType": "bytes32",
							"name": "dkimPublicKeyHash",
							"type": "bytes32"
						},
						{
							"internalType": "uint256",
							"name": "timestamp",
							"type": "uint256"
						},
						{
							"internalType": "string",
							"name": "maskedSubject",
							"type": "string"
						},
						{
							"internalType": "string",
							"name": "feeTokenName",
							"type": "string"
						},
						{
							"internalType": "uint256",
							"name": "feePerGas",
							"type": "uint256"
						},
						{
							"internalType": "bytes",
							"name": "executeCallData",
							"type": "bytes"
						},
						{
							"internalType": "string",
							"name": "extensionName",
							"type": "string"
						},
						{
							"internalType": "address",
							"name": "newWalletOwner",
							"type": "address"
						},
						{
							"internalType": "address",
							"name": "newDkimRegistry",
							"type": "address"
						},
						{
							"components": [
								{
									"internalType": "string",
									"name": "tokenName",
									"type": "string"
								},
								{
									"internalType": "uint256",
									"name": "amount",
									"type": "uint256"
								}
							],
							"internalType": "struct WalletParams",
							"name": "walletParams",
							"type": "tuple"
						},
						{
							"components": [
								{
									"internalType": "uint8",
									"name": "subjectTemplateIndex",
									"type": "uint8"
								},
								{
									"internalType": "bytes[]",
									"name": "subjectParams",
									"type": "bytes[]"
								}
							],
							"internalType": "struct ExtensionParams",
							"name": "extensionParams",
							"type": "tuple"
						},
						{
							"internalType": "bytes",
							"name": "emailProof",
							"type": "bytes"
						}
					],
					"internalType": "struct EmailOp",
					"name": "emailOp",
					"type": "tuple"
				}
			],
			"name": "validateEmailOp",
			"outputs": [],
			"stateMutability": "view",
			"type": "function"
		},
		{
			"inputs": [],
			"name": "verifier",
			"outputs": [
				{
					"internalType": "contract IVerifier",
					"name": "",
					"type": "address"
				}
			],
			"stateMutability": "view",
			"type": "function"
		},
		{
			"inputs": [],
			"name": "wethContract",
			"outputs": [
				{
					"internalType": "address",
					"name": "",
					"type": "address"
				}
			],
			"stateMutability": "view",
			"type": "function"
		},
		{
			"stateMutability": "payable",
			"type": "receive"
		}
	]
}